{
	"study/dataStorage.sol": {
		"Variables": {
			"abi": [
				{
					"inputs": [],
					"name": "bar",
					"outputs": [
						{
							"internalType": "uint256",
							"name": "",
							"type": "uint256"
						}
					],
					"stateMutability": "pure",
					"type": "function"
				},
				{
					"inputs": [],
					"name": "daysUnit",
					"outputs": [
						{
							"internalType": "uint256",
							"name": "",
							"type": "uint256"
						}
					],
					"stateMutability": "pure",
					"type": "function"
				},
				{
					"inputs": [],
					"name": "etherUnit",
					"outputs": [
						{
							"internalType": "uint256",
							"name": "",
							"type": "uint256"
						}
					],
					"stateMutability": "pure",
					"type": "function"
				},
				{
					"inputs": [],
					"name": "foo",
					"outputs": [],
					"stateMutability": "nonpayable",
					"type": "function"
				},
				{
					"inputs": [],
					"name": "gWeiUnit",
					"outputs": [
						{
							"internalType": "uint256",
							"name": "",
							"type": "uint256"
						}
					],
					"stateMutability": "pure",
					"type": "function"
				},
				{
					"inputs": [],
					"name": "globalData",
					"outputs": [
						{
							"internalType": "address",
							"name": "",
							"type": "address"
						},
						{
							"internalType": "uint256",
							"name": "",
							"type": "uint256"
						},
						{
							"internalType": "bytes",
							"name": "",
							"type": "bytes"
						}
					],
					"stateMutability": "view",
					"type": "function"
				},
				{
					"inputs": [],
					"name": "hoursUnit",
					"outputs": [
						{
							"internalType": "uint256",
							"name": "",
							"type": "uint256"
						}
					],
					"stateMutability": "pure",
					"type": "function"
				},
				{
					"inputs": [],
					"name": "minutesUnit",
					"outputs": [
						{
							"internalType": "uint256",
							"name": "",
							"type": "uint256"
						}
					],
					"stateMutability": "pure",
					"type": "function"
				},
				{
					"inputs": [],
					"name": "secondsUnit",
					"outputs": [
						{
							"internalType": "uint256",
							"name": "",
							"type": "uint256"
						}
					],
					"stateMutability": "pure",
					"type": "function"
				},
				{
					"inputs": [],
					"name": "weeksUnit",
					"outputs": [
						{
							"internalType": "uint256",
							"name": "",
							"type": "uint256"
						}
					],
					"stateMutability": "pure",
					"type": "function"
				},
				{
					"inputs": [],
					"name": "weiUnit",
					"outputs": [
						{
							"internalType": "uint256",
							"name": "",
							"type": "uint256"
						}
					],
					"stateMutability": "pure",
					"type": "function"
				},
				{
					"inputs": [],
					"name": "x",
					"outputs": [
						{
							"internalType": "uint256",
							"name": "",
							"type": "uint256"
						}
					],
					"stateMutability": "view",
					"type": "function"
				},
				{
					"inputs": [],
					"name": "y",
					"outputs": [
						{
							"internalType": "uint256",
							"name": "",
							"type": "uint256"
						}
					],
					"stateMutability": "view",
					"type": "function"
				},
				{
					"inputs": [],
					"name": "z",
					"outputs": [
						{
							"internalType": "string",
							"name": "",
							"type": "string"
						}
					],
					"stateMutability": "view",
					"type": "function"
				}
			],
			"devdoc": {
				"kind": "dev",
				"methods": {},
				"version": 1
			},
			"evm": {
				"assembly": "    /* \"study/dataStorage.sol\":767:2630  contract Variables {... */\n  mstore(0x40, 0x80)\n    /* \"study/dataStorage.sol\":808:809  1 */\n  0x01\n    /* \"study/dataStorage.sol\":792:809  uint public x = 1 */\n  0x00\n  sstore\n    /* \"study/dataStorage.sol\":767:2630  contract Variables {... */\n  callvalue\n  dup1\n  iszero\n  tag_1\n  jumpi\n  revert(0x00, 0x00)\ntag_1:\n  pop\n  dataSize(sub_0)\n  dup1\n  dataOffset(sub_0)\n  0x00\n  codecopy\n  0x00\n  return\nstop\n\nsub_0: assembly {\n        /* \"study/dataStorage.sol\":767:2630  contract Variables {... */\n      mstore(0x40, 0x80)\n      callvalue\n      dup1\n      iszero\n      tag_1\n      jumpi\n      revert(0x00, 0x00)\n    tag_1:\n      pop\n      jumpi(tag_2, lt(calldatasize, 0x04))\n      shr(0xe0, calldataload(0x00))\n      dup1\n      0xbe44f864\n      gt\n      tag_17\n      jumpi\n      dup1\n      0xcb9f1220\n      gt\n      tag_18\n      jumpi\n      dup1\n      0xcb9f1220\n      eq\n      tag_13\n      jumpi\n      dup1\n      0xd3c70477\n      eq\n      tag_14\n      jumpi\n      dup1\n      0xf1e6d198\n      eq\n      tag_15\n      jumpi\n      dup1\n      0xfebb0f7e\n      eq\n      tag_16\n      jumpi\n      jump(tag_2)\n    tag_18:\n      dup1\n      0xbe44f864\n      eq\n      tag_10\n      jumpi\n      dup1\n      0xc2985578\n      eq\n      tag_11\n      jumpi\n      dup1\n      0xc5d7802e\n      eq\n      tag_12\n      jumpi\n      jump(tag_2)\n    tag_17:\n      dup1\n      0x2aca45f1\n      gt\n      tag_19\n      jumpi\n      dup1\n      0x2aca45f1\n      eq\n      tag_6\n      jumpi\n      dup1\n      0x613ce410\n      eq\n      tag_7\n      jumpi\n      dup1\n      0xa0d0d59e\n      eq\n      tag_8\n      jumpi\n      dup1\n      0xa56dfe4a\n      eq\n      tag_9\n      jumpi\n      jump(tag_2)\n    tag_19:\n      dup1\n      0x09879682\n      eq\n      tag_3\n      jumpi\n      dup1\n      0x0c55699c\n      eq\n      tag_4\n      jumpi\n      dup1\n      0x12176349\n      eq\n      tag_5\n      jumpi\n    tag_2:\n      revert(0x00, 0x00)\n        /* \"study/dataStorage.sol\":1883:1998  function secondsUnit() external pure returns(uint){... */\n    tag_3:\n      tag_20\n      tag_21\n      jump\t// in\n    tag_20:\n      mload(0x40)\n      tag_22\n      swap2\n      swap1\n      tag_23\n      jump\t// in\n    tag_22:\n      mload(0x40)\n      dup1\n      swap2\n      sub\n      swap1\n      return\n        /* \"study/dataStorage.sol\":792:809  uint public x = 1 */\n    tag_4:\n      tag_24\n      tag_25\n      jump\t// in\n    tag_24:\n      mload(0x40)\n      tag_26\n      swap2\n      swap1\n      tag_23\n      jump\t// in\n    tag_26:\n      mload(0x40)\n      dup1\n      swap2\n      sub\n      swap1\n      return\n        /* \"study/dataStorage.sol\":1403:1537  function weiUnit() external pure returns(uint) {... */\n    tag_5:\n      tag_27\n      tag_28\n      jump\t// in\n    tag_27:\n      mload(0x40)\n      tag_29\n      swap2\n      swap1\n      tag_23\n      jump\t// in\n    tag_29:\n      mload(0x40)\n      dup1\n      swap2\n      sub\n      swap1\n      return\n        /* \"study/dataStorage.sol\":2478:2628  function weeksUnit() external pure returns(uint) {... */\n    tag_6:\n      tag_30\n      tag_31\n      jump\t// in\n    tag_30:\n      mload(0x40)\n      tag_32\n      swap2\n      swap1\n      tag_23\n      jump\t// in\n    tag_32:\n      mload(0x40)\n      dup1\n      swap2\n      sub\n      swap1\n      return\n        /* \"study/dataStorage.sol\":1143:1376  function globalData() external view returns(address, uint, bytes memory){... */\n    tag_7:\n      tag_33\n      tag_34\n      jump\t// in\n    tag_33:\n      mload(0x40)\n      tag_35\n      swap4\n      swap3\n      swap2\n      swap1\n      tag_36\n      jump\t// in\n    tag_35:\n      mload(0x40)\n      dup1\n      swap2\n      sub\n      swap1\n      return\n        /* \"study/dataStorage.sol\":2325:2472  function daysUnit() external pure returns(uint) {... */\n    tag_8:\n      tag_37\n      tag_38\n      jump\t// in\n    tag_37:\n      mload(0x40)\n      tag_39\n      swap2\n      swap1\n      tag_23\n      jump\t// in\n    tag_39:\n      mload(0x40)\n      dup1\n      swap2\n      sub\n      swap1\n      return\n        /* \"study/dataStorage.sol\":815:828  uint public y */\n    tag_9:\n      tag_40\n      tag_41\n      jump\t// in\n    tag_40:\n      mload(0x40)\n      tag_42\n      swap2\n      swap1\n      tag_23\n      jump\t// in\n    tag_42:\n      mload(0x40)\n      dup1\n      swap2\n      sub\n      swap1\n      return\n        /* \"study/dataStorage.sol\":2167:2319  function hoursUnit() external pure returns(uint) {... */\n    tag_10:\n      tag_43\n      tag_44\n      jump\t// in\n    tag_43:\n      mload(0x40)\n      tag_45\n      swap2\n      swap1\n      tag_23\n      jump\t// in\n    tag_45:\n      mload(0x40)\n      dup1\n      swap2\n      sub\n      swap1\n      return\n        /* \"study/dataStorage.sol\":856:991  function foo() external {... */\n    tag_11:\n      tag_46\n      tag_47\n      jump\t// in\n    tag_46:\n      stop\n        /* \"study/dataStorage.sol\":834:849  string public z */\n    tag_12:\n      tag_48\n      tag_49\n      jump\t// in\n    tag_48:\n      mload(0x40)\n      tag_50\n      swap2\n      swap1\n      tag_51\n      jump\t// in\n    tag_50:\n      mload(0x40)\n      dup1\n      swap2\n      sub\n      swap1\n      return\n        /* \"study/dataStorage.sol\":1696:1857  function etherUnit() external pure returns(uint) {... */\n    tag_13:\n      tag_52\n      tag_53\n      jump\t// in\n    tag_52:\n      mload(0x40)\n      tag_54\n      swap2\n      swap1\n      tag_23\n      jump\t// in\n    tag_54:\n      mload(0x40)\n      dup1\n      swap2\n      sub\n      swap1\n      return\n        /* \"study/dataStorage.sol\":1543:1690  function gWeiUnit() external pure returns(uint) {... */\n    tag_14:\n      tag_55\n      tag_56\n      jump\t// in\n    tag_55:\n      mload(0x40)\n      tag_57\n      swap2\n      swap1\n      tag_23\n      jump\t// in\n    tag_57:\n      mload(0x40)\n      dup1\n      swap2\n      sub\n      swap1\n      return\n        /* \"study/dataStorage.sol\":2004:2161  function minutesUnit() external pure returns(uint){... */\n    tag_15:\n      tag_58\n      tag_59\n      jump\t// in\n    tag_58:\n      mload(0x40)\n      tag_60\n      swap2\n      swap1\n      tag_23\n      jump\t// in\n    tag_60:\n      mload(0x40)\n      dup1\n      swap2\n      sub\n      swap1\n      return\n        /* \"study/dataStorage.sol\":997:1137  function bar() external pure returns(uint) {... */\n    tag_16:\n      tag_61\n      tag_62\n      jump\t// in\n    tag_61:\n      mload(0x40)\n      tag_63\n      swap2\n      swap1\n      tag_23\n      jump\t// in\n    tag_63:\n      mload(0x40)\n      dup1\n      swap2\n      sub\n      swap1\n      return\n        /* \"study/dataStorage.sol\":1883:1998  function secondsUnit() external pure returns(uint){... */\n    tag_21:\n        /* \"study/dataStorage.sol\":1928:1932  uint */\n      0x00\n        /* \"study/dataStorage.sol\":1963:1964  1 */\n      0x01\n        /* \"study/dataStorage.sol\":1950:1959  1 seconds */\n      dup1\n        /* \"study/dataStorage.sol\":1950:1964  1 seconds == 1 */\n      eq\n        /* \"study/dataStorage.sol\":1943:1965  assert(1 seconds == 1) */\n      tag_65\n      jumpi\n      tag_66\n      tag_67\n      jump\t// in\n    tag_66:\n    tag_65:\n        /* \"study/dataStorage.sol\":1982:1991  1 seconds */\n      0x01\n        /* \"study/dataStorage.sol\":1975:1991  return 1 seconds */\n      swap1\n      pop\n        /* \"study/dataStorage.sol\":1883:1998  function secondsUnit() external pure returns(uint){... */\n      swap1\n      jump\t// out\n        /* \"study/dataStorage.sol\":792:809  uint public x = 1 */\n    tag_25:\n      sload(0x00)\n      dup2\n      jump\t// out\n        /* \"study/dataStorage.sol\":1403:1537  function weiUnit() external pure returns(uint) {... */\n    tag_28:\n        /* \"study/dataStorage.sol\":1444:1448  uint */\n      0x00\n        /* \"study/dataStorage.sol\":1476:1479  1e0 */\n      0x01\n        /* \"study/dataStorage.sol\":1467:1472  1 wei */\n      dup1\n        /* \"study/dataStorage.sol\":1467:1479  1 wei == 1e0 */\n      eq\n        /* \"study/dataStorage.sol\":1460:1480  assert(1 wei == 1e0) */\n      tag_69\n      jumpi\n      tag_70\n      tag_67\n      jump\t// in\n    tag_70:\n    tag_69:\n        /* \"study/dataStorage.sol\":1506:1507  1 */\n      0x01\n        /* \"study/dataStorage.sol\":1497:1502  1 wei */\n      dup1\n        /* \"study/dataStorage.sol\":1497:1507  1 wei == 1 */\n      eq\n        /* \"study/dataStorage.sol\":1490:1508  assert(1 wei == 1) */\n      tag_71\n      jumpi\n      tag_72\n      tag_67\n      jump\t// in\n    tag_72:\n    tag_71:\n        /* \"study/dataStorage.sol\":1525:1530  1 wei */\n      0x01\n        /* \"study/dataStorage.sol\":1518:1530  return 1 wei */\n      swap1\n      pop\n        /* \"study/dataStorage.sol\":1403:1537  function weiUnit() external pure returns(uint) {... */\n      swap1\n      jump\t// out\n        /* \"study/dataStorage.sol\":2478:2628  function weeksUnit() external pure returns(uint) {... */\n    tag_31:\n        /* \"study/dataStorage.sol\":2521:2525  uint */\n      0x00\n        /* \"study/dataStorage.sol\":2555:2561  604800 */\n      0x093a80\n        /* \"study/dataStorage.sol\":2544:2551  1 weeks */\n      dup1\n        /* \"study/dataStorage.sol\":2544:2561  1 weeks == 604800 */\n      eq\n        /* \"study/dataStorage.sol\":2537:2562  assert(1 weeks == 604800) */\n      tag_74\n      jumpi\n      tag_75\n      tag_67\n      jump\t// in\n    tag_75:\n    tag_74:\n        /* \"study/dataStorage.sol\":2590:2596  7 days */\n      0x093a80\n        /* \"study/dataStorage.sol\":2579:2586  1 weeks */\n      dup1\n        /* \"study/dataStorage.sol\":2579:2596  1 weeks == 7 days */\n      eq\n        /* \"study/dataStorage.sol\":2572:2597  assert(1 weeks == 7 days) */\n      tag_76\n      jumpi\n      tag_77\n      tag_67\n      jump\t// in\n    tag_77:\n    tag_76:\n        /* \"study/dataStorage.sol\":2614:2621  1 weeks */\n      0x093a80\n        /* \"study/dataStorage.sol\":2607:2621  return 1 weeks */\n      swap1\n      pop\n        /* \"study/dataStorage.sol\":2478:2628  function weeksUnit() external pure returns(uint) {... */\n      swap1\n      jump\t// out\n        /* \"study/dataStorage.sol\":1143:1376  function globalData() external view returns(address, uint, bytes memory){... */\n    tag_34:\n        /* \"study/dataStorage.sol\":1187:1194  address */\n      0x00\n        /* \"study/dataStorage.sol\":1196:1200  uint */\n      0x00\n        /* \"study/dataStorage.sol\":1202:1214  bytes memory */\n      0x60\n        /* \"study/dataStorage.sol\":1225:1239  address sender */\n      0x00\n        /* \"study/dataStorage.sol\":1242:1252  msg.sender */\n      caller\n        /* \"study/dataStorage.sol\":1225:1252  address sender = msg.sender */\n      swap1\n      pop\n        /* \"study/dataStorage.sol\":1262:1275  uint blockNum */\n      0x00\n        /* \"study/dataStorage.sol\":1278:1290  block.number */\n      number\n        /* \"study/dataStorage.sol\":1262:1290  uint blockNum = block.number */\n      swap1\n      pop\n        /* \"study/dataStorage.sol\":1300:1317  bytes memory data */\n      0x00\n        /* \"study/dataStorage.sol\":1320:1328  msg.data */\n      0x00\n      calldatasize\n        /* \"study/dataStorage.sol\":1300:1328  bytes memory data = msg.data */\n      dup1\n      dup1\n      0x1f\n      add\n      0x20\n      dup1\n      swap2\n      div\n      mul\n      0x20\n      add\n      mload(0x40)\n      swap1\n      dup2\n      add\n      0x40\n      mstore\n      dup1\n      swap4\n      swap3\n      swap2\n      swap1\n      dup2\n      dup2\n      mstore\n      0x20\n      add\n      dup4\n      dup4\n      dup1\n      dup3\n      dup5\n      calldatacopy\n      0x00\n      dup2\n      dup5\n      add\n      mstore\n      not(0x1f)\n      0x1f\n      dup3\n      add\n      and\n      swap1\n      pop\n      dup1\n      dup4\n      add\n      swap3\n      pop\n      pop\n      pop\n      pop\n      pop\n      pop\n      pop\n      swap1\n      pop\n        /* \"study/dataStorage.sol\":1346:1352  sender */\n      dup3\n        /* \"study/dataStorage.sol\":1354:1362  blockNum */\n      dup3\n        /* \"study/dataStorage.sol\":1364:1368  data */\n      dup3\n        /* \"study/dataStorage.sol\":1338:1369  return (sender, blockNum, data) */\n      swap6\n      pop\n      swap6\n      pop\n      swap6\n      pop\n      pop\n      pop\n      pop\n        /* \"study/dataStorage.sol\":1143:1376  function globalData() external view returns(address, uint, bytes memory){... */\n      swap1\n      swap2\n      swap3\n      jump\t// out\n        /* \"study/dataStorage.sol\":2325:2472  function daysUnit() external pure returns(uint) {... */\n    tag_38:\n        /* \"study/dataStorage.sol\":2367:2371  uint */\n      0x00\n        /* \"study/dataStorage.sol\":2400:2405  86400 */\n      0x015180\n        /* \"study/dataStorage.sol\":2390:2396  1 days */\n      dup1\n        /* \"study/dataStorage.sol\":2390:2405  1 days == 86400 */\n      eq\n        /* \"study/dataStorage.sol\":2383:2406  assert(1 days == 86400) */\n      tag_80\n      jumpi\n      tag_81\n      tag_67\n      jump\t// in\n    tag_81:\n    tag_80:\n        /* \"study/dataStorage.sol\":2433:2441  24 hours */\n      0x015180\n        /* \"study/dataStorage.sol\":2423:2429  1 days */\n      dup1\n        /* \"study/dataStorage.sol\":2423:2441  1 days == 24 hours */\n      eq\n        /* \"study/dataStorage.sol\":2416:2442  assert(1 days == 24 hours) */\n      tag_82\n      jumpi\n      tag_83\n      tag_67\n      jump\t// in\n    tag_83:\n    tag_82:\n        /* \"study/dataStorage.sol\":2459:2465  1 days */\n      0x015180\n        /* \"study/dataStorage.sol\":2452:2465  return 1 days */\n      swap1\n      pop\n        /* \"study/dataStorage.sol\":2325:2472  function daysUnit() external pure returns(uint) {... */\n      swap1\n      jump\t// out\n        /* \"study/dataStorage.sol\":815:828  uint public y */\n    tag_41:\n      sload(0x01)\n      dup2\n      jump\t// out\n        /* \"study/dataStorage.sol\":2167:2319  function hoursUnit() external pure returns(uint) {... */\n    tag_44:\n        /* \"study/dataStorage.sol\":2210:2214  uint */\n      0x00\n        /* \"study/dataStorage.sol\":2244:2248  3600 */\n      0x0e10\n        /* \"study/dataStorage.sol\":2233:2240  1 hours */\n      dup1\n        /* \"study/dataStorage.sol\":2233:2248  1 hours == 3600 */\n      eq\n        /* \"study/dataStorage.sol\":2226:2249  assert(1 hours == 3600) */\n      tag_85\n      jumpi\n      tag_86\n      tag_67\n      jump\t// in\n    tag_86:\n    tag_85:\n        /* \"study/dataStorage.sol\":2277:2287  60 minutes */\n      0x0e10\n        /* \"study/dataStorage.sol\":2266:2273  1 hours */\n      dup1\n        /* \"study/dataStorage.sol\":2266:2287  1 hours == 60 minutes */\n      eq\n        /* \"study/dataStorage.sol\":2259:2288  assert(1 hours == 60 minutes) */\n      tag_87\n      jumpi\n      tag_88\n      tag_67\n      jump\t// in\n    tag_88:\n    tag_87:\n        /* \"study/dataStorage.sol\":2305:2312  1 hours */\n      0x0e10\n        /* \"study/dataStorage.sol\":2298:2312  return 1 hours */\n      swap1\n      pop\n        /* \"study/dataStorage.sol\":2167:2319  function hoursUnit() external pure returns(uint) {... */\n      swap1\n      jump\t// out\n        /* \"study/dataStorage.sol\":856:991  function foo() external {... */\n    tag_47:\n        /* \"study/dataStorage.sol\":948:949  3 */\n      0x03\n        /* \"study/dataStorage.sol\":944:945  x */\n      0x00\n        /* \"study/dataStorage.sol\":944:949  x = 3 */\n      dup2\n      swap1\n      sstore\n      pop\n        /* \"study/dataStorage.sol\":963:964  2 */\n      0x02\n        /* \"study/dataStorage.sol\":959:960  y */\n      0x01\n        /* \"study/dataStorage.sol\":959:964  y = 2 */\n      dup2\n      swap1\n      sstore\n      pop\n        /* \"study/dataStorage.sol\":974:984  z = '0xAA' */\n      mload(0x40)\n      dup1\n      0x40\n      add\n      0x40\n      mstore\n      dup1\n      0x04\n      dup2\n      mstore\n      0x20\n      add\n      0x3078414100000000000000000000000000000000000000000000000000000000\n      dup2\n      mstore\n      pop\n        /* \"study/dataStorage.sol\":974:975  z */\n      0x02\n        /* \"study/dataStorage.sol\":974:984  z = '0xAA' */\n      swap1\n      dup2\n      tag_90\n      swap2\n      swap1\n      tag_91\n      jump\t// in\n    tag_90:\n      pop\n        /* \"study/dataStorage.sol\":856:991  function foo() external {... */\n      jump\t// out\n        /* \"study/dataStorage.sol\":834:849  string public z */\n    tag_49:\n      0x02\n      dup1\n      sload\n      tag_92\n      swap1\n      tag_93\n      jump\t// in\n    tag_92:\n      dup1\n      0x1f\n      add\n      0x20\n      dup1\n      swap2\n      div\n      mul\n      0x20\n      add\n      mload(0x40)\n      swap1\n      dup2\n      add\n      0x40\n      mstore\n      dup1\n      swap3\n      swap2\n      swap1\n      dup2\n      dup2\n      mstore\n      0x20\n      add\n      dup3\n      dup1\n      sload\n      tag_94\n      swap1\n      tag_93\n      jump\t// in\n    tag_94:\n      dup1\n      iszero\n      tag_95\n      jumpi\n      dup1\n      0x1f\n      lt\n      tag_96\n      jumpi\n      0x0100\n      dup1\n      dup4\n      sload\n      div\n      mul\n      dup4\n      mstore\n      swap2\n      0x20\n      add\n      swap2\n      jump(tag_95)\n    tag_96:\n      dup3\n      add\n      swap2\n      swap1\n      0x00\n      mstore\n      keccak256(0x00, 0x20)\n      swap1\n    tag_97:\n      dup2\n      sload\n      dup2\n      mstore\n      swap1\n      0x01\n      add\n      swap1\n      0x20\n      add\n      dup1\n      dup4\n      gt\n      tag_97\n      jumpi\n      dup3\n      swap1\n      sub\n      0x1f\n      and\n      dup3\n      add\n      swap2\n    tag_95:\n      pop\n      pop\n      pop\n      pop\n      pop\n      dup2\n      jump\t// out\n        /* \"study/dataStorage.sol\":1696:1857  function etherUnit() external pure returns(uint) {... */\n    tag_53:\n        /* \"study/dataStorage.sol\":1739:1743  uint */\n      0x00\n        /* \"study/dataStorage.sol\":1773:1777  1e18 */\n      0x0de0b6b3a7640000\n        /* \"study/dataStorage.sol\":1762:1769  1 ether */\n      dup1\n        /* \"study/dataStorage.sol\":1762:1777  1 ether == 1e18 */\n      eq\n        /* \"study/dataStorage.sol\":1755:1778  assert(1 ether == 1e18) */\n      tag_99\n      jumpi\n      tag_100\n      tag_67\n      jump\t// in\n    tag_100:\n    tag_99:\n        /* \"study/dataStorage.sol\":1806:1825  1000000000000000000 */\n      0x0de0b6b3a7640000\n        /* \"study/dataStorage.sol\":1795:1802  1 ether */\n      dup1\n        /* \"study/dataStorage.sol\":1795:1825  1 ether == 1000000000000000000 */\n      eq\n        /* \"study/dataStorage.sol\":1788:1826  assert(1 ether == 1000000000000000000) */\n      tag_101\n      jumpi\n      tag_102\n      tag_67\n      jump\t// in\n    tag_102:\n    tag_101:\n        /* \"study/dataStorage.sol\":1843:1850  1 ether */\n      0x0de0b6b3a7640000\n        /* \"study/dataStorage.sol\":1836:1850  return 1 ether */\n      swap1\n      pop\n        /* \"study/dataStorage.sol\":1696:1857  function etherUnit() external pure returns(uint) {... */\n      swap1\n      jump\t// out\n        /* \"study/dataStorage.sol\":1543:1690  function gWeiUnit() external pure returns(uint) {... */\n    tag_56:\n        /* \"study/dataStorage.sol\":1585:1589  uint */\n      0x00\n        /* \"study/dataStorage.sol\":1618:1621  1e9 */\n      0x3b9aca00\n        /* \"study/dataStorage.sol\":1608:1614  1 gwei */\n      dup1\n        /* \"study/dataStorage.sol\":1608:1621  1 gwei == 1e9 */\n      eq\n        /* \"study/dataStorage.sol\":1601:1622  assert(1 gwei == 1e9) */\n      tag_104\n      jumpi\n      tag_105\n      tag_67\n      jump\t// in\n    tag_105:\n    tag_104:\n        /* \"study/dataStorage.sol\":1649:1659  1000000000 */\n      0x3b9aca00\n        /* \"study/dataStorage.sol\":1639:1645  1 gwei */\n      dup1\n        /* \"study/dataStorage.sol\":1639:1659  1 gwei == 1000000000 */\n      eq\n        /* \"study/dataStorage.sol\":1632:1660  assert(1 gwei == 1000000000) */\n      tag_106\n      jumpi\n      tag_107\n      tag_67\n      jump\t// in\n    tag_107:\n    tag_106:\n        /* \"study/dataStorage.sol\":1677:1683  1 gwei */\n      0x3b9aca00\n        /* \"study/dataStorage.sol\":1670:1683  return 1 gwei */\n      swap1\n      pop\n        /* \"study/dataStorage.sol\":1543:1690  function gWeiUnit() external pure returns(uint) {... */\n      swap1\n      jump\t// out\n        /* \"study/dataStorage.sol\":2004:2161  function minutesUnit() external pure returns(uint){... */\n    tag_59:\n        /* \"study/dataStorage.sol\":2049:2053  uint */\n      0x00\n        /* \"study/dataStorage.sol\":2084:2086  60 */\n      0x3c\n        /* \"study/dataStorage.sol\":2071:2080  1 minutes */\n      dup1\n        /* \"study/dataStorage.sol\":2071:2086  1 minutes == 60 */\n      eq\n        /* \"study/dataStorage.sol\":2064:2087  assert(1 minutes == 60) */\n      tag_109\n      jumpi\n      tag_110\n      tag_67\n      jump\t// in\n    tag_110:\n    tag_109:\n        /* \"study/dataStorage.sol\":2117:2127  60 seconds */\n      0x3c\n        /* \"study/dataStorage.sol\":2104:2113  1 minutes */\n      dup1\n        /* \"study/dataStorage.sol\":2104:2127  1 minutes == 60 seconds */\n      eq\n        /* \"study/dataStorage.sol\":2097:2128  assert(1 minutes == 60 seconds) */\n      tag_111\n      jumpi\n      tag_112\n      tag_67\n      jump\t// in\n    tag_112:\n    tag_111:\n        /* \"study/dataStorage.sol\":2145:2154  1 minutes */\n      0x3c\n        /* \"study/dataStorage.sol\":2138:2154  return 1 minutes */\n      swap1\n      pop\n        /* \"study/dataStorage.sol\":2004:2161  function minutesUnit() external pure returns(uint){... */\n      swap1\n      jump\t// out\n        /* \"study/dataStorage.sol\":997:1137  function bar() external pure returns(uint) {... */\n    tag_62:\n        /* \"study/dataStorage.sol\":1034:1038  uint */\n      0x00\n        /* \"study/dataStorage.sol\":1050:1057  uint xx */\n      0x00\n        /* \"study/dataStorage.sol\":1060:1061  1 */\n      0x01\n        /* \"study/dataStorage.sol\":1050:1061  uint xx = 1 */\n      swap1\n      pop\n        /* \"study/dataStorage.sol\":1071:1078  uint yy */\n      0x00\n        /* \"study/dataStorage.sol\":1081:1082  2 */\n      0x02\n        /* \"study/dataStorage.sol\":1071:1082  uint yy = 2 */\n      swap1\n      pop\n        /* \"study/dataStorage.sol\":1092:1099  uint zz */\n      0x00\n        /* \"study/dataStorage.sol\":1107:1109  yy */\n      dup2\n        /* \"study/dataStorage.sol\":1102:1104  xx */\n      dup4\n        /* \"study/dataStorage.sol\":1102:1109  xx + yy */\n      tag_114\n      swap2\n      swap1\n      tag_115\n      jump\t// in\n    tag_114:\n        /* \"study/dataStorage.sol\":1092:1109  uint zz = xx + yy */\n      swap1\n      pop\n        /* \"study/dataStorage.sol\":1127:1129  zz */\n      dup1\n        /* \"study/dataStorage.sol\":1119:1130  return (zz) */\n      swap4\n      pop\n      pop\n      pop\n      pop\n        /* \"study/dataStorage.sol\":997:1137  function bar() external pure returns(uint) {... */\n      swap1\n      jump\t// out\n        /* \"#utility.yul\":7:84   */\n    tag_116:\n        /* \"#utility.yul\":44:51   */\n      0x00\n        /* \"#utility.yul\":73:78   */\n      dup2\n        /* \"#utility.yul\":62:78   */\n      swap1\n      pop\n        /* \"#utility.yul\":7:84   */\n      swap2\n      swap1\n      pop\n      jump\t// out\n        /* \"#utility.yul\":90:208   */\n    tag_117:\n        /* \"#utility.yul\":177:201   */\n      tag_150\n        /* \"#utility.yul\":195:200   */\n      dup2\n        /* \"#utility.yul\":177:201   */\n      tag_116\n      jump\t// in\n    tag_150:\n        /* \"#utility.yul\":172:175   */\n      dup3\n        /* \"#utility.yul\":165:202   */\n      mstore\n        /* \"#utility.yul\":90:208   */\n      pop\n      pop\n      jump\t// out\n        /* \"#utility.yul\":214:436   */\n    tag_23:\n        /* \"#utility.yul\":307:311   */\n      0x00\n        /* \"#utility.yul\":345:347   */\n      0x20\n        /* \"#utility.yul\":334:343   */\n      dup3\n        /* \"#utility.yul\":330:348   */\n      add\n        /* \"#utility.yul\":322:348   */\n      swap1\n      pop\n        /* \"#utility.yul\":358:429   */\n      tag_152\n        /* \"#utility.yul\":426:427   */\n      0x00\n        /* \"#utility.yul\":415:424   */\n      dup4\n        /* \"#utility.yul\":411:428   */\n      add\n        /* \"#utility.yul\":402:408   */\n      dup5\n        /* \"#utility.yul\":358:429   */\n      tag_117\n      jump\t// in\n    tag_152:\n        /* \"#utility.yul\":214:436   */\n      swap3\n      swap2\n      pop\n      pop\n      jump\t// out\n        /* \"#utility.yul\":442:568   */\n    tag_118:\n        /* \"#utility.yul\":479:486   */\n      0x00\n        /* \"#utility.yul\":519:561   */\n      0xffffffffffffffffffffffffffffffffffffffff\n        /* \"#utility.yul\":512:517   */\n      dup3\n        /* \"#utility.yul\":508:562   */\n      and\n        /* \"#utility.yul\":497:562   */\n      swap1\n      pop\n        /* \"#utility.yul\":442:568   */\n      swap2\n      swap1\n      pop\n      jump\t// out\n        /* \"#utility.yul\":574:670   */\n    tag_119:\n        /* \"#utility.yul\":611:618   */\n      0x00\n        /* \"#utility.yul\":640:664   */\n      tag_155\n        /* \"#utility.yul\":658:663   */\n      dup3\n        /* \"#utility.yul\":640:664   */\n      tag_118\n      jump\t// in\n    tag_155:\n        /* \"#utility.yul\":629:664   */\n      swap1\n      pop\n        /* \"#utility.yul\":574:670   */\n      swap2\n      swap1\n      pop\n      jump\t// out\n        /* \"#utility.yul\":676:794   */\n    tag_120:\n        /* \"#utility.yul\":763:787   */\n      tag_157\n        /* \"#utility.yul\":781:786   */\n      dup2\n        /* \"#utility.yul\":763:787   */\n      tag_119\n      jump\t// in\n    tag_157:\n        /* \"#utility.yul\":758:761   */\n      dup3\n        /* \"#utility.yul\":751:788   */\n      mstore\n        /* \"#utility.yul\":676:794   */\n      pop\n      pop\n      jump\t// out\n        /* \"#utility.yul\":800:898   */\n    tag_121:\n        /* \"#utility.yul\":851:857   */\n      0x00\n        /* \"#utility.yul\":885:890   */\n      dup2\n        /* \"#utility.yul\":879:891   */\n      mload\n        /* \"#utility.yul\":869:891   */\n      swap1\n      pop\n        /* \"#utility.yul\":800:898   */\n      swap2\n      swap1\n      pop\n      jump\t// out\n        /* \"#utility.yul\":904:1072   */\n    tag_122:\n        /* \"#utility.yul\":987:998   */\n      0x00\n        /* \"#utility.yul\":1021:1027   */\n      dup3\n        /* \"#utility.yul\":1016:1019   */\n      dup3\n        /* \"#utility.yul\":1009:1028   */\n      mstore\n        /* \"#utility.yul\":1061:1065   */\n      0x20\n        /* \"#utility.yul\":1056:1059   */\n      dup3\n        /* \"#utility.yul\":1052:1066   */\n      add\n        /* \"#utility.yul\":1037:1066   */\n      swap1\n      pop\n        /* \"#utility.yul\":904:1072   */\n      swap3\n      swap2\n      pop\n      pop\n      jump\t// out\n        /* \"#utility.yul\":1078:1217   */\n    tag_123:\n        /* \"#utility.yul\":1167:1173   */\n      dup3\n        /* \"#utility.yul\":1162:1165   */\n      dup2\n        /* \"#utility.yul\":1157:1160   */\n      dup4\n        /* \"#utility.yul\":1151:1174   */\n      mcopy\n        /* \"#utility.yul\":1208:1209   */\n      0x00\n        /* \"#utility.yul\":1199:1205   */\n      dup4\n        /* \"#utility.yul\":1194:1197   */\n      dup4\n        /* \"#utility.yul\":1190:1206   */\n      add\n        /* \"#utility.yul\":1183:1210   */\n      mstore\n        /* \"#utility.yul\":1078:1217   */\n      pop\n      pop\n      pop\n      jump\t// out\n        /* \"#utility.yul\":1223:1325   */\n    tag_124:\n        /* \"#utility.yul\":1264:1270   */\n      0x00\n        /* \"#utility.yul\":1315:1317   */\n      0x1f\n        /* \"#utility.yul\":1311:1318   */\n      not\n        /* \"#utility.yul\":1306:1308   */\n      0x1f\n        /* \"#utility.yul\":1299:1304   */\n      dup4\n        /* \"#utility.yul\":1295:1309   */\n      add\n        /* \"#utility.yul\":1291:1319   */\n      and\n        /* \"#utility.yul\":1281:1319   */\n      swap1\n      pop\n        /* \"#utility.yul\":1223:1325   */\n      swap2\n      swap1\n      pop\n      jump\t// out\n        /* \"#utility.yul\":1331:1704   */\n    tag_125:\n        /* \"#utility.yul\":1417:1420   */\n      0x00\n        /* \"#utility.yul\":1445:1483   */\n      tag_163\n        /* \"#utility.yul\":1477:1482   */\n      dup3\n        /* \"#utility.yul\":1445:1483   */\n      tag_121\n      jump\t// in\n    tag_163:\n        /* \"#utility.yul\":1499:1569   */\n      tag_164\n        /* \"#utility.yul\":1562:1568   */\n      dup2\n        /* \"#utility.yul\":1557:1560   */\n      dup6\n        /* \"#utility.yul\":1499:1569   */\n      tag_122\n      jump\t// in\n    tag_164:\n        /* \"#utility.yul\":1492:1569   */\n      swap4\n      pop\n        /* \"#utility.yul\":1578:1643   */\n      tag_165\n        /* \"#utility.yul\":1636:1642   */\n      dup2\n        /* \"#utility.yul\":1631:1634   */\n      dup6\n        /* \"#utility.yul\":1624:1628   */\n      0x20\n        /* \"#utility.yul\":1617:1622   */\n      dup7\n        /* \"#utility.yul\":1613:1629   */\n      add\n        /* \"#utility.yul\":1578:1643   */\n      tag_123\n      jump\t// in\n    tag_165:\n        /* \"#utility.yul\":1668:1697   */\n      tag_166\n        /* \"#utility.yul\":1690:1696   */\n      dup2\n        /* \"#utility.yul\":1668:1697   */\n      tag_124\n      jump\t// in\n    tag_166:\n        /* \"#utility.yul\":1663:1666   */\n      dup5\n        /* \"#utility.yul\":1659:1698   */\n      add\n        /* \"#utility.yul\":1652:1698   */\n      swap2\n      pop\n        /* \"#utility.yul\":1421:1704   */\n      pop\n        /* \"#utility.yul\":1331:1704   */\n      swap3\n      swap2\n      pop\n      pop\n      jump\t// out\n        /* \"#utility.yul\":1710:2239   */\n    tag_36:\n        /* \"#utility.yul\":1877:1881   */\n      0x00\n        /* \"#utility.yul\":1915:1917   */\n      0x60\n        /* \"#utility.yul\":1904:1913   */\n      dup3\n        /* \"#utility.yul\":1900:1918   */\n      add\n        /* \"#utility.yul\":1892:1918   */\n      swap1\n      pop\n        /* \"#utility.yul\":1928:1999   */\n      tag_168\n        /* \"#utility.yul\":1996:1997   */\n      0x00\n        /* \"#utility.yul\":1985:1994   */\n      dup4\n        /* \"#utility.yul\":1981:1998   */\n      add\n        /* \"#utility.yul\":1972:1978   */\n      dup7\n        /* \"#utility.yul\":1928:1999   */\n      tag_120\n      jump\t// in\n    tag_168:\n        /* \"#utility.yul\":2009:2081   */\n      tag_169\n        /* \"#utility.yul\":2077:2079   */\n      0x20\n        /* \"#utility.yul\":2066:2075   */\n      dup4\n        /* \"#utility.yul\":2062:2080   */\n      add\n        /* \"#utility.yul\":2053:2059   */\n      dup6\n        /* \"#utility.yul\":2009:2081   */\n      tag_117\n      jump\t// in\n    tag_169:\n        /* \"#utility.yul\":2128:2137   */\n      dup2\n        /* \"#utility.yul\":2122:2126   */\n      dup2\n        /* \"#utility.yul\":2118:2138   */\n      sub\n        /* \"#utility.yul\":2113:2115   */\n      0x40\n        /* \"#utility.yul\":2102:2111   */\n      dup4\n        /* \"#utility.yul\":2098:2116   */\n      add\n        /* \"#utility.yul\":2091:2139   */\n      mstore\n        /* \"#utility.yul\":2156:2232   */\n      tag_170\n        /* \"#utility.yul\":2227:2231   */\n      dup2\n        /* \"#utility.yul\":2218:2224   */\n      dup5\n        /* \"#utility.yul\":2156:2232   */\n      tag_125\n      jump\t// in\n    tag_170:\n        /* \"#utility.yul\":2148:2232   */\n      swap1\n      pop\n        /* \"#utility.yul\":1710:2239   */\n      swap5\n      swap4\n      pop\n      pop\n      pop\n      pop\n      jump\t// out\n        /* \"#utility.yul\":2245:2344   */\n    tag_126:\n        /* \"#utility.yul\":2297:2303   */\n      0x00\n        /* \"#utility.yul\":2331:2336   */\n      dup2\n        /* \"#utility.yul\":2325:2337   */\n      mload\n        /* \"#utility.yul\":2315:2337   */\n      swap1\n      pop\n        /* \"#utility.yul\":2245:2344   */\n      swap2\n      swap1\n      pop\n      jump\t// out\n        /* \"#utility.yul\":2350:2519   */\n    tag_127:\n        /* \"#utility.yul\":2434:2445   */\n      0x00\n        /* \"#utility.yul\":2468:2474   */\n      dup3\n        /* \"#utility.yul\":2463:2466   */\n      dup3\n        /* \"#utility.yul\":2456:2475   */\n      mstore\n        /* \"#utility.yul\":2508:2512   */\n      0x20\n        /* \"#utility.yul\":2503:2506   */\n      dup3\n        /* \"#utility.yul\":2499:2513   */\n      add\n        /* \"#utility.yul\":2484:2513   */\n      swap1\n      pop\n        /* \"#utility.yul\":2350:2519   */\n      swap3\n      swap2\n      pop\n      pop\n      jump\t// out\n        /* \"#utility.yul\":2525:2902   */\n    tag_128:\n        /* \"#utility.yul\":2613:2616   */\n      0x00\n        /* \"#utility.yul\":2641:2680   */\n      tag_174\n        /* \"#utility.yul\":2674:2679   */\n      dup3\n        /* \"#utility.yul\":2641:2680   */\n      tag_126\n      jump\t// in\n    tag_174:\n        /* \"#utility.yul\":2696:2767   */\n      tag_175\n        /* \"#utility.yul\":2760:2766   */\n      dup2\n        /* \"#utility.yul\":2755:2758   */\n      dup6\n        /* \"#utility.yul\":2696:2767   */\n      tag_127\n      jump\t// in\n    tag_175:\n        /* \"#utility.yul\":2689:2767   */\n      swap4\n      pop\n        /* \"#utility.yul\":2776:2841   */\n      tag_176\n        /* \"#utility.yul\":2834:2840   */\n      dup2\n        /* \"#utility.yul\":2829:2832   */\n      dup6\n        /* \"#utility.yul\":2822:2826   */\n      0x20\n        /* \"#utility.yul\":2815:2820   */\n      dup7\n        /* \"#utility.yul\":2811:2827   */\n      add\n        /* \"#utility.yul\":2776:2841   */\n      tag_123\n      jump\t// in\n    tag_176:\n        /* \"#utility.yul\":2866:2895   */\n      tag_177\n        /* \"#utility.yul\":2888:2894   */\n      dup2\n        /* \"#utility.yul\":2866:2895   */\n      tag_124\n      jump\t// in\n    tag_177:\n        /* \"#utility.yul\":2861:2864   */\n      dup5\n        /* \"#utility.yul\":2857:2896   */\n      add\n        /* \"#utility.yul\":2850:2896   */\n      swap2\n      pop\n        /* \"#utility.yul\":2617:2902   */\n      pop\n        /* \"#utility.yul\":2525:2902   */\n      swap3\n      swap2\n      pop\n      pop\n      jump\t// out\n        /* \"#utility.yul\":2908:3221   */\n    tag_51:\n        /* \"#utility.yul\":3021:3025   */\n      0x00\n        /* \"#utility.yul\":3059:3061   */\n      0x20\n        /* \"#utility.yul\":3048:3057   */\n      dup3\n        /* \"#utility.yul\":3044:3062   */\n      add\n        /* \"#utility.yul\":3036:3062   */\n      swap1\n      pop\n        /* \"#utility.yul\":3108:3117   */\n      dup2\n        /* \"#utility.yul\":3102:3106   */\n      dup2\n        /* \"#utility.yul\":3098:3118   */\n      sub\n        /* \"#utility.yul\":3094:3095   */\n      0x00\n        /* \"#utility.yul\":3083:3092   */\n      dup4\n        /* \"#utility.yul\":3079:3096   */\n      add\n        /* \"#utility.yul\":3072:3119   */\n      mstore\n        /* \"#utility.yul\":3136:3214   */\n      tag_179\n        /* \"#utility.yul\":3209:3213   */\n      dup2\n        /* \"#utility.yul\":3200:3206   */\n      dup5\n        /* \"#utility.yul\":3136:3214   */\n      tag_128\n      jump\t// in\n    tag_179:\n        /* \"#utility.yul\":3128:3214   */\n      swap1\n      pop\n        /* \"#utility.yul\":2908:3221   */\n      swap3\n      swap2\n      pop\n      pop\n      jump\t// out\n        /* \"#utility.yul\":3227:3407   */\n    tag_67:\n        /* \"#utility.yul\":3275:3352   */\n      0x4e487b7100000000000000000000000000000000000000000000000000000000\n        /* \"#utility.yul\":3272:3273   */\n      0x00\n        /* \"#utility.yul\":3265:3353   */\n      mstore\n        /* \"#utility.yul\":3372:3376   */\n      0x01\n        /* \"#utility.yul\":3369:3370   */\n      0x04\n        /* \"#utility.yul\":3362:3377   */\n      mstore\n        /* \"#utility.yul\":3396:3400   */\n      0x24\n        /* \"#utility.yul\":3393:3394   */\n      0x00\n        /* \"#utility.yul\":3386:3401   */\n      revert\n        /* \"#utility.yul\":3413:3593   */\n    tag_129:\n        /* \"#utility.yul\":3461:3538   */\n      0x4e487b7100000000000000000000000000000000000000000000000000000000\n        /* \"#utility.yul\":3458:3459   */\n      0x00\n        /* \"#utility.yul\":3451:3539   */\n      mstore\n        /* \"#utility.yul\":3558:3562   */\n      0x41\n        /* \"#utility.yul\":3555:3556   */\n      0x04\n        /* \"#utility.yul\":3548:3563   */\n      mstore\n        /* \"#utility.yul\":3582:3586   */\n      0x24\n        /* \"#utility.yul\":3579:3580   */\n      0x00\n        /* \"#utility.yul\":3572:3587   */\n      revert\n        /* \"#utility.yul\":3599:3779   */\n    tag_130:\n        /* \"#utility.yul\":3647:3724   */\n      0x4e487b7100000000000000000000000000000000000000000000000000000000\n        /* \"#utility.yul\":3644:3645   */\n      0x00\n        /* \"#utility.yul\":3637:3725   */\n      mstore\n        /* \"#utility.yul\":3744:3748   */\n      0x22\n        /* \"#utility.yul\":3741:3742   */\n      0x04\n        /* \"#utility.yul\":3734:3749   */\n      mstore\n        /* \"#utility.yul\":3768:3772   */\n      0x24\n        /* \"#utility.yul\":3765:3766   */\n      0x00\n        /* \"#utility.yul\":3758:3773   */\n      revert\n        /* \"#utility.yul\":3785:4105   */\n    tag_93:\n        /* \"#utility.yul\":3829:3835   */\n      0x00\n        /* \"#utility.yul\":3866:3867   */\n      0x02\n        /* \"#utility.yul\":3860:3864   */\n      dup3\n        /* \"#utility.yul\":3856:3868   */\n      div\n        /* \"#utility.yul\":3846:3868   */\n      swap1\n      pop\n        /* \"#utility.yul\":3913:3914   */\n      0x01\n        /* \"#utility.yul\":3907:3911   */\n      dup3\n        /* \"#utility.yul\":3903:3915   */\n      and\n        /* \"#utility.yul\":3934:3952   */\n      dup1\n        /* \"#utility.yul\":3924:4005   */\n      tag_184\n      jumpi\n        /* \"#utility.yul\":3990:3994   */\n      0x7f\n        /* \"#utility.yul\":3982:3988   */\n      dup3\n        /* \"#utility.yul\":3978:3995   */\n      and\n        /* \"#utility.yul\":3968:3995   */\n      swap2\n      pop\n        /* \"#utility.yul\":3924:4005   */\n    tag_184:\n        /* \"#utility.yul\":4052:4054   */\n      0x20\n        /* \"#utility.yul\":4044:4050   */\n      dup3\n        /* \"#utility.yul\":4041:4055   */\n      lt\n        /* \"#utility.yul\":4021:4039   */\n      dup2\n        /* \"#utility.yul\":4018:4056   */\n      sub\n        /* \"#utility.yul\":4015:4099   */\n      tag_185\n      jumpi\n        /* \"#utility.yul\":4071:4089   */\n      tag_186\n      tag_130\n      jump\t// in\n    tag_186:\n        /* \"#utility.yul\":4015:4099   */\n    tag_185:\n        /* \"#utility.yul\":3836:4105   */\n      pop\n        /* \"#utility.yul\":3785:4105   */\n      swap2\n      swap1\n      pop\n      jump\t// out\n        /* \"#utility.yul\":4111:4252   */\n    tag_131:\n        /* \"#utility.yul\":4160:4164   */\n      0x00\n        /* \"#utility.yul\":4183:4186   */\n      dup2\n        /* \"#utility.yul\":4175:4186   */\n      swap1\n      pop\n        /* \"#utility.yul\":4206:4209   */\n      dup2\n        /* \"#utility.yul\":4203:4204   */\n      0x00\n        /* \"#utility.yul\":4196:4210   */\n      mstore\n        /* \"#utility.yul\":4240:4244   */\n      0x20\n        /* \"#utility.yul\":4237:4238   */\n      0x00\n        /* \"#utility.yul\":4227:4245   */\n      keccak256\n        /* \"#utility.yul\":4219:4245   */\n      swap1\n      pop\n        /* \"#utility.yul\":4111:4252   */\n      swap2\n      swap1\n      pop\n      jump\t// out\n        /* \"#utility.yul\":4258:4351   */\n    tag_132:\n        /* \"#utility.yul\":4295:4301   */\n      0x00\n        /* \"#utility.yul\":4342:4344   */\n      0x20\n        /* \"#utility.yul\":4337:4339   */\n      0x1f\n        /* \"#utility.yul\":4330:4335   */\n      dup4\n        /* \"#utility.yul\":4326:4340   */\n      add\n        /* \"#utility.yul\":4322:4345   */\n      div\n        /* \"#utility.yul\":4312:4345   */\n      swap1\n      pop\n        /* \"#utility.yul\":4258:4351   */\n      swap2\n      swap1\n      pop\n      jump\t// out\n        /* \"#utility.yul\":4357:4464   */\n    tag_133:\n        /* \"#utility.yul\":4401:4409   */\n      0x00\n        /* \"#utility.yul\":4451:4456   */\n      dup3\n        /* \"#utility.yul\":4445:4449   */\n      dup3\n        /* \"#utility.yul\":4441:4457   */\n      shl\n        /* \"#utility.yul\":4420:4457   */\n      swap1\n      pop\n        /* \"#utility.yul\":4357:4464   */\n      swap3\n      swap2\n      pop\n      pop\n      jump\t// out\n        /* \"#utility.yul\":4470:4863   */\n    tag_134:\n        /* \"#utility.yul\":4539:4545   */\n      0x00\n        /* \"#utility.yul\":4589:4590   */\n      0x08\n        /* \"#utility.yul\":4577:4587   */\n      dup4\n        /* \"#utility.yul\":4573:4591   */\n      mul\n        /* \"#utility.yul\":4612:4709   */\n      tag_191\n        /* \"#utility.yul\":4642:4708   */\n      0xffffffffffffffffffffffffffffffffffffffffffffffffffffffffffffffff\n        /* \"#utility.yul\":4631:4640   */\n      dup3\n        /* \"#utility.yul\":4612:4709   */\n      tag_133\n      jump\t// in\n    tag_191:\n        /* \"#utility.yul\":4730:4769   */\n      tag_192\n        /* \"#utility.yul\":4760:4768   */\n      dup7\n        /* \"#utility.yul\":4749:4758   */\n      dup4\n        /* \"#utility.yul\":4730:4769   */\n      tag_133\n      jump\t// in\n    tag_192:\n        /* \"#utility.yul\":4718:4769   */\n      swap6\n      pop\n        /* \"#utility.yul\":4802:4806   */\n      dup1\n        /* \"#utility.yul\":4798:4807   */\n      not\n        /* \"#utility.yul\":4791:4796   */\n      dup5\n        /* \"#utility.yul\":4787:4808   */\n      and\n        /* \"#utility.yul\":4778:4808   */\n      swap4\n      pop\n        /* \"#utility.yul\":4851:4855   */\n      dup1\n        /* \"#utility.yul\":4841:4849   */\n      dup7\n        /* \"#utility.yul\":4837:4856   */\n      and\n        /* \"#utility.yul\":4830:4835   */\n      dup5\n        /* \"#utility.yul\":4827:4857   */\n      or\n        /* \"#utility.yul\":4817:4857   */\n      swap3\n      pop\n        /* \"#utility.yul\":4546:4863   */\n      pop\n      pop\n        /* \"#utility.yul\":4470:4863   */\n      swap4\n      swap3\n      pop\n      pop\n      pop\n      jump\t// out\n        /* \"#utility.yul\":4869:4929   */\n    tag_135:\n        /* \"#utility.yul\":4897:4900   */\n      0x00\n        /* \"#utility.yul\":4918:4923   */\n      dup2\n        /* \"#utility.yul\":4911:4923   */\n      swap1\n      pop\n        /* \"#utility.yul\":4869:4929   */\n      swap2\n      swap1\n      pop\n      jump\t// out\n        /* \"#utility.yul\":4935:5077   */\n    tag_136:\n        /* \"#utility.yul\":4985:4994   */\n      0x00\n        /* \"#utility.yul\":5018:5071   */\n      tag_195\n        /* \"#utility.yul\":5036:5070   */\n      tag_196\n        /* \"#utility.yul\":5045:5069   */\n      tag_197\n        /* \"#utility.yul\":5063:5068   */\n      dup5\n        /* \"#utility.yul\":5045:5069   */\n      tag_116\n      jump\t// in\n    tag_197:\n        /* \"#utility.yul\":5036:5070   */\n      tag_135\n      jump\t// in\n    tag_196:\n        /* \"#utility.yul\":5018:5071   */\n      tag_116\n      jump\t// in\n    tag_195:\n        /* \"#utility.yul\":5005:5071   */\n      swap1\n      pop\n        /* \"#utility.yul\":4935:5077   */\n      swap2\n      swap1\n      pop\n      jump\t// out\n        /* \"#utility.yul\":5083:5158   */\n    tag_137:\n        /* \"#utility.yul\":5126:5129   */\n      0x00\n        /* \"#utility.yul\":5147:5152   */\n      dup2\n        /* \"#utility.yul\":5140:5152   */\n      swap1\n      pop\n        /* \"#utility.yul\":5083:5158   */\n      swap2\n      swap1\n      pop\n      jump\t// out\n        /* \"#utility.yul\":5164:5433   */\n    tag_138:\n        /* \"#utility.yul\":5274:5313   */\n      tag_200\n        /* \"#utility.yul\":5305:5312   */\n      dup4\n        /* \"#utility.yul\":5274:5313   */\n      tag_136\n      jump\t// in\n    tag_200:\n        /* \"#utility.yul\":5335:5426   */\n      tag_201\n        /* \"#utility.yul\":5384:5425   */\n      tag_202\n        /* \"#utility.yul\":5408:5424   */\n      dup3\n        /* \"#utility.yul\":5384:5425   */\n      tag_137\n      jump\t// in\n    tag_202:\n        /* \"#utility.yul\":5376:5382   */\n      dup5\n        /* \"#utility.yul\":5369:5373   */\n      dup5\n        /* \"#utility.yul\":5363:5374   */\n      sload\n        /* \"#utility.yul\":5335:5426   */\n      tag_134\n      jump\t// in\n    tag_201:\n        /* \"#utility.yul\":5329:5333   */\n      dup3\n        /* \"#utility.yul\":5322:5427   */\n      sstore\n        /* \"#utility.yul\":5240:5433   */\n      pop\n        /* \"#utility.yul\":5164:5433   */\n      pop\n      pop\n      pop\n      jump\t// out\n        /* \"#utility.yul\":5439:5512   */\n    tag_139:\n        /* \"#utility.yul\":5484:5487   */\n      0x00\n        /* \"#utility.yul\":5505:5506   */\n      0x00\n        /* \"#utility.yul\":5498:5506   */\n      swap1\n      pop\n        /* \"#utility.yul\":5439:5512   */\n      swap1\n      jump\t// out\n        /* \"#utility.yul\":5518:5707   */\n    tag_140:\n        /* \"#utility.yul\":5595:5627   */\n      tag_205\n      tag_139\n      jump\t// in\n    tag_205:\n        /* \"#utility.yul\":5636:5701   */\n      tag_206\n        /* \"#utility.yul\":5694:5700   */\n      dup2\n        /* \"#utility.yul\":5686:5692   */\n      dup5\n        /* \"#utility.yul\":5680:5684   */\n      dup5\n        /* \"#utility.yul\":5636:5701   */\n      tag_138\n      jump\t// in\n    tag_206:\n        /* \"#utility.yul\":5571:5707   */\n      pop\n        /* \"#utility.yul\":5518:5707   */\n      pop\n      pop\n      jump\t// out\n        /* \"#utility.yul\":5713:5899   */\n    tag_141:\n        /* \"#utility.yul\":5773:5893   */\n    tag_208:\n        /* \"#utility.yul\":5790:5793   */\n      dup2\n        /* \"#utility.yul\":5783:5788   */\n      dup2\n        /* \"#utility.yul\":5780:5794   */\n      lt\n        /* \"#utility.yul\":5773:5893   */\n      iszero\n      tag_210\n      jumpi\n        /* \"#utility.yul\":5844:5883   */\n      tag_211\n        /* \"#utility.yul\":5881:5882   */\n      0x00\n        /* \"#utility.yul\":5874:5879   */\n      dup3\n        /* \"#utility.yul\":5844:5883   */\n      tag_140\n      jump\t// in\n    tag_211:\n        /* \"#utility.yul\":5817:5818   */\n      0x01\n        /* \"#utility.yul\":5810:5815   */\n      dup2\n        /* \"#utility.yul\":5806:5819   */\n      add\n        /* \"#utility.yul\":5797:5819   */\n      swap1\n      pop\n        /* \"#utility.yul\":5773:5893   */\n      jump(tag_208)\n    tag_210:\n        /* \"#utility.yul\":5713:5899   */\n      pop\n      pop\n      jump\t// out\n        /* \"#utility.yul\":5905:6448   */\n    tag_142:\n        /* \"#utility.yul\":6006:6008   */\n      0x1f\n        /* \"#utility.yul\":6001:6004   */\n      dup3\n        /* \"#utility.yul\":5998:6009   */\n      gt\n        /* \"#utility.yul\":5995:6441   */\n      iszero\n      tag_213\n      jumpi\n        /* \"#utility.yul\":6040:6078   */\n      tag_214\n        /* \"#utility.yul\":6072:6077   */\n      dup2\n        /* \"#utility.yul\":6040:6078   */\n      tag_131\n      jump\t// in\n    tag_214:\n        /* \"#utility.yul\":6124:6153   */\n      tag_215\n        /* \"#utility.yul\":6142:6152   */\n      dup5\n        /* \"#utility.yul\":6124:6153   */\n      tag_132\n      jump\t// in\n    tag_215:\n        /* \"#utility.yul\":6114:6122   */\n      dup2\n        /* \"#utility.yul\":6110:6154   */\n      add\n        /* \"#utility.yul\":6307:6309   */\n      0x20\n        /* \"#utility.yul\":6295:6305   */\n      dup6\n        /* \"#utility.yul\":6292:6310   */\n      lt\n        /* \"#utility.yul\":6289:6338   */\n      iszero\n      tag_216\n      jumpi\n        /* \"#utility.yul\":6328:6336   */\n      dup2\n        /* \"#utility.yul\":6313:6336   */\n      swap1\n      pop\n        /* \"#utility.yul\":6289:6338   */\n    tag_216:\n        /* \"#utility.yul\":6351:6431   */\n      tag_217\n        /* \"#utility.yul\":6407:6429   */\n      tag_218\n        /* \"#utility.yul\":6425:6428   */\n      dup6\n        /* \"#utility.yul\":6407:6429   */\n      tag_132\n      jump\t// in\n    tag_218:\n        /* \"#utility.yul\":6397:6405   */\n      dup4\n        /* \"#utility.yul\":6393:6430   */\n      add\n        /* \"#utility.yul\":6380:6391   */\n      dup3\n        /* \"#utility.yul\":6351:6431   */\n      tag_141\n      jump\t// in\n    tag_217:\n        /* \"#utility.yul\":6010:6441   */\n      pop\n      pop\n        /* \"#utility.yul\":5995:6441   */\n    tag_213:\n        /* \"#utility.yul\":5905:6448   */\n      pop\n      pop\n      pop\n      jump\t// out\n        /* \"#utility.yul\":6454:6571   */\n    tag_143:\n        /* \"#utility.yul\":6508:6516   */\n      0x00\n        /* \"#utility.yul\":6558:6563   */\n      dup3\n        /* \"#utility.yul\":6552:6556   */\n      dup3\n        /* \"#utility.yul\":6548:6564   */\n      shr\n        /* \"#utility.yul\":6527:6564   */\n      swap1\n      pop\n        /* \"#utility.yul\":6454:6571   */\n      swap3\n      swap2\n      pop\n      pop\n      jump\t// out\n        /* \"#utility.yul\":6577:6746   */\n    tag_144:\n        /* \"#utility.yul\":6621:6627   */\n      0x00\n        /* \"#utility.yul\":6654:6705   */\n      tag_221\n        /* \"#utility.yul\":6702:6703   */\n      0x00\n        /* \"#utility.yul\":6698:6704   */\n      not\n        /* \"#utility.yul\":6690:6695   */\n      dup5\n        /* \"#utility.yul\":6687:6688   */\n      0x08\n        /* \"#utility.yul\":6683:6696   */\n      mul\n        /* \"#utility.yul\":6654:6705   */\n      tag_143\n      jump\t// in\n    tag_221:\n        /* \"#utility.yul\":6650:6706   */\n      not\n        /* \"#utility.yul\":6735:6739   */\n      dup1\n        /* \"#utility.yul\":6729:6733   */\n      dup4\n        /* \"#utility.yul\":6725:6740   */\n      and\n        /* \"#utility.yul\":6715:6740   */\n      swap2\n      pop\n        /* \"#utility.yul\":6628:6746   */\n      pop\n        /* \"#utility.yul\":6577:6746   */\n      swap3\n      swap2\n      pop\n      pop\n      jump\t// out\n        /* \"#utility.yul\":6751:7046   */\n    tag_145:\n        /* \"#utility.yul\":6827:6831   */\n      0x00\n        /* \"#utility.yul\":6973:7002   */\n      tag_223\n        /* \"#utility.yul\":6998:7001   */\n      dup4\n        /* \"#utility.yul\":6992:6996   */\n      dup4\n        /* \"#utility.yul\":6973:7002   */\n      tag_144\n      jump\t// in\n    tag_223:\n        /* \"#utility.yul\":6965:7002   */\n      swap2\n      pop\n        /* \"#utility.yul\":7035:7038   */\n      dup3\n        /* \"#utility.yul\":7032:7033   */\n      0x02\n        /* \"#utility.yul\":7028:7039   */\n      mul\n        /* \"#utility.yul\":7022:7026   */\n      dup3\n        /* \"#utility.yul\":7019:7040   */\n      or\n        /* \"#utility.yul\":7011:7040   */\n      swap1\n      pop\n        /* \"#utility.yul\":6751:7046   */\n      swap3\n      swap2\n      pop\n      pop\n      jump\t// out\n        /* \"#utility.yul\":7051:8446   */\n    tag_91:\n        /* \"#utility.yul\":7168:7205   */\n      tag_225\n        /* \"#utility.yul\":7201:7204   */\n      dup3\n        /* \"#utility.yul\":7168:7205   */\n      tag_126\n      jump\t// in\n    tag_225:\n        /* \"#utility.yul\":7270:7288   */\n      0xffffffffffffffff\n        /* \"#utility.yul\":7262:7268   */\n      dup2\n        /* \"#utility.yul\":7259:7289   */\n      gt\n        /* \"#utility.yul\":7256:7312   */\n      iszero\n      tag_226\n      jumpi\n        /* \"#utility.yul\":7292:7310   */\n      tag_227\n      tag_129\n      jump\t// in\n    tag_227:\n        /* \"#utility.yul\":7256:7312   */\n    tag_226:\n        /* \"#utility.yul\":7336:7374   */\n      tag_228\n        /* \"#utility.yul\":7368:7372   */\n      dup3\n        /* \"#utility.yul\":7362:7373   */\n      sload\n        /* \"#utility.yul\":7336:7374   */\n      tag_93\n      jump\t// in\n    tag_228:\n        /* \"#utility.yul\":7421:7488   */\n      tag_229\n        /* \"#utility.yul\":7481:7487   */\n      dup3\n        /* \"#utility.yul\":7473:7479   */\n      dup3\n        /* \"#utility.yul\":7467:7471   */\n      dup6\n        /* \"#utility.yul\":7421:7488   */\n      tag_142\n      jump\t// in\n    tag_229:\n        /* \"#utility.yul\":7515:7516   */\n      0x00\n        /* \"#utility.yul\":7539:7543   */\n      0x20\n        /* \"#utility.yul\":7526:7543   */\n      swap1\n      pop\n        /* \"#utility.yul\":7571:7573   */\n      0x1f\n        /* \"#utility.yul\":7563:7569   */\n      dup4\n        /* \"#utility.yul\":7560:7574   */\n      gt\n        /* \"#utility.yul\":7588:7589   */\n      0x01\n        /* \"#utility.yul\":7583:8201   */\n      dup2\n      eq\n      tag_231\n      jumpi\n        /* \"#utility.yul\":8245:8246   */\n      0x00\n        /* \"#utility.yul\":8262:8268   */\n      dup5\n        /* \"#utility.yul\":8259:8336   */\n      iszero\n      tag_232\n      jumpi\n        /* \"#utility.yul\":8311:8320   */\n      dup3\n        /* \"#utility.yul\":8306:8309   */\n      dup8\n        /* \"#utility.yul\":8302:8321   */\n      add\n        /* \"#utility.yul\":8296:8322   */\n      mload\n        /* \"#utility.yul\":8287:8322   */\n      swap1\n      pop\n        /* \"#utility.yul\":8259:8336   */\n    tag_232:\n        /* \"#utility.yul\":8362:8429   */\n      tag_233\n        /* \"#utility.yul\":8422:8428   */\n      dup6\n        /* \"#utility.yul\":8415:8420   */\n      dup3\n        /* \"#utility.yul\":8362:8429   */\n      tag_145\n      jump\t// in\n    tag_233:\n        /* \"#utility.yul\":8356:8360   */\n      dup7\n        /* \"#utility.yul\":8349:8430   */\n      sstore\n        /* \"#utility.yul\":8218:8440   */\n      pop\n        /* \"#utility.yul\":7553:8440   */\n      jump(tag_230)\n        /* \"#utility.yul\":7583:8201   */\n    tag_231:\n        /* \"#utility.yul\":7635:7639   */\n      0x1f\n        /* \"#utility.yul\":7631:7640   */\n      not\n        /* \"#utility.yul\":7623:7629   */\n      dup5\n        /* \"#utility.yul\":7619:7641   */\n      and\n        /* \"#utility.yul\":7669:7706   */\n      tag_234\n        /* \"#utility.yul\":7701:7705   */\n      dup7\n        /* \"#utility.yul\":7669:7706   */\n      tag_131\n      jump\t// in\n    tag_234:\n        /* \"#utility.yul\":7728:7729   */\n      0x00\n        /* \"#utility.yul\":7742:7950   */\n    tag_235:\n        /* \"#utility.yul\":7756:7763   */\n      dup3\n        /* \"#utility.yul\":7753:7754   */\n      dup2\n        /* \"#utility.yul\":7750:7764   */\n      lt\n        /* \"#utility.yul\":7742:7950   */\n      iszero\n      tag_237\n      jumpi\n        /* \"#utility.yul\":7835:7844   */\n      dup5\n        /* \"#utility.yul\":7830:7833   */\n      dup10\n        /* \"#utility.yul\":7826:7845   */\n      add\n        /* \"#utility.yul\":7820:7846   */\n      mload\n        /* \"#utility.yul\":7812:7818   */\n      dup3\n        /* \"#utility.yul\":7805:7847   */\n      sstore\n        /* \"#utility.yul\":7886:7887   */\n      0x01\n        /* \"#utility.yul\":7878:7884   */\n      dup3\n        /* \"#utility.yul\":7874:7888   */\n      add\n        /* \"#utility.yul\":7864:7888   */\n      swap2\n      pop\n        /* \"#utility.yul\":7933:7935   */\n      0x20\n        /* \"#utility.yul\":7922:7931   */\n      dup6\n        /* \"#utility.yul\":7918:7936   */\n      add\n        /* \"#utility.yul\":7905:7936   */\n      swap5\n      pop\n        /* \"#utility.yul\":7779:7783   */\n      0x20\n        /* \"#utility.yul\":7776:7777   */\n      dup2\n        /* \"#utility.yul\":7772:7784   */\n      add\n        /* \"#utility.yul\":7767:7784   */\n      swap1\n      pop\n        /* \"#utility.yul\":7742:7950   */\n      jump(tag_235)\n    tag_237:\n        /* \"#utility.yul\":7978:7984   */\n      dup7\n        /* \"#utility.yul\":7969:7976   */\n      dup4\n        /* \"#utility.yul\":7966:7985   */\n      lt\n        /* \"#utility.yul\":7963:8142   */\n      iszero\n      tag_238\n      jumpi\n        /* \"#utility.yul\":8036:8045   */\n      dup5\n        /* \"#utility.yul\":8031:8034   */\n      dup10\n        /* \"#utility.yul\":8027:8046   */\n      add\n        /* \"#utility.yul\":8021:8047   */\n      mload\n        /* \"#utility.yul\":8079:8127   */\n      tag_239\n        /* \"#utility.yul\":8121:8125   */\n      0x1f\n        /* \"#utility.yul\":8113:8119   */\n      dup10\n        /* \"#utility.yul\":8109:8126   */\n      and\n        /* \"#utility.yul\":8098:8107   */\n      dup3\n        /* \"#utility.yul\":8079:8127   */\n      tag_144\n      jump\t// in\n    tag_239:\n        /* \"#utility.yul\":8071:8077   */\n      dup4\n        /* \"#utility.yul\":8064:8128   */\n      sstore\n        /* \"#utility.yul\":7986:8142   */\n      pop\n        /* \"#utility.yul\":7963:8142   */\n    tag_238:\n        /* \"#utility.yul\":8188:8189   */\n      0x01\n        /* \"#utility.yul\":8184:8185   */\n      0x02\n        /* \"#utility.yul\":8176:8182   */\n      dup9\n        /* \"#utility.yul\":8172:8186   */\n      mul\n        /* \"#utility.yul\":8168:8190   */\n      add\n        /* \"#utility.yul\":8162:8166   */\n      dup9\n        /* \"#utility.yul\":8155:8191   */\n      sstore\n        /* \"#utility.yul\":7590:8201   */\n      pop\n      pop\n      pop\n        /* \"#utility.yul\":7553:8440   */\n    tag_230:\n      pop\n        /* \"#utility.yul\":7143:8446   */\n      pop\n      pop\n      pop\n        /* \"#utility.yul\":7051:8446   */\n      pop\n      pop\n      jump\t// out\n        /* \"#utility.yul\":8452:8632   */\n    tag_146:\n        /* \"#utility.yul\":8500:8577   */\n      0x4e487b7100000000000000000000000000000000000000000000000000000000\n        /* \"#utility.yul\":8497:8498   */\n      0x00\n        /* \"#utility.yul\":8490:8578   */\n      mstore\n        /* \"#utility.yul\":8597:8601   */\n      0x11\n        /* \"#utility.yul\":8594:8595   */\n      0x04\n        /* \"#utility.yul\":8587:8602   */\n      mstore\n        /* \"#utility.yul\":8621:8625   */\n      0x24\n        /* \"#utility.yul\":8618:8619   */\n      0x00\n        /* \"#utility.yul\":8611:8626   */\n      revert\n        /* \"#utility.yul\":8638:8829   */\n    tag_115:\n        /* \"#utility.yul\":8678:8681   */\n      0x00\n        /* \"#utility.yul\":8697:8717   */\n      tag_242\n        /* \"#utility.yul\":8715:8716   */\n      dup3\n        /* \"#utility.yul\":8697:8717   */\n      tag_116\n      jump\t// in\n    tag_242:\n        /* \"#utility.yul\":8692:8717   */\n      swap2\n      pop\n        /* \"#utility.yul\":8731:8751   */\n      tag_243\n        /* \"#utility.yul\":8749:8750   */\n      dup4\n        /* \"#utility.yul\":8731:8751   */\n      tag_116\n      jump\t// in\n    tag_243:\n        /* \"#utility.yul\":8726:8751   */\n      swap3\n      pop\n        /* \"#utility.yul\":8774:8775   */\n      dup3\n        /* \"#utility.yul\":8771:8772   */\n      dup3\n        /* \"#utility.yul\":8767:8776   */\n      add\n        /* \"#utility.yul\":8760:8776   */\n      swap1\n      pop\n        /* \"#utility.yul\":8795:8798   */\n      dup1\n        /* \"#utility.yul\":8792:8793   */\n      dup3\n        /* \"#utility.yul\":8789:8799   */\n      gt\n        /* \"#utility.yul\":8786:8822   */\n      iszero\n      tag_244\n      jumpi\n        /* \"#utility.yul\":8802:8820   */\n      tag_245\n      tag_146\n      jump\t// in\n    tag_245:\n        /* \"#utility.yul\":8786:8822   */\n    tag_244:\n        /* \"#utility.yul\":8638:8829   */\n      swap3\n      swap2\n      pop\n      pop\n      jump\t// out\n\n    auxdata: 0xa264697066735822122060d6c58758f08f791e727cd49e1ccb27cd25f6696185529e4651d31a7977d78364736f6c634300081e0033\n}\n",
				"bytecode": {
					"linkReferences": {},
					"object": "608060405260015f553480156012575f5ffd5b50610aa8806100205f395ff3fe608060405234801561000f575f5ffd5b50600436106100e8575f3560e01c8063be44f8641161008a578063cb9f122011610064578063cb9f122014610206578063d3c7047714610224578063f1e6d19814610242578063febb0f7e14610260576100e8565b8063be44f864146101c0578063c2985578146101de578063c5d7802e146101e8576100e8565b80632aca45f1116100c65780632aca45f114610146578063613ce41014610164578063a0d0d59e14610184578063a56dfe4a146101a2576100e8565b806309879682146100ec5780630c55699c1461010a5780631217634914610128575b5f5ffd5b6100f461027e565b6040516101019190610576565b60405180910390f35b610112610297565b60405161011f9190610576565b60405180910390f35b61013061029c565b60405161013d9190610576565b60405180910390f35b61014e6102c6565b60405161015b9190610576565b60405180910390f35b61016c6102f6565b60405161017b9392919061063e565b60405180910390f35b61018c61035a565b6040516101999190610576565b60405180910390f35b6101aa61038a565b6040516101b79190610576565b60405180910390f35b6101c8610390565b6040516101d59190610576565b60405180910390f35b6101e66103bd565b005b6101f0610413565b6040516101fd91906106cc565b60405180910390f35b61020e61049f565b60405161021b9190610576565b60405180910390f35b61022c6104de565b6040516102399190610576565b60405180910390f35b61024a610511565b6040516102579190610576565b60405180910390f35b61026861053b565b6040516102759190610576565b60405180910390f35b5f600180146102905761028f6106ec565b5b6001905090565b5f5481565b5f600180146102ae576102ad6106ec565b5b600180146102bf576102be6106ec565b5b6001905090565b5f62093a8080146102da576102d96106ec565b5b62093a8080146102ed576102ec6106ec565b5b62093a80905090565b5f5f60605f3390505f4390505f5f368080601f0160208091040260200160405190810160405280939291908181526020018383808284375f81840152601f19601f820116905080830192505050505050509050828282955095509550505050909192565b5f62015180801461036e5761036d6106ec565b5b620151808014610381576103806106ec565b5b62015180905090565b60015481565b5f610e1080146103a3576103a26106ec565b5b610e1080146103b5576103b46106ec565b5b610e10905090565b60035f8190555060026001819055506040518060400160405280600481526020017f3078414100000000000000000000000000000000000000000000000000000000815250600290816104109190610943565b50565b6002805461042090610773565b80601f016020809104026020016040519081016040528092919081815260200182805461044c90610773565b80156104975780601f1061046e57610100808354040283529160200191610497565b820191905f5260205f20905b81548152906001019060200180831161047a57829003601f168201915b505050505081565b5f670de0b6b3a764000080146104b8576104b76106ec565b5b670de0b6b3a764000080146104d0576104cf6106ec565b5b670de0b6b3a7640000905090565b5f633b9aca0080146104f3576104f26106ec565b5b633b9aca008014610507576105066106ec565b5b633b9aca00905090565b5f603c8014610523576105226106ec565b5b603c8014610534576105336106ec565b5b603c905090565b5f5f600190505f600290505f81836105539190610a3f565b905080935050505090565b5f819050919050565b6105708161055e565b82525050565b5f6020820190506105895f830184610567565b92915050565b5f73ffffffffffffffffffffffffffffffffffffffff82169050919050565b5f6105b88261058f565b9050919050565b6105c8816105ae565b82525050565b5f81519050919050565b5f82825260208201905092915050565b8281835e5f83830152505050565b5f601f19601f8301169050919050565b5f610610826105ce565b61061a81856105d8565b935061062a8185602086016105e8565b610633816105f6565b840191505092915050565b5f6060820190506106515f8301866105bf565b61065e6020830185610567565b81810360408301526106708184610606565b9050949350505050565b5f81519050919050565b5f82825260208201905092915050565b5f61069e8261067a565b6106a88185610684565b93506106b88185602086016105e8565b6106c1816105f6565b840191505092915050565b5f6020820190508181035f8301526106e48184610694565b905092915050565b7f4e487b71000000000000000000000000000000000000000000000000000000005f52600160045260245ffd5b7f4e487b71000000000000000000000000000000000000000000000000000000005f52604160045260245ffd5b7f4e487b71000000000000000000000000000000000000000000000000000000005f52602260045260245ffd5b5f600282049050600182168061078a57607f821691505b60208210810361079d5761079c610746565b5b50919050565b5f819050815f5260205f209050919050565b5f6020601f8301049050919050565b5f82821b905092915050565b5f600883026107ff7fffffffffffffffffffffffffffffffffffffffffffffffffffffffffffffffff826107c4565b61080986836107c4565b95508019841693508086168417925050509392505050565b5f819050919050565b5f61084461083f61083a8461055e565b610821565b61055e565b9050919050565b5f819050919050565b61085d8361082a565b6108716108698261084b565b8484546107d0565b825550505050565b5f5f905090565b610888610879565b610893818484610854565b505050565b5b818110156108b6576108ab5f82610880565b600181019050610899565b5050565b601f8211156108fb576108cc816107a3565b6108d5846107b5565b810160208510156108e4578190505b6108f86108f0856107b5565b830182610898565b50505b505050565b5f82821c905092915050565b5f61091b5f1984600802610900565b1980831691505092915050565b5f610933838361090c565b9150826002028217905092915050565b61094c8261067a565b67ffffffffffffffff81111561096557610964610719565b5b61096f8254610773565b61097a8282856108ba565b5f60209050601f8311600181146109ab575f8415610999578287015190505b6109a38582610928565b865550610a0a565b601f1984166109b9866107a3565b5f5b828110156109e0578489015182556001820191506020850194506020810190506109bb565b868310156109fd57848901516109f9601f89168261090c565b8355505b6001600288020188555050505b505050505050565b7f4e487b71000000000000000000000000000000000000000000000000000000005f52601160045260245ffd5b5f610a498261055e565b9150610a548361055e565b9250828201905080821115610a6c57610a6b610a12565b5b9291505056fea264697066735822122060d6c58758f08f791e727cd49e1ccb27cd25f6696185529e4651d31a7977d78364736f6c634300081e0033",
					"opcodes": "PUSH1 0x80 PUSH1 0x40 MSTORE PUSH1 0x1 PUSH0 SSTORE CALLVALUE DUP1 ISZERO PUSH1 0x12 JUMPI PUSH0 PUSH0 REVERT JUMPDEST POP PUSH2 0xAA8 DUP1 PUSH2 0x20 PUSH0 CODECOPY PUSH0 RETURN INVALID PUSH1 0x80 PUSH1 0x40 MSTORE CALLVALUE DUP1 ISZERO PUSH2 0xF JUMPI PUSH0 PUSH0 REVERT JUMPDEST POP PUSH1 0x4 CALLDATASIZE LT PUSH2 0xE8 JUMPI PUSH0 CALLDATALOAD PUSH1 0xE0 SHR DUP1 PUSH4 0xBE44F864 GT PUSH2 0x8A JUMPI DUP1 PUSH4 0xCB9F1220 GT PUSH2 0x64 JUMPI DUP1 PUSH4 0xCB9F1220 EQ PUSH2 0x206 JUMPI DUP1 PUSH4 0xD3C70477 EQ PUSH2 0x224 JUMPI DUP1 PUSH4 0xF1E6D198 EQ PUSH2 0x242 JUMPI DUP1 PUSH4 0xFEBB0F7E EQ PUSH2 0x260 JUMPI PUSH2 0xE8 JUMP JUMPDEST DUP1 PUSH4 0xBE44F864 EQ PUSH2 0x1C0 JUMPI DUP1 PUSH4 0xC2985578 EQ PUSH2 0x1DE JUMPI DUP1 PUSH4 0xC5D7802E EQ PUSH2 0x1E8 JUMPI PUSH2 0xE8 JUMP JUMPDEST DUP1 PUSH4 0x2ACA45F1 GT PUSH2 0xC6 JUMPI DUP1 PUSH4 0x2ACA45F1 EQ PUSH2 0x146 JUMPI DUP1 PUSH4 0x613CE410 EQ PUSH2 0x164 JUMPI DUP1 PUSH4 0xA0D0D59E EQ PUSH2 0x184 JUMPI DUP1 PUSH4 0xA56DFE4A EQ PUSH2 0x1A2 JUMPI PUSH2 0xE8 JUMP JUMPDEST DUP1 PUSH4 0x9879682 EQ PUSH2 0xEC JUMPI DUP1 PUSH4 0xC55699C EQ PUSH2 0x10A JUMPI DUP1 PUSH4 0x12176349 EQ PUSH2 0x128 JUMPI JUMPDEST PUSH0 PUSH0 REVERT JUMPDEST PUSH2 0xF4 PUSH2 0x27E JUMP JUMPDEST PUSH1 0x40 MLOAD PUSH2 0x101 SWAP2 SWAP1 PUSH2 0x576 JUMP JUMPDEST PUSH1 0x40 MLOAD DUP1 SWAP2 SUB SWAP1 RETURN JUMPDEST PUSH2 0x112 PUSH2 0x297 JUMP JUMPDEST PUSH1 0x40 MLOAD PUSH2 0x11F SWAP2 SWAP1 PUSH2 0x576 JUMP JUMPDEST PUSH1 0x40 MLOAD DUP1 SWAP2 SUB SWAP1 RETURN JUMPDEST PUSH2 0x130 PUSH2 0x29C JUMP JUMPDEST PUSH1 0x40 MLOAD PUSH2 0x13D SWAP2 SWAP1 PUSH2 0x576 JUMP JUMPDEST PUSH1 0x40 MLOAD DUP1 SWAP2 SUB SWAP1 RETURN JUMPDEST PUSH2 0x14E PUSH2 0x2C6 JUMP JUMPDEST PUSH1 0x40 MLOAD PUSH2 0x15B SWAP2 SWAP1 PUSH2 0x576 JUMP JUMPDEST PUSH1 0x40 MLOAD DUP1 SWAP2 SUB SWAP1 RETURN JUMPDEST PUSH2 0x16C PUSH2 0x2F6 JUMP JUMPDEST PUSH1 0x40 MLOAD PUSH2 0x17B SWAP4 SWAP3 SWAP2 SWAP1 PUSH2 0x63E JUMP JUMPDEST PUSH1 0x40 MLOAD DUP1 SWAP2 SUB SWAP1 RETURN JUMPDEST PUSH2 0x18C PUSH2 0x35A JUMP JUMPDEST PUSH1 0x40 MLOAD PUSH2 0x199 SWAP2 SWAP1 PUSH2 0x576 JUMP JUMPDEST PUSH1 0x40 MLOAD DUP1 SWAP2 SUB SWAP1 RETURN JUMPDEST PUSH2 0x1AA PUSH2 0x38A JUMP JUMPDEST PUSH1 0x40 MLOAD PUSH2 0x1B7 SWAP2 SWAP1 PUSH2 0x576 JUMP JUMPDEST PUSH1 0x40 MLOAD DUP1 SWAP2 SUB SWAP1 RETURN JUMPDEST PUSH2 0x1C8 PUSH2 0x390 JUMP JUMPDEST PUSH1 0x40 MLOAD PUSH2 0x1D5 SWAP2 SWAP1 PUSH2 0x576 JUMP JUMPDEST PUSH1 0x40 MLOAD DUP1 SWAP2 SUB SWAP1 RETURN JUMPDEST PUSH2 0x1E6 PUSH2 0x3BD JUMP JUMPDEST STOP JUMPDEST PUSH2 0x1F0 PUSH2 0x413 JUMP JUMPDEST PUSH1 0x40 MLOAD PUSH2 0x1FD SWAP2 SWAP1 PUSH2 0x6CC JUMP JUMPDEST PUSH1 0x40 MLOAD DUP1 SWAP2 SUB SWAP1 RETURN JUMPDEST PUSH2 0x20E PUSH2 0x49F JUMP JUMPDEST PUSH1 0x40 MLOAD PUSH2 0x21B SWAP2 SWAP1 PUSH2 0x576 JUMP JUMPDEST PUSH1 0x40 MLOAD DUP1 SWAP2 SUB SWAP1 RETURN JUMPDEST PUSH2 0x22C PUSH2 0x4DE JUMP JUMPDEST PUSH1 0x40 MLOAD PUSH2 0x239 SWAP2 SWAP1 PUSH2 0x576 JUMP JUMPDEST PUSH1 0x40 MLOAD DUP1 SWAP2 SUB SWAP1 RETURN JUMPDEST PUSH2 0x24A PUSH2 0x511 JUMP JUMPDEST PUSH1 0x40 MLOAD PUSH2 0x257 SWAP2 SWAP1 PUSH2 0x576 JUMP JUMPDEST PUSH1 0x40 MLOAD DUP1 SWAP2 SUB SWAP1 RETURN JUMPDEST PUSH2 0x268 PUSH2 0x53B JUMP JUMPDEST PUSH1 0x40 MLOAD PUSH2 0x275 SWAP2 SWAP1 PUSH2 0x576 JUMP JUMPDEST PUSH1 0x40 MLOAD DUP1 SWAP2 SUB SWAP1 RETURN JUMPDEST PUSH0 PUSH1 0x1 DUP1 EQ PUSH2 0x290 JUMPI PUSH2 0x28F PUSH2 0x6EC JUMP JUMPDEST JUMPDEST PUSH1 0x1 SWAP1 POP SWAP1 JUMP JUMPDEST PUSH0 SLOAD DUP2 JUMP JUMPDEST PUSH0 PUSH1 0x1 DUP1 EQ PUSH2 0x2AE JUMPI PUSH2 0x2AD PUSH2 0x6EC JUMP JUMPDEST JUMPDEST PUSH1 0x1 DUP1 EQ PUSH2 0x2BF JUMPI PUSH2 0x2BE PUSH2 0x6EC JUMP JUMPDEST JUMPDEST PUSH1 0x1 SWAP1 POP SWAP1 JUMP JUMPDEST PUSH0 PUSH3 0x93A80 DUP1 EQ PUSH2 0x2DA JUMPI PUSH2 0x2D9 PUSH2 0x6EC JUMP JUMPDEST JUMPDEST PUSH3 0x93A80 DUP1 EQ PUSH2 0x2ED JUMPI PUSH2 0x2EC PUSH2 0x6EC JUMP JUMPDEST JUMPDEST PUSH3 0x93A80 SWAP1 POP SWAP1 JUMP JUMPDEST PUSH0 PUSH0 PUSH1 0x60 PUSH0 CALLER SWAP1 POP PUSH0 NUMBER SWAP1 POP PUSH0 PUSH0 CALLDATASIZE DUP1 DUP1 PUSH1 0x1F ADD PUSH1 0x20 DUP1 SWAP2 DIV MUL PUSH1 0x20 ADD PUSH1 0x40 MLOAD SWAP1 DUP2 ADD PUSH1 0x40 MSTORE DUP1 SWAP4 SWAP3 SWAP2 SWAP1 DUP2 DUP2 MSTORE PUSH1 0x20 ADD DUP4 DUP4 DUP1 DUP3 DUP5 CALLDATACOPY PUSH0 DUP2 DUP5 ADD MSTORE PUSH1 0x1F NOT PUSH1 0x1F DUP3 ADD AND SWAP1 POP DUP1 DUP4 ADD SWAP3 POP POP POP POP POP POP POP SWAP1 POP DUP3 DUP3 DUP3 SWAP6 POP SWAP6 POP SWAP6 POP POP POP POP SWAP1 SWAP2 SWAP3 JUMP JUMPDEST PUSH0 PUSH3 0x15180 DUP1 EQ PUSH2 0x36E JUMPI PUSH2 0x36D PUSH2 0x6EC JUMP JUMPDEST JUMPDEST PUSH3 0x15180 DUP1 EQ PUSH2 0x381 JUMPI PUSH2 0x380 PUSH2 0x6EC JUMP JUMPDEST JUMPDEST PUSH3 0x15180 SWAP1 POP SWAP1 JUMP JUMPDEST PUSH1 0x1 SLOAD DUP2 JUMP JUMPDEST PUSH0 PUSH2 0xE10 DUP1 EQ PUSH2 0x3A3 JUMPI PUSH2 0x3A2 PUSH2 0x6EC JUMP JUMPDEST JUMPDEST PUSH2 0xE10 DUP1 EQ PUSH2 0x3B5 JUMPI PUSH2 0x3B4 PUSH2 0x6EC JUMP JUMPDEST JUMPDEST PUSH2 0xE10 SWAP1 POP SWAP1 JUMP JUMPDEST PUSH1 0x3 PUSH0 DUP2 SWAP1 SSTORE POP PUSH1 0x2 PUSH1 0x1 DUP2 SWAP1 SSTORE POP PUSH1 0x40 MLOAD DUP1 PUSH1 0x40 ADD PUSH1 0x40 MSTORE DUP1 PUSH1 0x4 DUP2 MSTORE PUSH1 0x20 ADD PUSH32 0x3078414100000000000000000000000000000000000000000000000000000000 DUP2 MSTORE POP PUSH1 0x2 SWAP1 DUP2 PUSH2 0x410 SWAP2 SWAP1 PUSH2 0x943 JUMP JUMPDEST POP JUMP JUMPDEST PUSH1 0x2 DUP1 SLOAD PUSH2 0x420 SWAP1 PUSH2 0x773 JUMP JUMPDEST DUP1 PUSH1 0x1F ADD PUSH1 0x20 DUP1 SWAP2 DIV MUL PUSH1 0x20 ADD PUSH1 0x40 MLOAD SWAP1 DUP2 ADD PUSH1 0x40 MSTORE DUP1 SWAP3 SWAP2 SWAP1 DUP2 DUP2 MSTORE PUSH1 0x20 ADD DUP3 DUP1 SLOAD PUSH2 0x44C SWAP1 PUSH2 0x773 JUMP JUMPDEST DUP1 ISZERO PUSH2 0x497 JUMPI DUP1 PUSH1 0x1F LT PUSH2 0x46E JUMPI PUSH2 0x100 DUP1 DUP4 SLOAD DIV MUL DUP4 MSTORE SWAP2 PUSH1 0x20 ADD SWAP2 PUSH2 0x497 JUMP JUMPDEST DUP3 ADD SWAP2 SWAP1 PUSH0 MSTORE PUSH1 0x20 PUSH0 KECCAK256 SWAP1 JUMPDEST DUP2 SLOAD DUP2 MSTORE SWAP1 PUSH1 0x1 ADD SWAP1 PUSH1 0x20 ADD DUP1 DUP4 GT PUSH2 0x47A JUMPI DUP3 SWAP1 SUB PUSH1 0x1F AND DUP3 ADD SWAP2 JUMPDEST POP POP POP POP POP DUP2 JUMP JUMPDEST PUSH0 PUSH8 0xDE0B6B3A7640000 DUP1 EQ PUSH2 0x4B8 JUMPI PUSH2 0x4B7 PUSH2 0x6EC JUMP JUMPDEST JUMPDEST PUSH8 0xDE0B6B3A7640000 DUP1 EQ PUSH2 0x4D0 JUMPI PUSH2 0x4CF PUSH2 0x6EC JUMP JUMPDEST JUMPDEST PUSH8 0xDE0B6B3A7640000 SWAP1 POP SWAP1 JUMP JUMPDEST PUSH0 PUSH4 0x3B9ACA00 DUP1 EQ PUSH2 0x4F3 JUMPI PUSH2 0x4F2 PUSH2 0x6EC JUMP JUMPDEST JUMPDEST PUSH4 0x3B9ACA00 DUP1 EQ PUSH2 0x507 JUMPI PUSH2 0x506 PUSH2 0x6EC JUMP JUMPDEST JUMPDEST PUSH4 0x3B9ACA00 SWAP1 POP SWAP1 JUMP JUMPDEST PUSH0 PUSH1 0x3C DUP1 EQ PUSH2 0x523 JUMPI PUSH2 0x522 PUSH2 0x6EC JUMP JUMPDEST JUMPDEST PUSH1 0x3C DUP1 EQ PUSH2 0x534 JUMPI PUSH2 0x533 PUSH2 0x6EC JUMP JUMPDEST JUMPDEST PUSH1 0x3C SWAP1 POP SWAP1 JUMP JUMPDEST PUSH0 PUSH0 PUSH1 0x1 SWAP1 POP PUSH0 PUSH1 0x2 SWAP1 POP PUSH0 DUP2 DUP4 PUSH2 0x553 SWAP2 SWAP1 PUSH2 0xA3F JUMP JUMPDEST SWAP1 POP DUP1 SWAP4 POP POP POP POP SWAP1 JUMP JUMPDEST PUSH0 DUP2 SWAP1 POP SWAP2 SWAP1 POP JUMP JUMPDEST PUSH2 0x570 DUP2 PUSH2 0x55E JUMP JUMPDEST DUP3 MSTORE POP POP JUMP JUMPDEST PUSH0 PUSH1 0x20 DUP3 ADD SWAP1 POP PUSH2 0x589 PUSH0 DUP4 ADD DUP5 PUSH2 0x567 JUMP JUMPDEST SWAP3 SWAP2 POP POP JUMP JUMPDEST PUSH0 PUSH20 0xFFFFFFFFFFFFFFFFFFFFFFFFFFFFFFFFFFFFFFFF DUP3 AND SWAP1 POP SWAP2 SWAP1 POP JUMP JUMPDEST PUSH0 PUSH2 0x5B8 DUP3 PUSH2 0x58F JUMP JUMPDEST SWAP1 POP SWAP2 SWAP1 POP JUMP JUMPDEST PUSH2 0x5C8 DUP2 PUSH2 0x5AE JUMP JUMPDEST DUP3 MSTORE POP POP JUMP JUMPDEST PUSH0 DUP2 MLOAD SWAP1 POP SWAP2 SWAP1 POP JUMP JUMPDEST PUSH0 DUP3 DUP3 MSTORE PUSH1 0x20 DUP3 ADD SWAP1 POP SWAP3 SWAP2 POP POP JUMP JUMPDEST DUP3 DUP2 DUP4 MCOPY PUSH0 DUP4 DUP4 ADD MSTORE POP POP POP JUMP JUMPDEST PUSH0 PUSH1 0x1F NOT PUSH1 0x1F DUP4 ADD AND SWAP1 POP SWAP2 SWAP1 POP JUMP JUMPDEST PUSH0 PUSH2 0x610 DUP3 PUSH2 0x5CE JUMP JUMPDEST PUSH2 0x61A DUP2 DUP6 PUSH2 0x5D8 JUMP JUMPDEST SWAP4 POP PUSH2 0x62A DUP2 DUP6 PUSH1 0x20 DUP7 ADD PUSH2 0x5E8 JUMP JUMPDEST PUSH2 0x633 DUP2 PUSH2 0x5F6 JUMP JUMPDEST DUP5 ADD SWAP2 POP POP SWAP3 SWAP2 POP POP JUMP JUMPDEST PUSH0 PUSH1 0x60 DUP3 ADD SWAP1 POP PUSH2 0x651 PUSH0 DUP4 ADD DUP7 PUSH2 0x5BF JUMP JUMPDEST PUSH2 0x65E PUSH1 0x20 DUP4 ADD DUP6 PUSH2 0x567 JUMP JUMPDEST DUP2 DUP2 SUB PUSH1 0x40 DUP4 ADD MSTORE PUSH2 0x670 DUP2 DUP5 PUSH2 0x606 JUMP JUMPDEST SWAP1 POP SWAP5 SWAP4 POP POP POP POP JUMP JUMPDEST PUSH0 DUP2 MLOAD SWAP1 POP SWAP2 SWAP1 POP JUMP JUMPDEST PUSH0 DUP3 DUP3 MSTORE PUSH1 0x20 DUP3 ADD SWAP1 POP SWAP3 SWAP2 POP POP JUMP JUMPDEST PUSH0 PUSH2 0x69E DUP3 PUSH2 0x67A JUMP JUMPDEST PUSH2 0x6A8 DUP2 DUP6 PUSH2 0x684 JUMP JUMPDEST SWAP4 POP PUSH2 0x6B8 DUP2 DUP6 PUSH1 0x20 DUP7 ADD PUSH2 0x5E8 JUMP JUMPDEST PUSH2 0x6C1 DUP2 PUSH2 0x5F6 JUMP JUMPDEST DUP5 ADD SWAP2 POP POP SWAP3 SWAP2 POP POP JUMP JUMPDEST PUSH0 PUSH1 0x20 DUP3 ADD SWAP1 POP DUP2 DUP2 SUB PUSH0 DUP4 ADD MSTORE PUSH2 0x6E4 DUP2 DUP5 PUSH2 0x694 JUMP JUMPDEST SWAP1 POP SWAP3 SWAP2 POP POP JUMP JUMPDEST PUSH32 0x4E487B7100000000000000000000000000000000000000000000000000000000 PUSH0 MSTORE PUSH1 0x1 PUSH1 0x4 MSTORE PUSH1 0x24 PUSH0 REVERT JUMPDEST PUSH32 0x4E487B7100000000000000000000000000000000000000000000000000000000 PUSH0 MSTORE PUSH1 0x41 PUSH1 0x4 MSTORE PUSH1 0x24 PUSH0 REVERT JUMPDEST PUSH32 0x4E487B7100000000000000000000000000000000000000000000000000000000 PUSH0 MSTORE PUSH1 0x22 PUSH1 0x4 MSTORE PUSH1 0x24 PUSH0 REVERT JUMPDEST PUSH0 PUSH1 0x2 DUP3 DIV SWAP1 POP PUSH1 0x1 DUP3 AND DUP1 PUSH2 0x78A JUMPI PUSH1 0x7F DUP3 AND SWAP2 POP JUMPDEST PUSH1 0x20 DUP3 LT DUP2 SUB PUSH2 0x79D JUMPI PUSH2 0x79C PUSH2 0x746 JUMP JUMPDEST JUMPDEST POP SWAP2 SWAP1 POP JUMP JUMPDEST PUSH0 DUP2 SWAP1 POP DUP2 PUSH0 MSTORE PUSH1 0x20 PUSH0 KECCAK256 SWAP1 POP SWAP2 SWAP1 POP JUMP JUMPDEST PUSH0 PUSH1 0x20 PUSH1 0x1F DUP4 ADD DIV SWAP1 POP SWAP2 SWAP1 POP JUMP JUMPDEST PUSH0 DUP3 DUP3 SHL SWAP1 POP SWAP3 SWAP2 POP POP JUMP JUMPDEST PUSH0 PUSH1 0x8 DUP4 MUL PUSH2 0x7FF PUSH32 0xFFFFFFFFFFFFFFFFFFFFFFFFFFFFFFFFFFFFFFFFFFFFFFFFFFFFFFFFFFFFFFFF DUP3 PUSH2 0x7C4 JUMP JUMPDEST PUSH2 0x809 DUP7 DUP4 PUSH2 0x7C4 JUMP JUMPDEST SWAP6 POP DUP1 NOT DUP5 AND SWAP4 POP DUP1 DUP7 AND DUP5 OR SWAP3 POP POP POP SWAP4 SWAP3 POP POP POP JUMP JUMPDEST PUSH0 DUP2 SWAP1 POP SWAP2 SWAP1 POP JUMP JUMPDEST PUSH0 PUSH2 0x844 PUSH2 0x83F PUSH2 0x83A DUP5 PUSH2 0x55E JUMP JUMPDEST PUSH2 0x821 JUMP JUMPDEST PUSH2 0x55E JUMP JUMPDEST SWAP1 POP SWAP2 SWAP1 POP JUMP JUMPDEST PUSH0 DUP2 SWAP1 POP SWAP2 SWAP1 POP JUMP JUMPDEST PUSH2 0x85D DUP4 PUSH2 0x82A JUMP JUMPDEST PUSH2 0x871 PUSH2 0x869 DUP3 PUSH2 0x84B JUMP JUMPDEST DUP5 DUP5 SLOAD PUSH2 0x7D0 JUMP JUMPDEST DUP3 SSTORE POP POP POP POP JUMP JUMPDEST PUSH0 PUSH0 SWAP1 POP SWAP1 JUMP JUMPDEST PUSH2 0x888 PUSH2 0x879 JUMP JUMPDEST PUSH2 0x893 DUP2 DUP5 DUP5 PUSH2 0x854 JUMP JUMPDEST POP POP POP JUMP JUMPDEST JUMPDEST DUP2 DUP2 LT ISZERO PUSH2 0x8B6 JUMPI PUSH2 0x8AB PUSH0 DUP3 PUSH2 0x880 JUMP JUMPDEST PUSH1 0x1 DUP2 ADD SWAP1 POP PUSH2 0x899 JUMP JUMPDEST POP POP JUMP JUMPDEST PUSH1 0x1F DUP3 GT ISZERO PUSH2 0x8FB JUMPI PUSH2 0x8CC DUP2 PUSH2 0x7A3 JUMP JUMPDEST PUSH2 0x8D5 DUP5 PUSH2 0x7B5 JUMP JUMPDEST DUP2 ADD PUSH1 0x20 DUP6 LT ISZERO PUSH2 0x8E4 JUMPI DUP2 SWAP1 POP JUMPDEST PUSH2 0x8F8 PUSH2 0x8F0 DUP6 PUSH2 0x7B5 JUMP JUMPDEST DUP4 ADD DUP3 PUSH2 0x898 JUMP JUMPDEST POP POP JUMPDEST POP POP POP JUMP JUMPDEST PUSH0 DUP3 DUP3 SHR SWAP1 POP SWAP3 SWAP2 POP POP JUMP JUMPDEST PUSH0 PUSH2 0x91B PUSH0 NOT DUP5 PUSH1 0x8 MUL PUSH2 0x900 JUMP JUMPDEST NOT DUP1 DUP4 AND SWAP2 POP POP SWAP3 SWAP2 POP POP JUMP JUMPDEST PUSH0 PUSH2 0x933 DUP4 DUP4 PUSH2 0x90C JUMP JUMPDEST SWAP2 POP DUP3 PUSH1 0x2 MUL DUP3 OR SWAP1 POP SWAP3 SWAP2 POP POP JUMP JUMPDEST PUSH2 0x94C DUP3 PUSH2 0x67A JUMP JUMPDEST PUSH8 0xFFFFFFFFFFFFFFFF DUP2 GT ISZERO PUSH2 0x965 JUMPI PUSH2 0x964 PUSH2 0x719 JUMP JUMPDEST JUMPDEST PUSH2 0x96F DUP3 SLOAD PUSH2 0x773 JUMP JUMPDEST PUSH2 0x97A DUP3 DUP3 DUP6 PUSH2 0x8BA JUMP JUMPDEST PUSH0 PUSH1 0x20 SWAP1 POP PUSH1 0x1F DUP4 GT PUSH1 0x1 DUP2 EQ PUSH2 0x9AB JUMPI PUSH0 DUP5 ISZERO PUSH2 0x999 JUMPI DUP3 DUP8 ADD MLOAD SWAP1 POP JUMPDEST PUSH2 0x9A3 DUP6 DUP3 PUSH2 0x928 JUMP JUMPDEST DUP7 SSTORE POP PUSH2 0xA0A JUMP JUMPDEST PUSH1 0x1F NOT DUP5 AND PUSH2 0x9B9 DUP7 PUSH2 0x7A3 JUMP JUMPDEST PUSH0 JUMPDEST DUP3 DUP2 LT ISZERO PUSH2 0x9E0 JUMPI DUP5 DUP10 ADD MLOAD DUP3 SSTORE PUSH1 0x1 DUP3 ADD SWAP2 POP PUSH1 0x20 DUP6 ADD SWAP5 POP PUSH1 0x20 DUP2 ADD SWAP1 POP PUSH2 0x9BB JUMP JUMPDEST DUP7 DUP4 LT ISZERO PUSH2 0x9FD JUMPI DUP5 DUP10 ADD MLOAD PUSH2 0x9F9 PUSH1 0x1F DUP10 AND DUP3 PUSH2 0x90C JUMP JUMPDEST DUP4 SSTORE POP JUMPDEST PUSH1 0x1 PUSH1 0x2 DUP9 MUL ADD DUP9 SSTORE POP POP POP JUMPDEST POP POP POP POP POP POP JUMP JUMPDEST PUSH32 0x4E487B7100000000000000000000000000000000000000000000000000000000 PUSH0 MSTORE PUSH1 0x11 PUSH1 0x4 MSTORE PUSH1 0x24 PUSH0 REVERT JUMPDEST PUSH0 PUSH2 0xA49 DUP3 PUSH2 0x55E JUMP JUMPDEST SWAP2 POP PUSH2 0xA54 DUP4 PUSH2 0x55E JUMP JUMPDEST SWAP3 POP DUP3 DUP3 ADD SWAP1 POP DUP1 DUP3 GT ISZERO PUSH2 0xA6C JUMPI PUSH2 0xA6B PUSH2 0xA12 JUMP JUMPDEST JUMPDEST SWAP3 SWAP2 POP POP JUMP INVALID LOG2 PUSH5 0x6970667358 0x22 SLT KECCAK256 PUSH1 0xD6 0xC5 DUP8 PC CREATE DUP16 PUSH26 0x1E727CD49E1CCB27CD25F6696185529E4651D31A7977D7836473 PUSH16 0x6C634300081E00330000000000000000 "
				},
				"gasEstimates": {
					"creation": {
						"codeDepositCost": "545600",
						"executionCost": "22684",
						"totalCost": "568284"
					},
					"external": {
						"bar()": "infinite",
						"daysUnit()": "445",
						"etherUnit()": "400",
						"foo()": "infinite",
						"gWeiUnit()": "422",
						"globalData()": "infinite",
						"hoursUnit()": "401",
						"minutesUnit()": "444",
						"secondsUnit()": "379",
						"weeksUnit()": "401",
						"weiUnit()": "446",
						"x()": "2470",
						"y()": "2514",
						"z()": "infinite"
					}
				},
				"methodIdentifiers": {
					"bar()": "febb0f7e",
					"daysUnit()": "a0d0d59e",
					"etherUnit()": "cb9f1220",
					"foo()": "c2985578",
					"gWeiUnit()": "d3c70477",
					"globalData()": "613ce410",
					"hoursUnit()": "be44f864",
					"minutesUnit()": "f1e6d198",
					"secondsUnit()": "09879682",
					"weeksUnit()": "2aca45f1",
					"weiUnit()": "12176349",
					"x()": "0c55699c",
					"y()": "a56dfe4a",
					"z()": "c5d7802e"
				}
			},
			"storageLayout": {
				"storage": [
					{
						"astId": 77,
						"contract": "study/dataStorage.sol:Variables",
						"label": "x",
						"offset": 0,
						"slot": "0",
						"type": "t_uint256"
					},
					{
						"astId": 79,
						"contract": "study/dataStorage.sol:Variables",
						"label": "y",
						"offset": 0,
						"slot": "1",
						"type": "t_uint256"
					},
					{
						"astId": 81,
						"contract": "study/dataStorage.sol:Variables",
						"label": "z",
						"offset": 0,
						"slot": "2",
						"type": "t_string_storage"
					}
				],
				"types": {
					"t_string_storage": {
						"encoding": "bytes",
						"label": "string",
						"numberOfBytes": "32"
					},
					"t_uint256": {
						"encoding": "inplace",
						"label": "uint256",
						"numberOfBytes": "32"
					}
				}
			},
			"userdoc": {
				"kind": "user",
				"methods": {},
				"version": 1
			}
		}
	}
}