{
	"study/insertSort.sol": {
		"InsertSort": {
			"abi": [
				{
					"inputs": [],
					"name": "FoorLoopTest",
					"outputs": [
						{
							"internalType": "uint256",
							"name": "",
							"type": "uint256"
						}
					],
					"stateMutability": "pure",
					"type": "function"
				},
				{
					"inputs": [
						{
							"internalType": "uint256",
							"name": "_number",
							"type": "uint256"
						}
					],
					"name": "IfElseTest",
					"outputs": [
						{
							"internalType": "bool",
							"name": "",
							"type": "bool"
						}
					],
					"stateMutability": "pure",
					"type": "function"
				},
				{
					"inputs": [],
					"name": "WhileTest",
					"outputs": [
						{
							"internalType": "uint256",
							"name": "",
							"type": "uint256"
						}
					],
					"stateMutability": "pure",
					"type": "function"
				},
				{
					"inputs": [],
					"name": "doWhileTest",
					"outputs": [
						{
							"internalType": "uint256",
							"name": "",
							"type": "uint256"
						}
					],
					"stateMutability": "pure",
					"type": "function"
				},
				{
					"inputs": [
						{
							"internalType": "uint256",
							"name": "x",
							"type": "uint256"
						},
						{
							"internalType": "uint256",
							"name": "y",
							"type": "uint256"
						}
					],
					"name": "ternaryTest",
					"outputs": [
						{
							"internalType": "uint256",
							"name": "",
							"type": "uint256"
						}
					],
					"stateMutability": "pure",
					"type": "function"
				}
			],
			"devdoc": {
				"kind": "dev",
				"methods": {},
				"version": 1
			},
			"evm": {
				"assembly": "    /* \"study/insertSort.sol\":58:1063  contract InsertSort {... */\n  mstore(0x40, 0x80)\n  callvalue\n  dup1\n  iszero\n  tag_1\n  jumpi\n  revert(0x00, 0x00)\ntag_1:\n  pop\n  dataSize(sub_0)\n  dup1\n  dataOffset(sub_0)\n  0x00\n  codecopy\n  0x00\n  return\nstop\n\nsub_0: assembly {\n        /* \"study/insertSort.sol\":58:1063  contract InsertSort {... */\n      mstore(0x40, 0x80)\n      callvalue\n      dup1\n      iszero\n      tag_1\n      jumpi\n      revert(0x00, 0x00)\n    tag_1:\n      pop\n      jumpi(tag_2, lt(calldatasize, 0x04))\n      shr(0xe0, calldataload(0x00))\n      dup1\n      0x013dbfcb\n      eq\n      tag_3\n      jumpi\n      dup1\n      0x28766320\n      eq\n      tag_4\n      jumpi\n      dup1\n      0x2bbacaaa\n      eq\n      tag_5\n      jumpi\n      dup1\n      0x41995845\n      eq\n      tag_6\n      jumpi\n      dup1\n      0x446fada3\n      eq\n      tag_7\n      jumpi\n    tag_2:\n      revert(0x00, 0x00)\n        /* \"study/insertSort.sol\":291:470  function FoorLoopTest() public pure returns(uint256){... */\n    tag_3:\n      tag_8\n      tag_9\n      jump\t// in\n    tag_8:\n      mload(0x40)\n      tag_10\n      swap2\n      swap1\n      tag_11\n      jump\t// in\n    tag_10:\n      mload(0x40)\n      dup1\n      swap2\n      sub\n      swap1\n      return\n        /* \"study/insertSort.sol\":949:1059  function ternaryTest(uint256 x, uint256 y) public pure returns(uint256) {... */\n    tag_4:\n      tag_12\n      0x04\n      dup1\n      calldatasize\n      sub\n      dup2\n      add\n      swap1\n      tag_13\n      swap2\n      swap1\n      tag_14\n      jump\t// in\n    tag_13:\n      tag_15\n      jump\t// in\n    tag_12:\n      mload(0x40)\n      tag_16\n      swap2\n      swap1\n      tag_11\n      jump\t// in\n    tag_16:\n      mload(0x40)\n      dup1\n      swap2\n      sub\n      swap1\n      return\n        /* \"study/insertSort.sol\":713:923  function doWhileTest() public  pure returns(uint256) {... */\n    tag_5:\n      tag_17\n      tag_18\n      jump\t// in\n    tag_17:\n      mload(0x40)\n      tag_19\n      swap2\n      swap1\n      tag_11\n      jump\t// in\n    tag_19:\n      mload(0x40)\n      dup1\n      swap2\n      sub\n      swap1\n      return\n        /* \"study/insertSort.sol\":99:274  function IfElseTest(uint256 _number) public pure returns(bool){... */\n    tag_6:\n      tag_20\n      0x04\n      dup1\n      calldatasize\n      sub\n      dup2\n      add\n      swap1\n      tag_21\n      swap2\n      swap1\n      tag_22\n      jump\t// in\n    tag_21:\n      tag_23\n      jump\t// in\n    tag_20:\n      mload(0x40)\n      tag_24\n      swap2\n      swap1\n      tag_25\n      jump\t// in\n    tag_24:\n      mload(0x40)\n      dup1\n      swap2\n      sub\n      swap1\n      return\n        /* \"study/insertSort.sol\":489:691  function WhileTest() public pure returns(uint256) {... */\n    tag_7:\n      tag_26\n      tag_27\n      jump\t// in\n    tag_26:\n      mload(0x40)\n      tag_28\n      swap2\n      swap1\n      tag_11\n      jump\t// in\n    tag_28:\n      mload(0x40)\n      dup1\n      swap2\n      sub\n      swap1\n      return\n        /* \"study/insertSort.sol\":291:470  function FoorLoopTest() public pure returns(uint256){... */\n    tag_9:\n        /* \"study/insertSort.sol\":335:342  uint256 */\n      0x00\n        /* \"study/insertSort.sol\":353:365  uint256 _sum */\n      0x00\n        /* \"study/insertSort.sol\":368:369  0 */\n      0x00\n        /* \"study/insertSort.sol\":353:369  uint256 _sum = 0 */\n      swap1\n      pop\n        /* \"study/insertSort.sol\":383:389  uint i */\n      0x00\n        /* \"study/insertSort.sol\":392:393  0 */\n      0x00\n        /* \"study/insertSort.sol\":383:393  uint i = 0 */\n      swap1\n      pop\n        /* \"study/insertSort.sol\":379:440  for(uint i = 0; i < 10; i++) {... */\n    tag_30:\n        /* \"study/insertSort.sol\":399:401  10 */\n      0x0a\n        /* \"study/insertSort.sol\":395:396  i */\n      dup2\n        /* \"study/insertSort.sol\":395:401  i < 10 */\n      lt\n        /* \"study/insertSort.sol\":379:440  for(uint i = 0; i < 10; i++) {... */\n      iszero\n      tag_31\n      jumpi\n        /* \"study/insertSort.sol\":428:429  i */\n      dup1\n        /* \"study/insertSort.sol\":422:429  _sum+=i */\n      dup3\n      tag_33\n      swap2\n      swap1\n      tag_34\n      jump\t// in\n    tag_33:\n      swap2\n      pop\n        /* \"study/insertSort.sol\":403:406  i++ */\n      dup1\n      dup1\n      0x01\n      add\n      swap2\n      pop\n      pop\n        /* \"study/insertSort.sol\":379:440  for(uint i = 0; i < 10; i++) {... */\n      jump(tag_30)\n    tag_31:\n      pop\n        /* \"study/insertSort.sol\":458:462  _sum */\n      dup1\n        /* \"study/insertSort.sol\":450:463  return (_sum) */\n      swap2\n      pop\n      pop\n        /* \"study/insertSort.sol\":291:470  function FoorLoopTest() public pure returns(uint256){... */\n      swap1\n      jump\t// out\n        /* \"study/insertSort.sol\":949:1059  function ternaryTest(uint256 x, uint256 y) public pure returns(uint256) {... */\n    tag_15:\n        /* \"study/insertSort.sol\":1012:1019  uint256 */\n      0x00\n        /* \"study/insertSort.sol\":1043:1044  y */\n      dup2\n        /* \"study/insertSort.sol\":1038:1039  x */\n      dup4\n        /* \"study/insertSort.sol\":1038:1044  x >= y */\n      lt\n      iszero\n        /* \"study/insertSort.sol\":1038:1051  x >= y ? x: y */\n      tag_36\n      jumpi\n        /* \"study/insertSort.sol\":1050:1051  y */\n      dup2\n        /* \"study/insertSort.sol\":1038:1051  x >= y ? x: y */\n      jump(tag_37)\n    tag_36:\n        /* \"study/insertSort.sol\":1047:1048  x */\n      dup3\n        /* \"study/insertSort.sol\":1038:1051  x >= y ? x: y */\n    tag_37:\n        /* \"study/insertSort.sol\":1031:1051  return x >= y ? x: y */\n      swap1\n      pop\n        /* \"study/insertSort.sol\":949:1059  function ternaryTest(uint256 x, uint256 y) public pure returns(uint256) {... */\n      swap3\n      swap2\n      pop\n      pop\n      jump\t// out\n        /* \"study/insertSort.sol\":713:923  function doWhileTest() public  pure returns(uint256) {... */\n    tag_18:\n        /* \"study/insertSort.sol\":757:764  uint256 */\n      0x00\n        /* \"study/insertSort.sol\":776:788  uint256 _sum */\n      0x00\n        /* \"study/insertSort.sol\":791:792  0 */\n      0x00\n        /* \"study/insertSort.sol\":776:792  uint256 _sum = 0 */\n      swap1\n      pop\n        /* \"study/insertSort.sol\":802:811  uint256 i */\n      0x00\n        /* \"study/insertSort.sol\":814:815  0 */\n      0x00\n        /* \"study/insertSort.sol\":802:815  uint256 i = 0 */\n      swap1\n      pop\n        /* \"study/insertSort.sol\":826:893  do {... */\n    tag_39:\n        /* \"study/insertSort.sol\":849:850  i */\n      dup1\n        /* \"study/insertSort.sol\":843:850  _sum+=i */\n      dup3\n      tag_42\n      swap2\n      swap1\n      tag_34\n      jump\t// in\n    tag_42:\n      swap2\n      pop\n        /* \"study/insertSort.sol\":864:867  i++ */\n      dup1\n      dup1\n      tag_43\n      swap1\n      tag_44\n      jump\t// in\n    tag_43:\n      swap2\n      pop\n      pop\n        /* \"study/insertSort.sol\":889:891  10 */\n      0x0a\n        /* \"study/insertSort.sol\":885:886  i */\n      dup2\n        /* \"study/insertSort.sol\":885:891  i < 10 */\n      lt\n        /* \"study/insertSort.sol\":826:893  do {... */\n      tag_39\n      jumpi\n        /* \"study/insertSort.sol\":911:915  _sum */\n      dup2\n        /* \"study/insertSort.sol\":903:916  return (_sum) */\n      swap3\n      pop\n      pop\n      pop\n        /* \"study/insertSort.sol\":713:923  function doWhileTest() public  pure returns(uint256) {... */\n      swap1\n      jump\t// out\n        /* \"study/insertSort.sol\":99:274  function IfElseTest(uint256 _number) public pure returns(bool){... */\n    tag_23:\n        /* \"study/insertSort.sol\":156:160  bool */\n      0x00\n        /* \"study/insertSort.sol\":186:188  10 */\n      0x0a\n        /* \"study/insertSort.sol\":175:182  _number */\n      dup3\n        /* \"study/insertSort.sol\":175:188  _number == 10 */\n      sub\n        /* \"study/insertSort.sol\":171:268  if (_number == 10){... */\n      tag_46\n      jumpi\n        /* \"study/insertSort.sol\":210:214  true */\n      0x01\n        /* \"study/insertSort.sol\":203:214  return true */\n      swap1\n      pop\n      jump(tag_45)\n        /* \"study/insertSort.sol\":171:268  if (_number == 10){... */\n    tag_46:\n        /* \"study/insertSort.sol\":252:257  false */\n      0x00\n        /* \"study/insertSort.sol\":245:257  return false */\n      swap1\n      pop\n        /* \"study/insertSort.sol\":99:274  function IfElseTest(uint256 _number) public pure returns(bool){... */\n    tag_45:\n      swap2\n      swap1\n      pop\n      jump\t// out\n        /* \"study/insertSort.sol\":489:691  function WhileTest() public pure returns(uint256) {... */\n    tag_27:\n        /* \"study/insertSort.sol\":530:537  uint256 */\n      0x00\n        /* \"study/insertSort.sol\":549:561  uint256 _sum */\n      0x00\n        /* \"study/insertSort.sol\":564:565  0 */\n      0x00\n        /* \"study/insertSort.sol\":549:565  uint256 _sum = 0 */\n      swap1\n      pop\n        /* \"study/insertSort.sol\":575:584  uint256 i */\n      0x00\n        /* \"study/insertSort.sol\":587:588  0 */\n      0x00\n        /* \"study/insertSort.sol\":575:588  uint256 i = 0 */\n      swap1\n      pop\n        /* \"study/insertSort.sol\":598:661  while(i < 10) {... */\n    tag_49:\n        /* \"study/insertSort.sol\":608:610  10 */\n      0x0a\n        /* \"study/insertSort.sol\":604:605  i */\n      dup2\n        /* \"study/insertSort.sol\":604:610  i < 10 */\n      lt\n        /* \"study/insertSort.sol\":598:661  while(i < 10) {... */\n      iszero\n      tag_50\n      jumpi\n        /* \"study/insertSort.sol\":632:633  i */\n      dup1\n        /* \"study/insertSort.sol\":626:633  _sum+=i */\n      dup3\n      tag_51\n      swap2\n      swap1\n      tag_34\n      jump\t// in\n    tag_51:\n      swap2\n      pop\n        /* \"study/insertSort.sol\":647:650  i++ */\n      dup1\n      dup1\n      tag_52\n      swap1\n      tag_44\n      jump\t// in\n    tag_52:\n      swap2\n      pop\n      pop\n        /* \"study/insertSort.sol\":598:661  while(i < 10) {... */\n      jump(tag_49)\n    tag_50:\n        /* \"study/insertSort.sol\":679:683  _sum */\n      dup2\n        /* \"study/insertSort.sol\":671:684  return (_sum) */\n      swap3\n      pop\n      pop\n      pop\n        /* \"study/insertSort.sol\":489:691  function WhileTest() public pure returns(uint256) {... */\n      swap1\n      jump\t// out\n        /* \"#utility.yul\":7:84   */\n    tag_53:\n        /* \"#utility.yul\":44:51   */\n      0x00\n        /* \"#utility.yul\":73:78   */\n      dup2\n        /* \"#utility.yul\":62:78   */\n      swap1\n      pop\n        /* \"#utility.yul\":7:84   */\n      swap2\n      swap1\n      pop\n      jump\t// out\n        /* \"#utility.yul\":90:208   */\n    tag_54:\n        /* \"#utility.yul\":177:201   */\n      tag_66\n        /* \"#utility.yul\":195:200   */\n      dup2\n        /* \"#utility.yul\":177:201   */\n      tag_53\n      jump\t// in\n    tag_66:\n        /* \"#utility.yul\":172:175   */\n      dup3\n        /* \"#utility.yul\":165:202   */\n      mstore\n        /* \"#utility.yul\":90:208   */\n      pop\n      pop\n      jump\t// out\n        /* \"#utility.yul\":214:436   */\n    tag_11:\n        /* \"#utility.yul\":307:311   */\n      0x00\n        /* \"#utility.yul\":345:347   */\n      0x20\n        /* \"#utility.yul\":334:343   */\n      dup3\n        /* \"#utility.yul\":330:348   */\n      add\n        /* \"#utility.yul\":322:348   */\n      swap1\n      pop\n        /* \"#utility.yul\":358:429   */\n      tag_68\n        /* \"#utility.yul\":426:427   */\n      0x00\n        /* \"#utility.yul\":415:424   */\n      dup4\n        /* \"#utility.yul\":411:428   */\n      add\n        /* \"#utility.yul\":402:408   */\n      dup5\n        /* \"#utility.yul\":358:429   */\n      tag_54\n      jump\t// in\n    tag_68:\n        /* \"#utility.yul\":214:436   */\n      swap3\n      swap2\n      pop\n      pop\n      jump\t// out\n        /* \"#utility.yul\":523:640   */\n    tag_56:\n        /* \"#utility.yul\":632:633   */\n      0x00\n        /* \"#utility.yul\":629:630   */\n      0x00\n        /* \"#utility.yul\":622:634   */\n      revert\n        /* \"#utility.yul\":769:891   */\n    tag_58:\n        /* \"#utility.yul\":842:866   */\n      tag_73\n        /* \"#utility.yul\":860:865   */\n      dup2\n        /* \"#utility.yul\":842:866   */\n      tag_53\n      jump\t// in\n    tag_73:\n        /* \"#utility.yul\":835:840   */\n      dup2\n        /* \"#utility.yul\":832:867   */\n      eq\n        /* \"#utility.yul\":822:885   */\n      tag_74\n      jumpi\n        /* \"#utility.yul\":881:882   */\n      0x00\n        /* \"#utility.yul\":878:879   */\n      0x00\n        /* \"#utility.yul\":871:883   */\n      revert\n        /* \"#utility.yul\":822:885   */\n    tag_74:\n        /* \"#utility.yul\":769:891   */\n      pop\n      jump\t// out\n        /* \"#utility.yul\":897:1036   */\n    tag_59:\n        /* \"#utility.yul\":943:948   */\n      0x00\n        /* \"#utility.yul\":981:987   */\n      dup2\n        /* \"#utility.yul\":968:988   */\n      calldataload\n        /* \"#utility.yul\":959:988   */\n      swap1\n      pop\n        /* \"#utility.yul\":997:1030   */\n      tag_76\n        /* \"#utility.yul\":1024:1029   */\n      dup2\n        /* \"#utility.yul\":997:1030   */\n      tag_58\n      jump\t// in\n    tag_76:\n        /* \"#utility.yul\":897:1036   */\n      swap3\n      swap2\n      pop\n      pop\n      jump\t// out\n        /* \"#utility.yul\":1042:1516   */\n    tag_14:\n        /* \"#utility.yul\":1110:1116   */\n      0x00\n        /* \"#utility.yul\":1118:1124   */\n      0x00\n        /* \"#utility.yul\":1167:1169   */\n      0x40\n        /* \"#utility.yul\":1155:1164   */\n      dup4\n        /* \"#utility.yul\":1146:1153   */\n      dup6\n        /* \"#utility.yul\":1142:1165   */\n      sub\n        /* \"#utility.yul\":1138:1170   */\n      slt\n        /* \"#utility.yul\":1135:1254   */\n      iszero\n      tag_78\n      jumpi\n        /* \"#utility.yul\":1173:1252   */\n      tag_79\n      tag_56\n      jump\t// in\n    tag_79:\n        /* \"#utility.yul\":1135:1254   */\n    tag_78:\n        /* \"#utility.yul\":1293:1294   */\n      0x00\n        /* \"#utility.yul\":1318:1371   */\n      tag_80\n        /* \"#utility.yul\":1363:1370   */\n      dup6\n        /* \"#utility.yul\":1354:1360   */\n      dup3\n        /* \"#utility.yul\":1343:1352   */\n      dup7\n        /* \"#utility.yul\":1339:1361   */\n      add\n        /* \"#utility.yul\":1318:1371   */\n      tag_59\n      jump\t// in\n    tag_80:\n        /* \"#utility.yul\":1308:1371   */\n      swap3\n      pop\n        /* \"#utility.yul\":1264:1381   */\n      pop\n        /* \"#utility.yul\":1420:1422   */\n      0x20\n        /* \"#utility.yul\":1446:1499   */\n      tag_81\n        /* \"#utility.yul\":1491:1498   */\n      dup6\n        /* \"#utility.yul\":1482:1488   */\n      dup3\n        /* \"#utility.yul\":1471:1480   */\n      dup7\n        /* \"#utility.yul\":1467:1489   */\n      add\n        /* \"#utility.yul\":1446:1499   */\n      tag_59\n      jump\t// in\n    tag_81:\n        /* \"#utility.yul\":1436:1499   */\n      swap2\n      pop\n        /* \"#utility.yul\":1391:1509   */\n      pop\n        /* \"#utility.yul\":1042:1516   */\n      swap3\n      pop\n      swap3\n      swap1\n      pop\n      jump\t// out\n        /* \"#utility.yul\":1522:1851   */\n    tag_22:\n        /* \"#utility.yul\":1581:1587   */\n      0x00\n        /* \"#utility.yul\":1630:1632   */\n      0x20\n        /* \"#utility.yul\":1618:1627   */\n      dup3\n        /* \"#utility.yul\":1609:1616   */\n      dup5\n        /* \"#utility.yul\":1605:1628   */\n      sub\n        /* \"#utility.yul\":1601:1633   */\n      slt\n        /* \"#utility.yul\":1598:1717   */\n      iszero\n      tag_83\n      jumpi\n        /* \"#utility.yul\":1636:1715   */\n      tag_84\n      tag_56\n      jump\t// in\n    tag_84:\n        /* \"#utility.yul\":1598:1717   */\n    tag_83:\n        /* \"#utility.yul\":1756:1757   */\n      0x00\n        /* \"#utility.yul\":1781:1834   */\n      tag_85\n        /* \"#utility.yul\":1826:1833   */\n      dup5\n        /* \"#utility.yul\":1817:1823   */\n      dup3\n        /* \"#utility.yul\":1806:1815   */\n      dup6\n        /* \"#utility.yul\":1802:1824   */\n      add\n        /* \"#utility.yul\":1781:1834   */\n      tag_59\n      jump\t// in\n    tag_85:\n        /* \"#utility.yul\":1771:1834   */\n      swap2\n      pop\n        /* \"#utility.yul\":1727:1844   */\n      pop\n        /* \"#utility.yul\":1522:1851   */\n      swap3\n      swap2\n      pop\n      pop\n      jump\t// out\n        /* \"#utility.yul\":1857:1947   */\n    tag_60:\n        /* \"#utility.yul\":1891:1898   */\n      0x00\n        /* \"#utility.yul\":1934:1939   */\n      dup2\n        /* \"#utility.yul\":1927:1940   */\n      iszero\n        /* \"#utility.yul\":1920:1941   */\n      iszero\n        /* \"#utility.yul\":1909:1941   */\n      swap1\n      pop\n        /* \"#utility.yul\":1857:1947   */\n      swap2\n      swap1\n      pop\n      jump\t// out\n        /* \"#utility.yul\":1953:2062   */\n    tag_61:\n        /* \"#utility.yul\":2034:2055   */\n      tag_88\n        /* \"#utility.yul\":2049:2054   */\n      dup2\n        /* \"#utility.yul\":2034:2055   */\n      tag_60\n      jump\t// in\n    tag_88:\n        /* \"#utility.yul\":2029:2032   */\n      dup3\n        /* \"#utility.yul\":2022:2056   */\n      mstore\n        /* \"#utility.yul\":1953:2062   */\n      pop\n      pop\n      jump\t// out\n        /* \"#utility.yul\":2068:2278   */\n    tag_25:\n        /* \"#utility.yul\":2155:2159   */\n      0x00\n        /* \"#utility.yul\":2193:2195   */\n      0x20\n        /* \"#utility.yul\":2182:2191   */\n      dup3\n        /* \"#utility.yul\":2178:2196   */\n      add\n        /* \"#utility.yul\":2170:2196   */\n      swap1\n      pop\n        /* \"#utility.yul\":2206:2271   */\n      tag_90\n        /* \"#utility.yul\":2268:2269   */\n      0x00\n        /* \"#utility.yul\":2257:2266   */\n      dup4\n        /* \"#utility.yul\":2253:2270   */\n      add\n        /* \"#utility.yul\":2244:2250   */\n      dup5\n        /* \"#utility.yul\":2206:2271   */\n      tag_61\n      jump\t// in\n    tag_90:\n        /* \"#utility.yul\":2068:2278   */\n      swap3\n      swap2\n      pop\n      pop\n      jump\t// out\n        /* \"#utility.yul\":2284:2464   */\n    tag_62:\n        /* \"#utility.yul\":2332:2409   */\n      0x4e487b7100000000000000000000000000000000000000000000000000000000\n        /* \"#utility.yul\":2329:2330   */\n      0x00\n        /* \"#utility.yul\":2322:2410   */\n      mstore\n        /* \"#utility.yul\":2429:2433   */\n      0x11\n        /* \"#utility.yul\":2426:2427   */\n      0x04\n        /* \"#utility.yul\":2419:2434   */\n      mstore\n        /* \"#utility.yul\":2453:2457   */\n      0x24\n        /* \"#utility.yul\":2450:2451   */\n      0x00\n        /* \"#utility.yul\":2443:2458   */\n      revert\n        /* \"#utility.yul\":2470:2661   */\n    tag_34:\n        /* \"#utility.yul\":2510:2513   */\n      0x00\n        /* \"#utility.yul\":2529:2549   */\n      tag_93\n        /* \"#utility.yul\":2547:2548   */\n      dup3\n        /* \"#utility.yul\":2529:2549   */\n      tag_53\n      jump\t// in\n    tag_93:\n        /* \"#utility.yul\":2524:2549   */\n      swap2\n      pop\n        /* \"#utility.yul\":2563:2583   */\n      tag_94\n        /* \"#utility.yul\":2581:2582   */\n      dup4\n        /* \"#utility.yul\":2563:2583   */\n      tag_53\n      jump\t// in\n    tag_94:\n        /* \"#utility.yul\":2558:2583   */\n      swap3\n      pop\n        /* \"#utility.yul\":2606:2607   */\n      dup3\n        /* \"#utility.yul\":2603:2604   */\n      dup3\n        /* \"#utility.yul\":2599:2608   */\n      add\n        /* \"#utility.yul\":2592:2608   */\n      swap1\n      pop\n        /* \"#utility.yul\":2627:2630   */\n      dup1\n        /* \"#utility.yul\":2624:2625   */\n      dup3\n        /* \"#utility.yul\":2621:2631   */\n      gt\n        /* \"#utility.yul\":2618:2654   */\n      iszero\n      tag_95\n      jumpi\n        /* \"#utility.yul\":2634:2652   */\n      tag_96\n      tag_62\n      jump\t// in\n    tag_96:\n        /* \"#utility.yul\":2618:2654   */\n    tag_95:\n        /* \"#utility.yul\":2470:2661   */\n      swap3\n      swap2\n      pop\n      pop\n      jump\t// out\n        /* \"#utility.yul\":2667:2900   */\n    tag_44:\n        /* \"#utility.yul\":2706:2709   */\n      0x00\n        /* \"#utility.yul\":2729:2753   */\n      tag_98\n        /* \"#utility.yul\":2747:2752   */\n      dup3\n        /* \"#utility.yul\":2729:2753   */\n      tag_53\n      jump\t// in\n    tag_98:\n        /* \"#utility.yul\":2720:2753   */\n      swap2\n      pop\n        /* \"#utility.yul\":2775:2841   */\n      0xffffffffffffffffffffffffffffffffffffffffffffffffffffffffffffffff\n        /* \"#utility.yul\":2768:2773   */\n      dup3\n        /* \"#utility.yul\":2765:2842   */\n      sub\n        /* \"#utility.yul\":2762:2865   */\n      tag_99\n      jumpi\n        /* \"#utility.yul\":2845:2863   */\n      tag_100\n      tag_62\n      jump\t// in\n    tag_100:\n        /* \"#utility.yul\":2762:2865   */\n    tag_99:\n        /* \"#utility.yul\":2892:2893   */\n      0x01\n        /* \"#utility.yul\":2885:2890   */\n      dup3\n        /* \"#utility.yul\":2881:2894   */\n      add\n        /* \"#utility.yul\":2874:2894   */\n      swap1\n      pop\n        /* \"#utility.yul\":2667:2900   */\n      swap2\n      swap1\n      pop\n      jump\t// out\n\n    auxdata: 0xa2646970667358221220704a24b90c2d6da31afbc555ef668a8b6d4d79fc39d45f4352ef8ab5e35edb0864736f6c634300081e0033\n}\n",
				"bytecode": {
					"linkReferences": {},
					"object": "6080604052348015600e575f5ffd5b506103c78061001c5f395ff3fe608060405234801561000f575f5ffd5b5060043610610055575f3560e01c8063013dbfcb1461005957806328766320146100775780632bbacaaa146100a757806341995845146100c5578063446fada3146100f5575b5f5ffd5b610061610113565b60405161006e9190610207565b60405180910390f35b610091600480360381019061008c919061024e565b610149565b60405161009e9190610207565b60405180910390f35b6100af610162565b6040516100bc9190610207565b60405180910390f35b6100df60048036038101906100da919061028c565b610198565b6040516100ec91906102d1565b60405180910390f35b6100fd6101b3565b60405161010a9190610207565b60405180910390f35b5f5f5f90505f5f90505b600a8110156101415780826101329190610317565b9150808060010191505061011d565b508091505090565b5f81831015610158578161015a565b825b905092915050565b5f5f5f90505f5f90505b80826101789190610317565b915080806101859061034a565b915050600a811061016c57819250505090565b5f600a82036101aa57600190506101ae565b5f90505b919050565b5f5f5f90505f5f90505b600a8110156101e75780826101d29190610317565b915080806101df9061034a565b9150506101bd565b819250505090565b5f819050919050565b610201816101ef565b82525050565b5f60208201905061021a5f8301846101f8565b92915050565b5f5ffd5b61022d816101ef565b8114610237575f5ffd5b50565b5f8135905061024881610224565b92915050565b5f5f6040838503121561026457610263610220565b5b5f6102718582860161023a565b92505060206102828582860161023a565b9150509250929050565b5f602082840312156102a1576102a0610220565b5b5f6102ae8482850161023a565b91505092915050565b5f8115159050919050565b6102cb816102b7565b82525050565b5f6020820190506102e45f8301846102c2565b92915050565b7f4e487b71000000000000000000000000000000000000000000000000000000005f52601160045260245ffd5b5f610321826101ef565b915061032c836101ef565b9250828201905080821115610344576103436102ea565b5b92915050565b5f610354826101ef565b91507fffffffffffffffffffffffffffffffffffffffffffffffffffffffffffffffff8203610386576103856102ea565b5b60018201905091905056fea2646970667358221220704a24b90c2d6da31afbc555ef668a8b6d4d79fc39d45f4352ef8ab5e35edb0864736f6c634300081e0033",
					"opcodes": "PUSH1 0x80 PUSH1 0x40 MSTORE CALLVALUE DUP1 ISZERO PUSH1 0xE JUMPI PUSH0 PUSH0 REVERT JUMPDEST POP PUSH2 0x3C7 DUP1 PUSH2 0x1C PUSH0 CODECOPY PUSH0 RETURN INVALID PUSH1 0x80 PUSH1 0x40 MSTORE CALLVALUE DUP1 ISZERO PUSH2 0xF JUMPI PUSH0 PUSH0 REVERT JUMPDEST POP PUSH1 0x4 CALLDATASIZE LT PUSH2 0x55 JUMPI PUSH0 CALLDATALOAD PUSH1 0xE0 SHR DUP1 PUSH4 0x13DBFCB EQ PUSH2 0x59 JUMPI DUP1 PUSH4 0x28766320 EQ PUSH2 0x77 JUMPI DUP1 PUSH4 0x2BBACAAA EQ PUSH2 0xA7 JUMPI DUP1 PUSH4 0x41995845 EQ PUSH2 0xC5 JUMPI DUP1 PUSH4 0x446FADA3 EQ PUSH2 0xF5 JUMPI JUMPDEST PUSH0 PUSH0 REVERT JUMPDEST PUSH2 0x61 PUSH2 0x113 JUMP JUMPDEST PUSH1 0x40 MLOAD PUSH2 0x6E SWAP2 SWAP1 PUSH2 0x207 JUMP JUMPDEST PUSH1 0x40 MLOAD DUP1 SWAP2 SUB SWAP1 RETURN JUMPDEST PUSH2 0x91 PUSH1 0x4 DUP1 CALLDATASIZE SUB DUP2 ADD SWAP1 PUSH2 0x8C SWAP2 SWAP1 PUSH2 0x24E JUMP JUMPDEST PUSH2 0x149 JUMP JUMPDEST PUSH1 0x40 MLOAD PUSH2 0x9E SWAP2 SWAP1 PUSH2 0x207 JUMP JUMPDEST PUSH1 0x40 MLOAD DUP1 SWAP2 SUB SWAP1 RETURN JUMPDEST PUSH2 0xAF PUSH2 0x162 JUMP JUMPDEST PUSH1 0x40 MLOAD PUSH2 0xBC SWAP2 SWAP1 PUSH2 0x207 JUMP JUMPDEST PUSH1 0x40 MLOAD DUP1 SWAP2 SUB SWAP1 RETURN JUMPDEST PUSH2 0xDF PUSH1 0x4 DUP1 CALLDATASIZE SUB DUP2 ADD SWAP1 PUSH2 0xDA SWAP2 SWAP1 PUSH2 0x28C JUMP JUMPDEST PUSH2 0x198 JUMP JUMPDEST PUSH1 0x40 MLOAD PUSH2 0xEC SWAP2 SWAP1 PUSH2 0x2D1 JUMP JUMPDEST PUSH1 0x40 MLOAD DUP1 SWAP2 SUB SWAP1 RETURN JUMPDEST PUSH2 0xFD PUSH2 0x1B3 JUMP JUMPDEST PUSH1 0x40 MLOAD PUSH2 0x10A SWAP2 SWAP1 PUSH2 0x207 JUMP JUMPDEST PUSH1 0x40 MLOAD DUP1 SWAP2 SUB SWAP1 RETURN JUMPDEST PUSH0 PUSH0 PUSH0 SWAP1 POP PUSH0 PUSH0 SWAP1 POP JUMPDEST PUSH1 0xA DUP2 LT ISZERO PUSH2 0x141 JUMPI DUP1 DUP3 PUSH2 0x132 SWAP2 SWAP1 PUSH2 0x317 JUMP JUMPDEST SWAP2 POP DUP1 DUP1 PUSH1 0x1 ADD SWAP2 POP POP PUSH2 0x11D JUMP JUMPDEST POP DUP1 SWAP2 POP POP SWAP1 JUMP JUMPDEST PUSH0 DUP2 DUP4 LT ISZERO PUSH2 0x158 JUMPI DUP2 PUSH2 0x15A JUMP JUMPDEST DUP3 JUMPDEST SWAP1 POP SWAP3 SWAP2 POP POP JUMP JUMPDEST PUSH0 PUSH0 PUSH0 SWAP1 POP PUSH0 PUSH0 SWAP1 POP JUMPDEST DUP1 DUP3 PUSH2 0x178 SWAP2 SWAP1 PUSH2 0x317 JUMP JUMPDEST SWAP2 POP DUP1 DUP1 PUSH2 0x185 SWAP1 PUSH2 0x34A JUMP JUMPDEST SWAP2 POP POP PUSH1 0xA DUP2 LT PUSH2 0x16C JUMPI DUP2 SWAP3 POP POP POP SWAP1 JUMP JUMPDEST PUSH0 PUSH1 0xA DUP3 SUB PUSH2 0x1AA JUMPI PUSH1 0x1 SWAP1 POP PUSH2 0x1AE JUMP JUMPDEST PUSH0 SWAP1 POP JUMPDEST SWAP2 SWAP1 POP JUMP JUMPDEST PUSH0 PUSH0 PUSH0 SWAP1 POP PUSH0 PUSH0 SWAP1 POP JUMPDEST PUSH1 0xA DUP2 LT ISZERO PUSH2 0x1E7 JUMPI DUP1 DUP3 PUSH2 0x1D2 SWAP2 SWAP1 PUSH2 0x317 JUMP JUMPDEST SWAP2 POP DUP1 DUP1 PUSH2 0x1DF SWAP1 PUSH2 0x34A JUMP JUMPDEST SWAP2 POP POP PUSH2 0x1BD JUMP JUMPDEST DUP2 SWAP3 POP POP POP SWAP1 JUMP JUMPDEST PUSH0 DUP2 SWAP1 POP SWAP2 SWAP1 POP JUMP JUMPDEST PUSH2 0x201 DUP2 PUSH2 0x1EF JUMP JUMPDEST DUP3 MSTORE POP POP JUMP JUMPDEST PUSH0 PUSH1 0x20 DUP3 ADD SWAP1 POP PUSH2 0x21A PUSH0 DUP4 ADD DUP5 PUSH2 0x1F8 JUMP JUMPDEST SWAP3 SWAP2 POP POP JUMP JUMPDEST PUSH0 PUSH0 REVERT JUMPDEST PUSH2 0x22D DUP2 PUSH2 0x1EF JUMP JUMPDEST DUP2 EQ PUSH2 0x237 JUMPI PUSH0 PUSH0 REVERT JUMPDEST POP JUMP JUMPDEST PUSH0 DUP2 CALLDATALOAD SWAP1 POP PUSH2 0x248 DUP2 PUSH2 0x224 JUMP JUMPDEST SWAP3 SWAP2 POP POP JUMP JUMPDEST PUSH0 PUSH0 PUSH1 0x40 DUP4 DUP6 SUB SLT ISZERO PUSH2 0x264 JUMPI PUSH2 0x263 PUSH2 0x220 JUMP JUMPDEST JUMPDEST PUSH0 PUSH2 0x271 DUP6 DUP3 DUP7 ADD PUSH2 0x23A JUMP JUMPDEST SWAP3 POP POP PUSH1 0x20 PUSH2 0x282 DUP6 DUP3 DUP7 ADD PUSH2 0x23A JUMP JUMPDEST SWAP2 POP POP SWAP3 POP SWAP3 SWAP1 POP JUMP JUMPDEST PUSH0 PUSH1 0x20 DUP3 DUP5 SUB SLT ISZERO PUSH2 0x2A1 JUMPI PUSH2 0x2A0 PUSH2 0x220 JUMP JUMPDEST JUMPDEST PUSH0 PUSH2 0x2AE DUP5 DUP3 DUP6 ADD PUSH2 0x23A JUMP JUMPDEST SWAP2 POP POP SWAP3 SWAP2 POP POP JUMP JUMPDEST PUSH0 DUP2 ISZERO ISZERO SWAP1 POP SWAP2 SWAP1 POP JUMP JUMPDEST PUSH2 0x2CB DUP2 PUSH2 0x2B7 JUMP JUMPDEST DUP3 MSTORE POP POP JUMP JUMPDEST PUSH0 PUSH1 0x20 DUP3 ADD SWAP1 POP PUSH2 0x2E4 PUSH0 DUP4 ADD DUP5 PUSH2 0x2C2 JUMP JUMPDEST SWAP3 SWAP2 POP POP JUMP JUMPDEST PUSH32 0x4E487B7100000000000000000000000000000000000000000000000000000000 PUSH0 MSTORE PUSH1 0x11 PUSH1 0x4 MSTORE PUSH1 0x24 PUSH0 REVERT JUMPDEST PUSH0 PUSH2 0x321 DUP3 PUSH2 0x1EF JUMP JUMPDEST SWAP2 POP PUSH2 0x32C DUP4 PUSH2 0x1EF JUMP JUMPDEST SWAP3 POP DUP3 DUP3 ADD SWAP1 POP DUP1 DUP3 GT ISZERO PUSH2 0x344 JUMPI PUSH2 0x343 PUSH2 0x2EA JUMP JUMPDEST JUMPDEST SWAP3 SWAP2 POP POP JUMP JUMPDEST PUSH0 PUSH2 0x354 DUP3 PUSH2 0x1EF JUMP JUMPDEST SWAP2 POP PUSH32 0xFFFFFFFFFFFFFFFFFFFFFFFFFFFFFFFFFFFFFFFFFFFFFFFFFFFFFFFFFFFFFFFF DUP3 SUB PUSH2 0x386 JUMPI PUSH2 0x385 PUSH2 0x2EA JUMP JUMPDEST JUMPDEST PUSH1 0x1 DUP3 ADD SWAP1 POP SWAP2 SWAP1 POP JUMP INVALID LOG2 PUSH5 0x6970667358 0x22 SLT KECCAK256 PUSH17 0x4A24B90C2D6DA31AFBC555EF668A8B6D4D PUSH26 0xFC39D45F4352EF8AB5E35EDB0864736F6C634300081E00330000 "
				},
				"gasEstimates": {
					"creation": {
						"codeDepositCost": "193400",
						"executionCost": "236",
						"totalCost": "193636"
					},
					"external": {
						"FoorLoopTest()": "infinite",
						"IfElseTest(uint256)": "677",
						"WhileTest()": "infinite",
						"doWhileTest()": "infinite",
						"ternaryTest(uint256,uint256)": "infinite"
					}
				},
				"methodIdentifiers": {
					"FoorLoopTest()": "013dbfcb",
					"IfElseTest(uint256)": "41995845",
					"WhileTest()": "446fada3",
					"doWhileTest()": "2bbacaaa",
					"ternaryTest(uint256,uint256)": "28766320"
				}
			},
			"storageLayout": {
				"storage": [],
				"types": null
			},
			"userdoc": {
				"kind": "user",
				"methods": {},
				"version": 1
			}
		}
	}
}