{
	"function.sol": {
		"FunctionTypes": {
			"abi": [
				{
					"inputs": [],
					"name": "add",
					"outputs": [],
					"stateMutability": "nonpayable",
					"type": "function"
				},
				{
					"inputs": [
						{
							"internalType": "uint256",
							"name": "_number",
							"type": "uint256"
						}
					],
					"name": "addPure",
					"outputs": [
						{
							"internalType": "uint256",
							"name": "new_number",
							"type": "uint256"
						}
					],
					"stateMutability": "pure",
					"type": "function"
				},
				{
					"inputs": [],
					"name": "addView",
					"outputs": [
						{
							"internalType": "uint256",
							"name": "new_number",
							"type": "uint256"
						}
					],
					"stateMutability": "view",
					"type": "function"
				},
				{
					"inputs": [],
					"name": "minusCall",
					"outputs": [],
					"stateMutability": "nonpayable",
					"type": "function"
				},
				{
					"inputs": [],
					"name": "minusPayable",
					"outputs": [
						{
							"internalType": "uint256",
							"name": "balance",
							"type": "uint256"
						}
					],
					"stateMutability": "payable",
					"type": "function"
				},
				{
					"inputs": [],
					"name": "number",
					"outputs": [
						{
							"internalType": "uint256",
							"name": "",
							"type": "uint256"
						}
					],
					"stateMutability": "view",
					"type": "function"
				}
			],
			"devdoc": {
				"kind": "dev",
				"methods": {},
				"version": 1
			},
			"evm": {
				"assembly": "    /* \"function.sol\":58:839  contract FunctionTypes {... */\n  mstore(0x40, 0x80)\n    /* \"function.sol\":111:112  5 */\n  0x05\n    /* \"function.sol\":87:112  uint256 public number = 5 */\n  0x00\n  sstore\n    /* \"function.sol\":58:839  contract FunctionTypes {... */\n  callvalue\n  dup1\n  iszero\n  tag_1\n  jumpi\n  revert(0x00, 0x00)\ntag_1:\n  pop\n  dataSize(sub_0)\n  dup1\n  dataOffset(sub_0)\n  0x00\n  codecopy\n  0x00\n  return\nstop\n\nsub_0: assembly {\n        /* \"function.sol\":58:839  contract FunctionTypes {... */\n      mstore(0x40, 0x80)\n      jumpi(tag_1, lt(calldatasize, 0x04))\n      shr(0xe0, calldataload(0x00))\n      dup1\n      0x303810a6\n      eq\n      tag_2\n      jumpi\n      dup1\n      0x4f2be91f\n      eq\n      tag_3\n      jumpi\n      dup1\n      0x7032c4f2\n      eq\n      tag_4\n      jumpi\n      dup1\n      0x80b4ea08\n      eq\n      tag_5\n      jumpi\n      dup1\n      0x8381f58a\n      eq\n      tag_6\n      jumpi\n      dup1\n      0xb262eb7f\n      eq\n      tag_7\n      jumpi\n    tag_1:\n      revert(0x00, 0x00)\n        /* \"function.sol\":706:837  function minusPayable() external payable returns (uint256 balance){... */\n    tag_2:\n      tag_8\n      tag_9\n      jump\t// in\n    tag_8:\n      mload(0x40)\n      tag_10\n      swap2\n      swap1\n      tag_11\n      jump\t// in\n    tag_10:\n      mload(0x40)\n      dup1\n      swap2\n      sub\n      swap1\n      return\n        /* \"function.sol\":119:179  function add() external {... */\n    tag_3:\n      callvalue\n      dup1\n      iszero\n      tag_12\n      jumpi\n      revert(0x00, 0x00)\n    tag_12:\n      pop\n      tag_13\n      tag_14\n      jump\t// in\n    tag_13:\n      stop\n        /* \"function.sol\":197:314  function addPure(uint256 _number) external pure returns(uint256 new_number) {... */\n    tag_4:\n      callvalue\n      dup1\n      iszero\n      tag_15\n      jumpi\n      revert(0x00, 0x00)\n    tag_15:\n      pop\n      tag_16\n      0x04\n      dup1\n      calldatasize\n      sub\n      dup2\n      add\n      swap1\n      tag_17\n      swap2\n      swap1\n      tag_18\n      jump\t// in\n    tag_17:\n      tag_19\n      jump\t// in\n    tag_16:\n      mload(0x40)\n      tag_20\n      swap2\n      swap1\n      tag_11\n      jump\t// in\n    tag_20:\n      mload(0x40)\n      dup1\n      swap2\n      sub\n      swap1\n      return\n        /* \"function.sol\":589:644  function minusCall() external  {... */\n    tag_5:\n      callvalue\n      dup1\n      iszero\n      tag_21\n      jumpi\n      revert(0x00, 0x00)\n    tag_21:\n      pop\n      tag_22\n      tag_23\n      jump\t// in\n    tag_22:\n      stop\n        /* \"function.sol\":87:112  uint256 public number = 5 */\n    tag_6:\n      callvalue\n      dup1\n      iszero\n      tag_24\n      jumpi\n      revert(0x00, 0x00)\n    tag_24:\n      pop\n      tag_25\n      tag_26\n      jump\t// in\n    tag_25:\n      mload(0x40)\n      tag_27\n      swap2\n      swap1\n      tag_11\n      jump\t// in\n    tag_27:\n      mload(0x40)\n      dup1\n      swap2\n      sub\n      swap1\n      return\n        /* \"function.sol\":332:433  function addView() external view returns(uint256 new_number) {... */\n    tag_7:\n      callvalue\n      dup1\n      iszero\n      tag_28\n      jumpi\n      revert(0x00, 0x00)\n    tag_28:\n      pop\n      tag_29\n      tag_30\n      jump\t// in\n    tag_29:\n      mload(0x40)\n      tag_31\n      swap2\n      swap1\n      tag_11\n      jump\t// in\n    tag_31:\n      mload(0x40)\n      dup1\n      swap2\n      sub\n      swap1\n      return\n        /* \"function.sol\":706:837  function minusPayable() external payable returns (uint256 balance){... */\n    tag_9:\n        /* \"function.sol\":756:771  uint256 balance */\n      0x00\n        /* \"function.sol\":782:789  minus() */\n      tag_33\n        /* \"function.sol\":782:787  minus */\n      tag_34\n        /* \"function.sol\":782:789  minus() */\n      jump\t// in\n    tag_33:\n        /* \"function.sol\":809:830  address(this).balance */\n      selfbalance\n        /* \"function.sol\":799:830  balance = address(this).balance */\n      swap1\n      pop\n        /* \"function.sol\":706:837  function minusPayable() external payable returns (uint256 balance){... */\n      swap1\n      jump\t// out\n        /* \"function.sol\":119:179  function add() external {... */\n    tag_14:\n        /* \"function.sol\":171:172  1 */\n      0x01\n        /* \"function.sol\":162:168  number */\n      sload(0x00)\n        /* \"function.sol\":162:172  number + 1 */\n      tag_36\n      swap2\n      swap1\n      tag_37\n      jump\t// in\n    tag_36:\n        /* \"function.sol\":153:159  number */\n      0x00\n        /* \"function.sol\":153:172  number = number + 1 */\n      dup2\n      swap1\n      sstore\n      pop\n        /* \"function.sol\":119:179  function add() external {... */\n      jump\t// out\n        /* \"function.sol\":197:314  function addPure(uint256 _number) external pure returns(uint256 new_number) {... */\n    tag_19:\n        /* \"function.sol\":253:271  uint256 new_number */\n      0x00\n        /* \"function.sol\":306:307  1 */\n      0x01\n        /* \"function.sol\":296:303  _number */\n      dup3\n        /* \"function.sol\":296:307  _number + 1 */\n      tag_39\n      swap2\n      swap1\n      tag_37\n      jump\t// in\n    tag_39:\n        /* \"function.sol\":283:307  new_number = _number + 1 */\n      swap1\n      pop\n        /* \"function.sol\":197:314  function addPure(uint256 _number) external pure returns(uint256 new_number) {... */\n      swap2\n      swap1\n      pop\n      jump\t// out\n        /* \"function.sol\":589:644  function minusCall() external  {... */\n    tag_23:\n        /* \"function.sol\":630:637  minus() */\n      tag_41\n        /* \"function.sol\":630:635  minus */\n      tag_34\n        /* \"function.sol\":630:637  minus() */\n      jump\t// in\n    tag_41:\n        /* \"function.sol\":589:644  function minusCall() external  {... */\n      jump\t// out\n        /* \"function.sol\":87:112  uint256 public number = 5 */\n    tag_26:\n      sload(0x00)\n      dup2\n      jump\t// out\n        /* \"function.sol\":332:433  function addView() external view returns(uint256 new_number) {... */\n    tag_30:\n        /* \"function.sol\":373:391  uint256 new_number */\n      0x00\n        /* \"function.sol\":425:426  1 */\n      0x01\n        /* \"function.sol\":416:422  number */\n      sload(0x00)\n        /* \"function.sol\":416:426  number + 1 */\n      tag_43\n      swap2\n      swap1\n      tag_37\n      jump\t// in\n    tag_43:\n        /* \"function.sol\":403:426  new_number = number + 1 */\n      swap1\n      pop\n        /* \"function.sol\":332:433  function addView() external view returns(uint256 new_number) {... */\n      swap1\n      jump\t// out\n        /* \"function.sol\":455:517  function minus() internal {... */\n    tag_34:\n        /* \"function.sol\":509:510  1 */\n      0x01\n        /* \"function.sol\":500:506  number */\n      sload(0x00)\n        /* \"function.sol\":500:510  number - 1 */\n      tag_45\n      swap2\n      swap1\n      tag_46\n      jump\t// in\n    tag_45:\n        /* \"function.sol\":491:497  number */\n      0x00\n        /* \"function.sol\":491:510  number = number - 1 */\n      dup2\n      swap1\n      sstore\n      pop\n        /* \"function.sol\":455:517  function minus() internal {... */\n      jump\t// out\n        /* \"#utility.yul\":7:84   */\n    tag_47:\n        /* \"#utility.yul\":44:51   */\n      0x00\n        /* \"#utility.yul\":73:78   */\n      dup2\n        /* \"#utility.yul\":62:78   */\n      swap1\n      pop\n        /* \"#utility.yul\":7:84   */\n      swap2\n      swap1\n      pop\n      jump\t// out\n        /* \"#utility.yul\":90:208   */\n    tag_48:\n        /* \"#utility.yul\":177:201   */\n      tag_58\n        /* \"#utility.yul\":195:200   */\n      dup2\n        /* \"#utility.yul\":177:201   */\n      tag_47\n      jump\t// in\n    tag_58:\n        /* \"#utility.yul\":172:175   */\n      dup3\n        /* \"#utility.yul\":165:202   */\n      mstore\n        /* \"#utility.yul\":90:208   */\n      pop\n      pop\n      jump\t// out\n        /* \"#utility.yul\":214:436   */\n    tag_11:\n        /* \"#utility.yul\":307:311   */\n      0x00\n        /* \"#utility.yul\":345:347   */\n      0x20\n        /* \"#utility.yul\":334:343   */\n      dup3\n        /* \"#utility.yul\":330:348   */\n      add\n        /* \"#utility.yul\":322:348   */\n      swap1\n      pop\n        /* \"#utility.yul\":358:429   */\n      tag_60\n        /* \"#utility.yul\":426:427   */\n      0x00\n        /* \"#utility.yul\":415:424   */\n      dup4\n        /* \"#utility.yul\":411:428   */\n      add\n        /* \"#utility.yul\":402:408   */\n      dup5\n        /* \"#utility.yul\":358:429   */\n      tag_48\n      jump\t// in\n    tag_60:\n        /* \"#utility.yul\":214:436   */\n      swap3\n      swap2\n      pop\n      pop\n      jump\t// out\n        /* \"#utility.yul\":523:640   */\n    tag_50:\n        /* \"#utility.yul\":632:633   */\n      0x00\n        /* \"#utility.yul\":629:630   */\n      0x00\n        /* \"#utility.yul\":622:634   */\n      revert\n        /* \"#utility.yul\":769:891   */\n    tag_52:\n        /* \"#utility.yul\":842:866   */\n      tag_65\n        /* \"#utility.yul\":860:865   */\n      dup2\n        /* \"#utility.yul\":842:866   */\n      tag_47\n      jump\t// in\n    tag_65:\n        /* \"#utility.yul\":835:840   */\n      dup2\n        /* \"#utility.yul\":832:867   */\n      eq\n        /* \"#utility.yul\":822:885   */\n      tag_66\n      jumpi\n        /* \"#utility.yul\":881:882   */\n      0x00\n        /* \"#utility.yul\":878:879   */\n      0x00\n        /* \"#utility.yul\":871:883   */\n      revert\n        /* \"#utility.yul\":822:885   */\n    tag_66:\n        /* \"#utility.yul\":769:891   */\n      pop\n      jump\t// out\n        /* \"#utility.yul\":897:1036   */\n    tag_53:\n        /* \"#utility.yul\":943:948   */\n      0x00\n        /* \"#utility.yul\":981:987   */\n      dup2\n        /* \"#utility.yul\":968:988   */\n      calldataload\n        /* \"#utility.yul\":959:988   */\n      swap1\n      pop\n        /* \"#utility.yul\":997:1030   */\n      tag_68\n        /* \"#utility.yul\":1024:1029   */\n      dup2\n        /* \"#utility.yul\":997:1030   */\n      tag_52\n      jump\t// in\n    tag_68:\n        /* \"#utility.yul\":897:1036   */\n      swap3\n      swap2\n      pop\n      pop\n      jump\t// out\n        /* \"#utility.yul\":1042:1371   */\n    tag_18:\n        /* \"#utility.yul\":1101:1107   */\n      0x00\n        /* \"#utility.yul\":1150:1152   */\n      0x20\n        /* \"#utility.yul\":1138:1147   */\n      dup3\n        /* \"#utility.yul\":1129:1136   */\n      dup5\n        /* \"#utility.yul\":1125:1148   */\n      sub\n        /* \"#utility.yul\":1121:1153   */\n      slt\n        /* \"#utility.yul\":1118:1237   */\n      iszero\n      tag_70\n      jumpi\n        /* \"#utility.yul\":1156:1235   */\n      tag_71\n      tag_50\n      jump\t// in\n    tag_71:\n        /* \"#utility.yul\":1118:1237   */\n    tag_70:\n        /* \"#utility.yul\":1276:1277   */\n      0x00\n        /* \"#utility.yul\":1301:1354   */\n      tag_72\n        /* \"#utility.yul\":1346:1353   */\n      dup5\n        /* \"#utility.yul\":1337:1343   */\n      dup3\n        /* \"#utility.yul\":1326:1335   */\n      dup6\n        /* \"#utility.yul\":1322:1344   */\n      add\n        /* \"#utility.yul\":1301:1354   */\n      tag_53\n      jump\t// in\n    tag_72:\n        /* \"#utility.yul\":1291:1354   */\n      swap2\n      pop\n        /* \"#utility.yul\":1247:1364   */\n      pop\n        /* \"#utility.yul\":1042:1371   */\n      swap3\n      swap2\n      pop\n      pop\n      jump\t// out\n        /* \"#utility.yul\":1377:1557   */\n    tag_54:\n        /* \"#utility.yul\":1425:1502   */\n      0x4e487b7100000000000000000000000000000000000000000000000000000000\n        /* \"#utility.yul\":1422:1423   */\n      0x00\n        /* \"#utility.yul\":1415:1503   */\n      mstore\n        /* \"#utility.yul\":1522:1526   */\n      0x11\n        /* \"#utility.yul\":1519:1520   */\n      0x04\n        /* \"#utility.yul\":1512:1527   */\n      mstore\n        /* \"#utility.yul\":1546:1550   */\n      0x24\n        /* \"#utility.yul\":1543:1544   */\n      0x00\n        /* \"#utility.yul\":1536:1551   */\n      revert\n        /* \"#utility.yul\":1563:1754   */\n    tag_37:\n        /* \"#utility.yul\":1603:1606   */\n      0x00\n        /* \"#utility.yul\":1622:1642   */\n      tag_75\n        /* \"#utility.yul\":1640:1641   */\n      dup3\n        /* \"#utility.yul\":1622:1642   */\n      tag_47\n      jump\t// in\n    tag_75:\n        /* \"#utility.yul\":1617:1642   */\n      swap2\n      pop\n        /* \"#utility.yul\":1656:1676   */\n      tag_76\n        /* \"#utility.yul\":1674:1675   */\n      dup4\n        /* \"#utility.yul\":1656:1676   */\n      tag_47\n      jump\t// in\n    tag_76:\n        /* \"#utility.yul\":1651:1676   */\n      swap3\n      pop\n        /* \"#utility.yul\":1699:1700   */\n      dup3\n        /* \"#utility.yul\":1696:1697   */\n      dup3\n        /* \"#utility.yul\":1692:1701   */\n      add\n        /* \"#utility.yul\":1685:1701   */\n      swap1\n      pop\n        /* \"#utility.yul\":1720:1723   */\n      dup1\n        /* \"#utility.yul\":1717:1718   */\n      dup3\n        /* \"#utility.yul\":1714:1724   */\n      gt\n        /* \"#utility.yul\":1711:1747   */\n      iszero\n      tag_77\n      jumpi\n        /* \"#utility.yul\":1727:1745   */\n      tag_78\n      tag_54\n      jump\t// in\n    tag_78:\n        /* \"#utility.yul\":1711:1747   */\n    tag_77:\n        /* \"#utility.yul\":1563:1754   */\n      swap3\n      swap2\n      pop\n      pop\n      jump\t// out\n        /* \"#utility.yul\":1760:1954   */\n    tag_46:\n        /* \"#utility.yul\":1800:1804   */\n      0x00\n        /* \"#utility.yul\":1820:1840   */\n      tag_80\n        /* \"#utility.yul\":1838:1839   */\n      dup3\n        /* \"#utility.yul\":1820:1840   */\n      tag_47\n      jump\t// in\n    tag_80:\n        /* \"#utility.yul\":1815:1840   */\n      swap2\n      pop\n        /* \"#utility.yul\":1854:1874   */\n      tag_81\n        /* \"#utility.yul\":1872:1873   */\n      dup4\n        /* \"#utility.yul\":1854:1874   */\n      tag_47\n      jump\t// in\n    tag_81:\n        /* \"#utility.yul\":1849:1874   */\n      swap3\n      pop\n        /* \"#utility.yul\":1898:1899   */\n      dup3\n        /* \"#utility.yul\":1895:1896   */\n      dup3\n        /* \"#utility.yul\":1891:1900   */\n      sub\n        /* \"#utility.yul\":1883:1900   */\n      swap1\n      pop\n        /* \"#utility.yul\":1922:1923   */\n      dup2\n        /* \"#utility.yul\":1916:1920   */\n      dup2\n        /* \"#utility.yul\":1913:1924   */\n      gt\n        /* \"#utility.yul\":1910:1947   */\n      iszero\n      tag_82\n      jumpi\n        /* \"#utility.yul\":1927:1945   */\n      tag_83\n      tag_54\n      jump\t// in\n    tag_83:\n        /* \"#utility.yul\":1910:1947   */\n    tag_82:\n        /* \"#utility.yul\":1760:1954   */\n      swap3\n      swap2\n      pop\n      pop\n      jump\t// out\n\n    auxdata: 0xa26469706673582212202b9df9fad2eb9eca3d488d51817256494679d0f4be8db6f4803c5c06197996e964736f6c634300081e0033\n}\n",
				"bytecode": {
					"linkReferences": {},
					"object": "608060405260055f553480156012575f5ffd5b506102f6806100205f395ff3fe608060405260043610610054575f3560e01c8063303810a6146100585780634f2be91f146100765780637032c4f21461008c57806380b4ea08146100c85780638381f58a146100de578063b262eb7f14610108575b5f5ffd5b610060610132565b60405161006d91906101bb565b60405180910390f35b348015610081575f5ffd5b5061008a610141565b005b348015610097575f5ffd5b506100b260048036038101906100ad9190610202565b610156565b6040516100bf91906101bb565b60405180910390f35b3480156100d3575f5ffd5b506100dc61016b565b005b3480156100e9575f5ffd5b506100f2610175565b6040516100ff91906101bb565b60405180910390f35b348015610113575f5ffd5b5061011c61017a565b60405161012991906101bb565b60405180910390f35b5f61013b61018e565b47905090565b60015f5461014f919061025a565b5f81905550565b5f600182610164919061025a565b9050919050565b61017361018e565b565b5f5481565b5f60015f54610189919061025a565b905090565b60015f5461019c919061028d565b5f81905550565b5f819050919050565b6101b5816101a3565b82525050565b5f6020820190506101ce5f8301846101ac565b92915050565b5f5ffd5b6101e1816101a3565b81146101eb575f5ffd5b50565b5f813590506101fc816101d8565b92915050565b5f60208284031215610217576102166101d4565b5b5f610224848285016101ee565b91505092915050565b7f4e487b71000000000000000000000000000000000000000000000000000000005f52601160045260245ffd5b5f610264826101a3565b915061026f836101a3565b92508282019050808211156102875761028661022d565b5b92915050565b5f610297826101a3565b91506102a2836101a3565b92508282039050818111156102ba576102b961022d565b5b9291505056fea26469706673582212202b9df9fad2eb9eca3d488d51817256494679d0f4be8db6f4803c5c06197996e964736f6c634300081e0033",
					"opcodes": "PUSH1 0x80 PUSH1 0x40 MSTORE PUSH1 0x5 PUSH0 SSTORE CALLVALUE DUP1 ISZERO PUSH1 0x12 JUMPI PUSH0 PUSH0 REVERT JUMPDEST POP PUSH2 0x2F6 DUP1 PUSH2 0x20 PUSH0 CODECOPY PUSH0 RETURN INVALID PUSH1 0x80 PUSH1 0x40 MSTORE PUSH1 0x4 CALLDATASIZE LT PUSH2 0x54 JUMPI PUSH0 CALLDATALOAD PUSH1 0xE0 SHR DUP1 PUSH4 0x303810A6 EQ PUSH2 0x58 JUMPI DUP1 PUSH4 0x4F2BE91F EQ PUSH2 0x76 JUMPI DUP1 PUSH4 0x7032C4F2 EQ PUSH2 0x8C JUMPI DUP1 PUSH4 0x80B4EA08 EQ PUSH2 0xC8 JUMPI DUP1 PUSH4 0x8381F58A EQ PUSH2 0xDE JUMPI DUP1 PUSH4 0xB262EB7F EQ PUSH2 0x108 JUMPI JUMPDEST PUSH0 PUSH0 REVERT JUMPDEST PUSH2 0x60 PUSH2 0x132 JUMP JUMPDEST PUSH1 0x40 MLOAD PUSH2 0x6D SWAP2 SWAP1 PUSH2 0x1BB JUMP JUMPDEST PUSH1 0x40 MLOAD DUP1 SWAP2 SUB SWAP1 RETURN JUMPDEST CALLVALUE DUP1 ISZERO PUSH2 0x81 JUMPI PUSH0 PUSH0 REVERT JUMPDEST POP PUSH2 0x8A PUSH2 0x141 JUMP JUMPDEST STOP JUMPDEST CALLVALUE DUP1 ISZERO PUSH2 0x97 JUMPI PUSH0 PUSH0 REVERT JUMPDEST POP PUSH2 0xB2 PUSH1 0x4 DUP1 CALLDATASIZE SUB DUP2 ADD SWAP1 PUSH2 0xAD SWAP2 SWAP1 PUSH2 0x202 JUMP JUMPDEST PUSH2 0x156 JUMP JUMPDEST PUSH1 0x40 MLOAD PUSH2 0xBF SWAP2 SWAP1 PUSH2 0x1BB JUMP JUMPDEST PUSH1 0x40 MLOAD DUP1 SWAP2 SUB SWAP1 RETURN JUMPDEST CALLVALUE DUP1 ISZERO PUSH2 0xD3 JUMPI PUSH0 PUSH0 REVERT JUMPDEST POP PUSH2 0xDC PUSH2 0x16B JUMP JUMPDEST STOP JUMPDEST CALLVALUE DUP1 ISZERO PUSH2 0xE9 JUMPI PUSH0 PUSH0 REVERT JUMPDEST POP PUSH2 0xF2 PUSH2 0x175 JUMP JUMPDEST PUSH1 0x40 MLOAD PUSH2 0xFF SWAP2 SWAP1 PUSH2 0x1BB JUMP JUMPDEST PUSH1 0x40 MLOAD DUP1 SWAP2 SUB SWAP1 RETURN JUMPDEST CALLVALUE DUP1 ISZERO PUSH2 0x113 JUMPI PUSH0 PUSH0 REVERT JUMPDEST POP PUSH2 0x11C PUSH2 0x17A JUMP JUMPDEST PUSH1 0x40 MLOAD PUSH2 0x129 SWAP2 SWAP1 PUSH2 0x1BB JUMP JUMPDEST PUSH1 0x40 MLOAD DUP1 SWAP2 SUB SWAP1 RETURN JUMPDEST PUSH0 PUSH2 0x13B PUSH2 0x18E JUMP JUMPDEST SELFBALANCE SWAP1 POP SWAP1 JUMP JUMPDEST PUSH1 0x1 PUSH0 SLOAD PUSH2 0x14F SWAP2 SWAP1 PUSH2 0x25A JUMP JUMPDEST PUSH0 DUP2 SWAP1 SSTORE POP JUMP JUMPDEST PUSH0 PUSH1 0x1 DUP3 PUSH2 0x164 SWAP2 SWAP1 PUSH2 0x25A JUMP JUMPDEST SWAP1 POP SWAP2 SWAP1 POP JUMP JUMPDEST PUSH2 0x173 PUSH2 0x18E JUMP JUMPDEST JUMP JUMPDEST PUSH0 SLOAD DUP2 JUMP JUMPDEST PUSH0 PUSH1 0x1 PUSH0 SLOAD PUSH2 0x189 SWAP2 SWAP1 PUSH2 0x25A JUMP JUMPDEST SWAP1 POP SWAP1 JUMP JUMPDEST PUSH1 0x1 PUSH0 SLOAD PUSH2 0x19C SWAP2 SWAP1 PUSH2 0x28D JUMP JUMPDEST PUSH0 DUP2 SWAP1 SSTORE POP JUMP JUMPDEST PUSH0 DUP2 SWAP1 POP SWAP2 SWAP1 POP JUMP JUMPDEST PUSH2 0x1B5 DUP2 PUSH2 0x1A3 JUMP JUMPDEST DUP3 MSTORE POP POP JUMP JUMPDEST PUSH0 PUSH1 0x20 DUP3 ADD SWAP1 POP PUSH2 0x1CE PUSH0 DUP4 ADD DUP5 PUSH2 0x1AC JUMP JUMPDEST SWAP3 SWAP2 POP POP JUMP JUMPDEST PUSH0 PUSH0 REVERT JUMPDEST PUSH2 0x1E1 DUP2 PUSH2 0x1A3 JUMP JUMPDEST DUP2 EQ PUSH2 0x1EB JUMPI PUSH0 PUSH0 REVERT JUMPDEST POP JUMP JUMPDEST PUSH0 DUP2 CALLDATALOAD SWAP1 POP PUSH2 0x1FC DUP2 PUSH2 0x1D8 JUMP JUMPDEST SWAP3 SWAP2 POP POP JUMP JUMPDEST PUSH0 PUSH1 0x20 DUP3 DUP5 SUB SLT ISZERO PUSH2 0x217 JUMPI PUSH2 0x216 PUSH2 0x1D4 JUMP JUMPDEST JUMPDEST PUSH0 PUSH2 0x224 DUP5 DUP3 DUP6 ADD PUSH2 0x1EE JUMP JUMPDEST SWAP2 POP POP SWAP3 SWAP2 POP POP JUMP JUMPDEST PUSH32 0x4E487B7100000000000000000000000000000000000000000000000000000000 PUSH0 MSTORE PUSH1 0x11 PUSH1 0x4 MSTORE PUSH1 0x24 PUSH0 REVERT JUMPDEST PUSH0 PUSH2 0x264 DUP3 PUSH2 0x1A3 JUMP JUMPDEST SWAP2 POP PUSH2 0x26F DUP4 PUSH2 0x1A3 JUMP JUMPDEST SWAP3 POP DUP3 DUP3 ADD SWAP1 POP DUP1 DUP3 GT ISZERO PUSH2 0x287 JUMPI PUSH2 0x286 PUSH2 0x22D JUMP JUMPDEST JUMPDEST SWAP3 SWAP2 POP POP JUMP JUMPDEST PUSH0 PUSH2 0x297 DUP3 PUSH2 0x1A3 JUMP JUMPDEST SWAP2 POP PUSH2 0x2A2 DUP4 PUSH2 0x1A3 JUMP JUMPDEST SWAP3 POP DUP3 DUP3 SUB SWAP1 POP DUP2 DUP2 GT ISZERO PUSH2 0x2BA JUMPI PUSH2 0x2B9 PUSH2 0x22D JUMP JUMPDEST JUMPDEST SWAP3 SWAP2 POP POP JUMP INVALID LOG2 PUSH5 0x6970667358 0x22 SLT KECCAK256 0x2B SWAP14 EXTDELEGATECALL STATICCALL 0xD2 0xEB SWAP15 0xCA RETURNDATASIZE BASEFEE DUP14 MLOAD DUP2 PUSH19 0x56494679D0F4BE8DB6F4803C5C06197996E964 PUSH20 0x6F6C634300081E00330000000000000000000000 "
				},
				"gasEstimates": {
					"creation": {
						"codeDepositCost": "151600",
						"executionCost": "22299",
						"totalCost": "173899"
					},
					"external": {
						"add()": "infinite",
						"addPure(uint256)": "infinite",
						"addView()": "infinite",
						"minusCall()": "infinite",
						"minusPayable()": "infinite",
						"number()": "2490"
					},
					"internal": {
						"minus()": "infinite"
					}
				},
				"methodIdentifiers": {
					"add()": "4f2be91f",
					"addPure(uint256)": "7032c4f2",
					"addView()": "b262eb7f",
					"minusCall()": "80b4ea08",
					"minusPayable()": "303810a6",
					"number()": "8381f58a"
				}
			},
			"storageLayout": {
				"storage": [
					{
						"astId": 4,
						"contract": "function.sol:FunctionTypes",
						"label": "number",
						"offset": 0,
						"slot": "0",
						"type": "t_uint256"
					}
				],
				"types": {
					"t_uint256": {
						"encoding": "inplace",
						"label": "uint256",
						"numberOfBytes": "32"
					}
				}
			},
			"userdoc": {
				"kind": "user",
				"methods": {},
				"version": 1
			}
		}
	}
}