{
	"valueType.sol": {
		"valueType": {
			"abi": [
				{
					"inputs": [],
					"name": "_address",
					"outputs": [
						{
							"internalType": "address",
							"name": "",
							"type": "address"
						}
					],
					"stateMutability": "view",
					"type": "function"
				},
				{
					"inputs": [],
					"name": "_address1",
					"outputs": [
						{
							"internalType": "address payable",
							"name": "",
							"type": "address"
						}
					],
					"stateMutability": "view",
					"type": "function"
				},
				{
					"inputs": [],
					"name": "_balance",
					"outputs": [
						{
							"internalType": "uint256",
							"name": "",
							"type": "uint256"
						}
					],
					"stateMutability": "view",
					"type": "function"
				},
				{
					"inputs": [],
					"name": "_bool1",
					"outputs": [
						{
							"internalType": "bool",
							"name": "",
							"type": "bool"
						}
					],
					"stateMutability": "view",
					"type": "function"
				},
				{
					"inputs": [],
					"name": "_bool2",
					"outputs": [
						{
							"internalType": "bool",
							"name": "",
							"type": "bool"
						}
					],
					"stateMutability": "view",
					"type": "function"
				},
				{
					"inputs": [],
					"name": "_byes1",
					"outputs": [
						{
							"internalType": "bytes1",
							"name": "",
							"type": "bytes1"
						}
					],
					"stateMutability": "view",
					"type": "function"
				},
				{
					"inputs": [],
					"name": "_bytes32",
					"outputs": [
						{
							"internalType": "bytes32",
							"name": "",
							"type": "bytes32"
						}
					],
					"stateMutability": "view",
					"type": "function"
				},
				{
					"inputs": [],
					"name": "_int",
					"outputs": [
						{
							"internalType": "int256",
							"name": "",
							"type": "int256"
						}
					],
					"stateMutability": "view",
					"type": "function"
				},
				{
					"inputs": [],
					"name": "_number",
					"outputs": [
						{
							"internalType": "uint256",
							"name": "",
							"type": "uint256"
						}
					],
					"stateMutability": "view",
					"type": "function"
				},
				{
					"inputs": [],
					"name": "_number1",
					"outputs": [
						{
							"internalType": "uint256",
							"name": "",
							"type": "uint256"
						}
					],
					"stateMutability": "view",
					"type": "function"
				},
				{
					"inputs": [],
					"name": "_number2",
					"outputs": [
						{
							"internalType": "uint256",
							"name": "",
							"type": "uint256"
						}
					],
					"stateMutability": "view",
					"type": "function"
				},
				{
					"inputs": [],
					"name": "_number3",
					"outputs": [
						{
							"internalType": "uint256",
							"name": "",
							"type": "uint256"
						}
					],
					"stateMutability": "view",
					"type": "function"
				},
				{
					"inputs": [],
					"name": "_uint",
					"outputs": [
						{
							"internalType": "uint256",
							"name": "",
							"type": "uint256"
						}
					],
					"stateMutability": "view",
					"type": "function"
				}
			],
			"devdoc": {
				"kind": "dev",
				"methods": {},
				"version": 1
			},
			"evm": {
				"assembly": "    /* \"valueType.sol\":59:628  contract valueType {... */\n  mstore(0x40, 0x80)\n    /* \"valueType.sol\":105:109  true */\n  0x01\n    /* \"valueType.sol\":84:109  bool public _bool1 = true */\n  0x00\n  exp(0x0100, 0x00)\n  dup2\n  sload\n  dup2\n  0xff\n  mul\n  not\n  and\n  swap1\n  dup4\n  iszero\n  iszero\n  mul\n  or\n  swap1\n  sstore\n  pop\n    /* \"valueType.sol\":136:141  false */\n  0x00\n    /* \"valueType.sol\":115:141  bool public _bool2 = false */\n  0x00\n  exp(0x0100, 0x01)\n  dup2\n  sload\n  dup2\n  0xff\n  mul\n  not\n  and\n  swap1\n  dup4\n  iszero\n  iszero\n  mul\n  or\n  swap1\n  sstore\n  pop\n    /* \"valueType.sol\":166:167  1 */\n  0x01\n    /* \"valueType.sol\":148:167  int public _int = 1 */\n  dup1\n  sstore\n    /* \"valueType.sol\":193:194  2 */\n  0x02\n    /* \"valueType.sol\":173:194  uint public _uint = 2 */\n  dup1\n  sstore\n    /* \"valueType.sol\":225:231  423423 */\n  0x0675ff\n    /* \"valueType.sol\":200:231  uint256 public _number = 423423 */\n  0x03\n  sstore\n    /* \"valueType.sol\":274:275  1 */\n  0x01\n    /* \"valueType.sol\":264:271  _number */\n  sload(0x03)\n    /* \"valueType.sol\":264:275  _number + 1 */\n  tag_1\n  swap2\n  swap1\n  tag_2\n  jump\t// in\ntag_1:\n    /* \"valueType.sol\":238:275  uint256 public _number1 = _number + 1 */\n  0x04\n  sstore\n    /* \"valueType.sol\":318:319  1 */\n  0x01\n    /* \"valueType.sol\":307:315  _number1 */\n  sload(0x04)\n    /* \"valueType.sol\":307:319  _number1 - 1 */\n  tag_3\n  swap2\n  swap1\n  tag_4\n  jump\t// in\ntag_3:\n    /* \"valueType.sol\":281:319  uint256 public _number2 = _number1 - 1 */\n  0x05\n  sstore\n    /* \"valueType.sol\":351:355  2**2 */\n  0x04\n    /* \"valueType.sol\":325:355  uint256 public _number3 = 2**2 */\n  0x06\n  sstore\n    /* \"valueType.sol\":388:430  0x7A58c0Be72BE218B41C608b7Fe7C5bB630736C71 */\n  0x7a58c0be72be218b41c608b7fe7c5bb630736c71\n    /* \"valueType.sol\":362:430  address public _address = 0x7A58c0Be72BE218B41C608b7Fe7C5bB630736C71 */\n  0x07\n  exp(0x0100, 0x00)\n  dup2\n  sload\n  dup2\n  0xffffffffffffffffffffffffffffffffffffffff\n  mul\n  not\n  and\n  swap1\n  dup4\n  0xffffffffffffffffffffffffffffffffffffffff\n  and\n  mul\n  or\n  swap1\n  sstore\n  pop\n    /* \"valueType.sol\":480:488  _address */\n  0x07\n  0x00\n  swap1\n  sload\n  swap1\n  0x0100\n  exp\n  swap1\n  div\n  0xffffffffffffffffffffffffffffffffffffffff\n  and\n    /* \"valueType.sol\":436:489  address payable  public _address1 = payable(_address) */\n  0x08\n  exp(0x0100, 0x00)\n  dup2\n  sload\n  dup2\n  0xffffffffffffffffffffffffffffffffffffffff\n  mul\n  not\n  and\n  swap1\n  dup4\n  0xffffffffffffffffffffffffffffffffffffffff\n  and\n  mul\n  or\n  swap1\n  sstore\n  pop\n    /* \"valueType.sol\":521:530  _address1 */\n  0x08\n  0x00\n  swap1\n  sload\n  swap1\n  0x0100\n  exp\n  swap1\n  div\n  0xffffffffffffffffffffffffffffffffffffffff\n  and\n    /* \"valueType.sol\":521:538  _address1.balance */\n  0xffffffffffffffffffffffffffffffffffffffff\n  and\n  balance\n    /* \"valueType.sol\":495:538  uint256 public _balance = _address1.balance */\n  0x09\n  sstore\n    /* \"valueType.sol\":545:585  bytes32 public _bytes32 = \"minisolidify\" */\n  sstore(0x0a, 0x6d696e69736f6c69646966790000000000000000000000000000000000000000)\n    /* \"valueType.sol\":614:622  _bytes32 */\n  sload(0x0a)\n    /* \"valueType.sol\":623:624  0 */\n  0x00\n    /* \"valueType.sol\":614:625  _bytes32[0] */\n  0x20\n  dup2\n  lt\n  tag_5\n  jumpi\n  tag_6\n  tag_7\n  jump\t// in\ntag_6:\ntag_5:\n  byte\n  0xf8\n  shl\n    /* \"valueType.sol\":591:625  bytes1 public _byes1 = _bytes32[0] */\n  0x0b\n  exp(0x0100, 0x00)\n  dup2\n  sload\n  dup2\n  0xff\n  mul\n  not\n  and\n  swap1\n  dup4\n  0xf8\n  shr\n  mul\n  or\n  swap1\n  sstore\n  pop\n    /* \"valueType.sol\":59:628  contract valueType {... */\n  callvalue\n  dup1\n  iszero\n  tag_8\n  jumpi\n  revert(0x00, 0x00)\ntag_8:\n  pop\n  jump(tag_9)\n    /* \"#utility.yul\":7:84   */\ntag_10:\n    /* \"#utility.yul\":44:51   */\n  0x00\n    /* \"#utility.yul\":73:78   */\n  dup2\n    /* \"#utility.yul\":62:78   */\n  swap1\n  pop\n    /* \"#utility.yul\":7:84   */\n  swap2\n  swap1\n  pop\n  jump\t// out\n    /* \"#utility.yul\":90:270   */\ntag_11:\n    /* \"#utility.yul\":138:215   */\n  0x4e487b7100000000000000000000000000000000000000000000000000000000\n    /* \"#utility.yul\":135:136   */\n  0x00\n    /* \"#utility.yul\":128:216   */\n  mstore\n    /* \"#utility.yul\":235:239   */\n  0x11\n    /* \"#utility.yul\":232:233   */\n  0x04\n    /* \"#utility.yul\":225:240   */\n  mstore\n    /* \"#utility.yul\":259:263   */\n  0x24\n    /* \"#utility.yul\":256:257   */\n  0x00\n    /* \"#utility.yul\":249:264   */\n  revert\n    /* \"#utility.yul\":276:467   */\ntag_2:\n    /* \"#utility.yul\":316:319   */\n  0x00\n    /* \"#utility.yul\":335:355   */\n  tag_16\n    /* \"#utility.yul\":353:354   */\n  dup3\n    /* \"#utility.yul\":335:355   */\n  tag_10\n  jump\t// in\ntag_16:\n    /* \"#utility.yul\":330:355   */\n  swap2\n  pop\n    /* \"#utility.yul\":369:389   */\n  tag_17\n    /* \"#utility.yul\":387:388   */\n  dup4\n    /* \"#utility.yul\":369:389   */\n  tag_10\n  jump\t// in\ntag_17:\n    /* \"#utility.yul\":364:389   */\n  swap3\n  pop\n    /* \"#utility.yul\":412:413   */\n  dup3\n    /* \"#utility.yul\":409:410   */\n  dup3\n    /* \"#utility.yul\":405:414   */\n  add\n    /* \"#utility.yul\":398:414   */\n  swap1\n  pop\n    /* \"#utility.yul\":433:436   */\n  dup1\n    /* \"#utility.yul\":430:431   */\n  dup3\n    /* \"#utility.yul\":427:437   */\n  gt\n    /* \"#utility.yul\":424:460   */\n  iszero\n  tag_18\n  jumpi\n    /* \"#utility.yul\":440:458   */\n  tag_19\n  tag_11\n  jump\t// in\ntag_19:\n    /* \"#utility.yul\":424:460   */\ntag_18:\n    /* \"#utility.yul\":276:467   */\n  swap3\n  swap2\n  pop\n  pop\n  jump\t// out\n    /* \"#utility.yul\":473:667   */\ntag_4:\n    /* \"#utility.yul\":513:517   */\n  0x00\n    /* \"#utility.yul\":533:553   */\n  tag_21\n    /* \"#utility.yul\":551:552   */\n  dup3\n    /* \"#utility.yul\":533:553   */\n  tag_10\n  jump\t// in\ntag_21:\n    /* \"#utility.yul\":528:553   */\n  swap2\n  pop\n    /* \"#utility.yul\":567:587   */\n  tag_22\n    /* \"#utility.yul\":585:586   */\n  dup4\n    /* \"#utility.yul\":567:587   */\n  tag_10\n  jump\t// in\ntag_22:\n    /* \"#utility.yul\":562:587   */\n  swap3\n  pop\n    /* \"#utility.yul\":611:612   */\n  dup3\n    /* \"#utility.yul\":608:609   */\n  dup3\n    /* \"#utility.yul\":604:613   */\n  sub\n    /* \"#utility.yul\":596:613   */\n  swap1\n  pop\n    /* \"#utility.yul\":635:636   */\n  dup2\n    /* \"#utility.yul\":629:633   */\n  dup2\n    /* \"#utility.yul\":626:637   */\n  gt\n    /* \"#utility.yul\":623:660   */\n  iszero\n  tag_23\n  jumpi\n    /* \"#utility.yul\":640:658   */\n  tag_24\n  tag_11\n  jump\t// in\ntag_24:\n    /* \"#utility.yul\":623:660   */\ntag_23:\n    /* \"#utility.yul\":473:667   */\n  swap3\n  swap2\n  pop\n  pop\n  jump\t// out\n    /* \"#utility.yul\":673:853   */\ntag_7:\n    /* \"#utility.yul\":721:798   */\n  0x4e487b7100000000000000000000000000000000000000000000000000000000\n    /* \"#utility.yul\":718:719   */\n  0x00\n    /* \"#utility.yul\":711:799   */\n  mstore\n    /* \"#utility.yul\":818:822   */\n  0x32\n    /* \"#utility.yul\":815:816   */\n  0x04\n    /* \"#utility.yul\":808:823   */\n  mstore\n    /* \"#utility.yul\":842:846   */\n  0x24\n    /* \"#utility.yul\":839:840   */\n  0x00\n    /* \"#utility.yul\":832:847   */\n  revert\n    /* \"valueType.sol\":59:628  contract valueType {... */\ntag_9:\n  dataSize(sub_0)\n  dup1\n  dataOffset(sub_0)\n  0x00\n  codecopy\n  0x00\n  return\nstop\n\nsub_0: assembly {\n        /* \"valueType.sol\":59:628  contract valueType {... */\n      mstore(0x40, 0x80)\n      callvalue\n      dup1\n      iszero\n      tag_1\n      jumpi\n      revert(0x00, 0x00)\n    tag_1:\n      pop\n      jumpi(tag_2, lt(calldatasize, 0x04))\n      shr(0xe0, calldataload(0x00))\n      dup1\n      0x6e8d0c9e\n      gt\n      tag_16\n      jumpi\n      dup1\n      0xa2e7fe8a\n      gt\n      tag_17\n      jumpi\n      dup1\n      0xa2e7fe8a\n      eq\n      tag_12\n      jumpi\n      dup1\n      0xac729403\n      eq\n      tag_13\n      jumpi\n      dup1\n      0xaf45869e\n      eq\n      tag_14\n      jumpi\n      dup1\n      0xf9bd55cc\n      eq\n      tag_15\n      jumpi\n      jump(tag_2)\n    tag_17:\n      dup1\n      0x6e8d0c9e\n      eq\n      tag_9\n      jumpi\n      dup1\n      0x924b3d21\n      eq\n      tag_10\n      jumpi\n      dup1\n      0x93f2b398\n      eq\n      tag_11\n      jumpi\n      jump(tag_2)\n    tag_16:\n      dup1\n      0x18bad217\n      eq\n      tag_3\n      jumpi\n      dup1\n      0x19bff7df\n      eq\n      tag_4\n      jumpi\n      dup1\n      0x2543135b\n      eq\n      tag_5\n      jumpi\n      dup1\n      0x307ca2f2\n      eq\n      tag_6\n      jumpi\n      dup1\n      0x56c4e05a\n      eq\n      tag_7\n      jumpi\n      dup1\n      0x6b1d2c4e\n      eq\n      tag_8\n      jumpi\n    tag_2:\n      revert(0x00, 0x00)\n        /* \"valueType.sol\":362:430  address public _address = 0x7A58c0Be72BE218B41C608b7Fe7C5bB630736C71 */\n    tag_3:\n      tag_18\n      tag_19\n      jump\t// in\n    tag_18:\n      mload(0x40)\n      tag_20\n      swap2\n      swap1\n      tag_21\n      jump\t// in\n    tag_20:\n      mload(0x40)\n      dup1\n      swap2\n      sub\n      swap1\n      return\n        /* \"valueType.sol\":325:355  uint256 public _number3 = 2**2 */\n    tag_4:\n      tag_22\n      tag_23\n      jump\t// in\n    tag_22:\n      mload(0x40)\n      tag_24\n      swap2\n      swap1\n      tag_25\n      jump\t// in\n    tag_24:\n      mload(0x40)\n      dup1\n      swap2\n      sub\n      swap1\n      return\n        /* \"valueType.sol\":173:194  uint public _uint = 2 */\n    tag_5:\n      tag_26\n      tag_27\n      jump\t// in\n    tag_26:\n      mload(0x40)\n      tag_28\n      swap2\n      swap1\n      tag_25\n      jump\t// in\n    tag_28:\n      mload(0x40)\n      dup1\n      swap2\n      sub\n      swap1\n      return\n        /* \"valueType.sol\":591:625  bytes1 public _byes1 = _bytes32[0] */\n    tag_6:\n      tag_29\n      tag_30\n      jump\t// in\n    tag_29:\n      mload(0x40)\n      tag_31\n      swap2\n      swap1\n      tag_32\n      jump\t// in\n    tag_31:\n      mload(0x40)\n      dup1\n      swap2\n      sub\n      swap1\n      return\n        /* \"valueType.sol\":495:538  uint256 public _balance = _address1.balance */\n    tag_7:\n      tag_33\n      tag_34\n      jump\t// in\n    tag_33:\n      mload(0x40)\n      tag_35\n      swap2\n      swap1\n      tag_25\n      jump\t// in\n    tag_35:\n      mload(0x40)\n      dup1\n      swap2\n      sub\n      swap1\n      return\n        /* \"valueType.sol\":281:319  uint256 public _number2 = _number1 - 1 */\n    tag_8:\n      tag_36\n      tag_37\n      jump\t// in\n    tag_36:\n      mload(0x40)\n      tag_38\n      swap2\n      swap1\n      tag_25\n      jump\t// in\n    tag_38:\n      mload(0x40)\n      dup1\n      swap2\n      sub\n      swap1\n      return\n        /* \"valueType.sol\":238:275  uint256 public _number1 = _number + 1 */\n    tag_9:\n      tag_39\n      tag_40\n      jump\t// in\n    tag_39:\n      mload(0x40)\n      tag_41\n      swap2\n      swap1\n      tag_25\n      jump\t// in\n    tag_41:\n      mload(0x40)\n      dup1\n      swap2\n      sub\n      swap1\n      return\n        /* \"valueType.sol\":84:109  bool public _bool1 = true */\n    tag_10:\n      tag_42\n      tag_43\n      jump\t// in\n    tag_42:\n      mload(0x40)\n      tag_44\n      swap2\n      swap1\n      tag_45\n      jump\t// in\n    tag_44:\n      mload(0x40)\n      dup1\n      swap2\n      sub\n      swap1\n      return\n        /* \"valueType.sol\":545:585  bytes32 public _bytes32 = \"minisolidify\" */\n    tag_11:\n      tag_46\n      tag_47\n      jump\t// in\n    tag_46:\n      mload(0x40)\n      tag_48\n      swap2\n      swap1\n      tag_49\n      jump\t// in\n    tag_48:\n      mload(0x40)\n      dup1\n      swap2\n      sub\n      swap1\n      return\n        /* \"valueType.sol\":115:141  bool public _bool2 = false */\n    tag_12:\n      tag_50\n      tag_51\n      jump\t// in\n    tag_50:\n      mload(0x40)\n      tag_52\n      swap2\n      swap1\n      tag_45\n      jump\t// in\n    tag_52:\n      mload(0x40)\n      dup1\n      swap2\n      sub\n      swap1\n      return\n        /* \"valueType.sol\":436:489  address payable  public _address1 = payable(_address) */\n    tag_13:\n      tag_53\n      tag_54\n      jump\t// in\n    tag_53:\n      mload(0x40)\n      tag_55\n      swap2\n      swap1\n      tag_56\n      jump\t// in\n    tag_55:\n      mload(0x40)\n      dup1\n      swap2\n      sub\n      swap1\n      return\n        /* \"valueType.sol\":148:167  int public _int = 1 */\n    tag_14:\n      tag_57\n      tag_58\n      jump\t// in\n    tag_57:\n      mload(0x40)\n      tag_59\n      swap2\n      swap1\n      tag_60\n      jump\t// in\n    tag_59:\n      mload(0x40)\n      dup1\n      swap2\n      sub\n      swap1\n      return\n        /* \"valueType.sol\":200:231  uint256 public _number = 423423 */\n    tag_15:\n      tag_61\n      tag_62\n      jump\t// in\n    tag_61:\n      mload(0x40)\n      tag_63\n      swap2\n      swap1\n      tag_25\n      jump\t// in\n    tag_63:\n      mload(0x40)\n      dup1\n      swap2\n      sub\n      swap1\n      return\n        /* \"valueType.sol\":362:430  address public _address = 0x7A58c0Be72BE218B41C608b7Fe7C5bB630736C71 */\n    tag_19:\n      0x07\n      0x00\n      swap1\n      sload\n      swap1\n      0x0100\n      exp\n      swap1\n      div\n      0xffffffffffffffffffffffffffffffffffffffff\n      and\n      dup2\n      jump\t// out\n        /* \"valueType.sol\":325:355  uint256 public _number3 = 2**2 */\n    tag_23:\n      sload(0x06)\n      dup2\n      jump\t// out\n        /* \"valueType.sol\":173:194  uint public _uint = 2 */\n    tag_27:\n      sload(0x02)\n      dup2\n      jump\t// out\n        /* \"valueType.sol\":591:625  bytes1 public _byes1 = _bytes32[0] */\n    tag_30:\n      0x0b\n      0x00\n      swap1\n      sload\n      swap1\n      0x0100\n      exp\n      swap1\n      div\n      0xf8\n      shl\n      dup2\n      jump\t// out\n        /* \"valueType.sol\":495:538  uint256 public _balance = _address1.balance */\n    tag_34:\n      sload(0x09)\n      dup2\n      jump\t// out\n        /* \"valueType.sol\":281:319  uint256 public _number2 = _number1 - 1 */\n    tag_37:\n      sload(0x05)\n      dup2\n      jump\t// out\n        /* \"valueType.sol\":238:275  uint256 public _number1 = _number + 1 */\n    tag_40:\n      sload(0x04)\n      dup2\n      jump\t// out\n        /* \"valueType.sol\":84:109  bool public _bool1 = true */\n    tag_43:\n      0x00\n      0x00\n      swap1\n      sload\n      swap1\n      0x0100\n      exp\n      swap1\n      div\n      0xff\n      and\n      dup2\n      jump\t// out\n        /* \"valueType.sol\":545:585  bytes32 public _bytes32 = \"minisolidify\" */\n    tag_47:\n      sload(0x0a)\n      dup2\n      jump\t// out\n        /* \"valueType.sol\":115:141  bool public _bool2 = false */\n    tag_51:\n      0x00\n      0x01\n      swap1\n      sload\n      swap1\n      0x0100\n      exp\n      swap1\n      div\n      0xff\n      and\n      dup2\n      jump\t// out\n        /* \"valueType.sol\":436:489  address payable  public _address1 = payable(_address) */\n    tag_54:\n      0x08\n      0x00\n      swap1\n      sload\n      swap1\n      0x0100\n      exp\n      swap1\n      div\n      0xffffffffffffffffffffffffffffffffffffffff\n      and\n      dup2\n      jump\t// out\n        /* \"valueType.sol\":148:167  int public _int = 1 */\n    tag_58:\n      sload(0x01)\n      dup2\n      jump\t// out\n        /* \"valueType.sol\":200:231  uint256 public _number = 423423 */\n    tag_62:\n      sload(0x03)\n      dup2\n      jump\t// out\n        /* \"#utility.yul\":7:133   */\n    tag_64:\n        /* \"#utility.yul\":44:51   */\n      0x00\n        /* \"#utility.yul\":84:126   */\n      0xffffffffffffffffffffffffffffffffffffffff\n        /* \"#utility.yul\":77:82   */\n      dup3\n        /* \"#utility.yul\":73:127   */\n      and\n        /* \"#utility.yul\":62:127   */\n      swap1\n      pop\n        /* \"#utility.yul\":7:133   */\n      swap2\n      swap1\n      pop\n      jump\t// out\n        /* \"#utility.yul\":139:235   */\n    tag_65:\n        /* \"#utility.yul\":176:183   */\n      0x00\n        /* \"#utility.yul\":205:229   */\n      tag_82\n        /* \"#utility.yul\":223:228   */\n      dup3\n        /* \"#utility.yul\":205:229   */\n      tag_64\n      jump\t// in\n    tag_82:\n        /* \"#utility.yul\":194:229   */\n      swap1\n      pop\n        /* \"#utility.yul\":139:235   */\n      swap2\n      swap1\n      pop\n      jump\t// out\n        /* \"#utility.yul\":241:359   */\n    tag_66:\n        /* \"#utility.yul\":328:352   */\n      tag_84\n        /* \"#utility.yul\":346:351   */\n      dup2\n        /* \"#utility.yul\":328:352   */\n      tag_65\n      jump\t// in\n    tag_84:\n        /* \"#utility.yul\":323:326   */\n      dup3\n        /* \"#utility.yul\":316:353   */\n      mstore\n        /* \"#utility.yul\":241:359   */\n      pop\n      pop\n      jump\t// out\n        /* \"#utility.yul\":365:587   */\n    tag_21:\n        /* \"#utility.yul\":458:462   */\n      0x00\n        /* \"#utility.yul\":496:498   */\n      0x20\n        /* \"#utility.yul\":485:494   */\n      dup3\n        /* \"#utility.yul\":481:499   */\n      add\n        /* \"#utility.yul\":473:499   */\n      swap1\n      pop\n        /* \"#utility.yul\":509:580   */\n      tag_86\n        /* \"#utility.yul\":577:578   */\n      0x00\n        /* \"#utility.yul\":566:575   */\n      dup4\n        /* \"#utility.yul\":562:579   */\n      add\n        /* \"#utility.yul\":553:559   */\n      dup5\n        /* \"#utility.yul\":509:580   */\n      tag_66\n      jump\t// in\n    tag_86:\n        /* \"#utility.yul\":365:587   */\n      swap3\n      swap2\n      pop\n      pop\n      jump\t// out\n        /* \"#utility.yul\":593:670   */\n    tag_67:\n        /* \"#utility.yul\":630:637   */\n      0x00\n        /* \"#utility.yul\":659:664   */\n      dup2\n        /* \"#utility.yul\":648:664   */\n      swap1\n      pop\n        /* \"#utility.yul\":593:670   */\n      swap2\n      swap1\n      pop\n      jump\t// out\n        /* \"#utility.yul\":676:794   */\n    tag_68:\n        /* \"#utility.yul\":763:787   */\n      tag_89\n        /* \"#utility.yul\":781:786   */\n      dup2\n        /* \"#utility.yul\":763:787   */\n      tag_67\n      jump\t// in\n    tag_89:\n        /* \"#utility.yul\":758:761   */\n      dup3\n        /* \"#utility.yul\":751:788   */\n      mstore\n        /* \"#utility.yul\":676:794   */\n      pop\n      pop\n      jump\t// out\n        /* \"#utility.yul\":800:1022   */\n    tag_25:\n        /* \"#utility.yul\":893:897   */\n      0x00\n        /* \"#utility.yul\":931:933   */\n      0x20\n        /* \"#utility.yul\":920:929   */\n      dup3\n        /* \"#utility.yul\":916:934   */\n      add\n        /* \"#utility.yul\":908:934   */\n      swap1\n      pop\n        /* \"#utility.yul\":944:1015   */\n      tag_91\n        /* \"#utility.yul\":1012:1013   */\n      0x00\n        /* \"#utility.yul\":1001:1010   */\n      dup4\n        /* \"#utility.yul\":997:1014   */\n      add\n        /* \"#utility.yul\":988:994   */\n      dup5\n        /* \"#utility.yul\":944:1015   */\n      tag_68\n      jump\t// in\n    tag_91:\n        /* \"#utility.yul\":800:1022   */\n      swap3\n      swap2\n      pop\n      pop\n      jump\t// out\n        /* \"#utility.yul\":1028:1177   */\n    tag_69:\n        /* \"#utility.yul\":1064:1071   */\n      0x00\n        /* \"#utility.yul\":1104:1170   */\n      0xff00000000000000000000000000000000000000000000000000000000000000\n        /* \"#utility.yul\":1097:1102   */\n      dup3\n        /* \"#utility.yul\":1093:1171   */\n      and\n        /* \"#utility.yul\":1082:1171   */\n      swap1\n      pop\n        /* \"#utility.yul\":1028:1177   */\n      swap2\n      swap1\n      pop\n      jump\t// out\n        /* \"#utility.yul\":1183:1298   */\n    tag_70:\n        /* \"#utility.yul\":1268:1291   */\n      tag_94\n        /* \"#utility.yul\":1285:1290   */\n      dup2\n        /* \"#utility.yul\":1268:1291   */\n      tag_69\n      jump\t// in\n    tag_94:\n        /* \"#utility.yul\":1263:1266   */\n      dup3\n        /* \"#utility.yul\":1256:1292   */\n      mstore\n        /* \"#utility.yul\":1183:1298   */\n      pop\n      pop\n      jump\t// out\n        /* \"#utility.yul\":1304:1522   */\n    tag_32:\n        /* \"#utility.yul\":1395:1399   */\n      0x00\n        /* \"#utility.yul\":1433:1435   */\n      0x20\n        /* \"#utility.yul\":1422:1431   */\n      dup3\n        /* \"#utility.yul\":1418:1436   */\n      add\n        /* \"#utility.yul\":1410:1436   */\n      swap1\n      pop\n        /* \"#utility.yul\":1446:1515   */\n      tag_96\n        /* \"#utility.yul\":1512:1513   */\n      0x00\n        /* \"#utility.yul\":1501:1510   */\n      dup4\n        /* \"#utility.yul\":1497:1514   */\n      add\n        /* \"#utility.yul\":1488:1494   */\n      dup5\n        /* \"#utility.yul\":1446:1515   */\n      tag_70\n      jump\t// in\n    tag_96:\n        /* \"#utility.yul\":1304:1522   */\n      swap3\n      swap2\n      pop\n      pop\n      jump\t// out\n        /* \"#utility.yul\":1528:1618   */\n    tag_71:\n        /* \"#utility.yul\":1562:1569   */\n      0x00\n        /* \"#utility.yul\":1605:1610   */\n      dup2\n        /* \"#utility.yul\":1598:1611   */\n      iszero\n        /* \"#utility.yul\":1591:1612   */\n      iszero\n        /* \"#utility.yul\":1580:1612   */\n      swap1\n      pop\n        /* \"#utility.yul\":1528:1618   */\n      swap2\n      swap1\n      pop\n      jump\t// out\n        /* \"#utility.yul\":1624:1733   */\n    tag_72:\n        /* \"#utility.yul\":1705:1726   */\n      tag_99\n        /* \"#utility.yul\":1720:1725   */\n      dup2\n        /* \"#utility.yul\":1705:1726   */\n      tag_71\n      jump\t// in\n    tag_99:\n        /* \"#utility.yul\":1700:1703   */\n      dup3\n        /* \"#utility.yul\":1693:1727   */\n      mstore\n        /* \"#utility.yul\":1624:1733   */\n      pop\n      pop\n      jump\t// out\n        /* \"#utility.yul\":1739:1949   */\n    tag_45:\n        /* \"#utility.yul\":1826:1830   */\n      0x00\n        /* \"#utility.yul\":1864:1866   */\n      0x20\n        /* \"#utility.yul\":1853:1862   */\n      dup3\n        /* \"#utility.yul\":1849:1867   */\n      add\n        /* \"#utility.yul\":1841:1867   */\n      swap1\n      pop\n        /* \"#utility.yul\":1877:1942   */\n      tag_101\n        /* \"#utility.yul\":1939:1940   */\n      0x00\n        /* \"#utility.yul\":1928:1937   */\n      dup4\n        /* \"#utility.yul\":1924:1941   */\n      add\n        /* \"#utility.yul\":1915:1921   */\n      dup5\n        /* \"#utility.yul\":1877:1942   */\n      tag_72\n      jump\t// in\n    tag_101:\n        /* \"#utility.yul\":1739:1949   */\n      swap3\n      swap2\n      pop\n      pop\n      jump\t// out\n        /* \"#utility.yul\":1955:2032   */\n    tag_73:\n        /* \"#utility.yul\":1992:1999   */\n      0x00\n        /* \"#utility.yul\":2021:2026   */\n      dup2\n        /* \"#utility.yul\":2010:2026   */\n      swap1\n      pop\n        /* \"#utility.yul\":1955:2032   */\n      swap2\n      swap1\n      pop\n      jump\t// out\n        /* \"#utility.yul\":2038:2156   */\n    tag_74:\n        /* \"#utility.yul\":2125:2149   */\n      tag_104\n        /* \"#utility.yul\":2143:2148   */\n      dup2\n        /* \"#utility.yul\":2125:2149   */\n      tag_73\n      jump\t// in\n    tag_104:\n        /* \"#utility.yul\":2120:2123   */\n      dup3\n        /* \"#utility.yul\":2113:2150   */\n      mstore\n        /* \"#utility.yul\":2038:2156   */\n      pop\n      pop\n      jump\t// out\n        /* \"#utility.yul\":2162:2384   */\n    tag_49:\n        /* \"#utility.yul\":2255:2259   */\n      0x00\n        /* \"#utility.yul\":2293:2295   */\n      0x20\n        /* \"#utility.yul\":2282:2291   */\n      dup3\n        /* \"#utility.yul\":2278:2296   */\n      add\n        /* \"#utility.yul\":2270:2296   */\n      swap1\n      pop\n        /* \"#utility.yul\":2306:2377   */\n      tag_106\n        /* \"#utility.yul\":2374:2375   */\n      0x00\n        /* \"#utility.yul\":2363:2372   */\n      dup4\n        /* \"#utility.yul\":2359:2376   */\n      add\n        /* \"#utility.yul\":2350:2356   */\n      dup5\n        /* \"#utility.yul\":2306:2377   */\n      tag_74\n      jump\t// in\n    tag_106:\n        /* \"#utility.yul\":2162:2384   */\n      swap3\n      swap2\n      pop\n      pop\n      jump\t// out\n        /* \"#utility.yul\":2390:2494   */\n    tag_75:\n        /* \"#utility.yul\":2435:2442   */\n      0x00\n        /* \"#utility.yul\":2464:2488   */\n      tag_108\n        /* \"#utility.yul\":2482:2487   */\n      dup3\n        /* \"#utility.yul\":2464:2488   */\n      tag_64\n      jump\t// in\n    tag_108:\n        /* \"#utility.yul\":2453:2488   */\n      swap1\n      pop\n        /* \"#utility.yul\":2390:2494   */\n      swap2\n      swap1\n      pop\n      jump\t// out\n        /* \"#utility.yul\":2500:2642   */\n    tag_76:\n        /* \"#utility.yul\":2603:2635   */\n      tag_110\n        /* \"#utility.yul\":2629:2634   */\n      dup2\n        /* \"#utility.yul\":2603:2635   */\n      tag_75\n      jump\t// in\n    tag_110:\n        /* \"#utility.yul\":2598:2601   */\n      dup3\n        /* \"#utility.yul\":2591:2636   */\n      mstore\n        /* \"#utility.yul\":2500:2642   */\n      pop\n      pop\n      jump\t// out\n        /* \"#utility.yul\":2648:2902   */\n    tag_56:\n        /* \"#utility.yul\":2757:2761   */\n      0x00\n        /* \"#utility.yul\":2795:2797   */\n      0x20\n        /* \"#utility.yul\":2784:2793   */\n      dup3\n        /* \"#utility.yul\":2780:2798   */\n      add\n        /* \"#utility.yul\":2772:2798   */\n      swap1\n      pop\n        /* \"#utility.yul\":2808:2895   */\n      tag_112\n        /* \"#utility.yul\":2892:2893   */\n      0x00\n        /* \"#utility.yul\":2881:2890   */\n      dup4\n        /* \"#utility.yul\":2877:2894   */\n      add\n        /* \"#utility.yul\":2868:2874   */\n      dup5\n        /* \"#utility.yul\":2808:2895   */\n      tag_76\n      jump\t// in\n    tag_112:\n        /* \"#utility.yul\":2648:2902   */\n      swap3\n      swap2\n      pop\n      pop\n      jump\t// out\n        /* \"#utility.yul\":2908:2984   */\n    tag_77:\n        /* \"#utility.yul\":2944:2951   */\n      0x00\n        /* \"#utility.yul\":2973:2978   */\n      dup2\n        /* \"#utility.yul\":2962:2978   */\n      swap1\n      pop\n        /* \"#utility.yul\":2908:2984   */\n      swap2\n      swap1\n      pop\n      jump\t// out\n        /* \"#utility.yul\":2990:3105   */\n    tag_78:\n        /* \"#utility.yul\":3075:3098   */\n      tag_115\n        /* \"#utility.yul\":3092:3097   */\n      dup2\n        /* \"#utility.yul\":3075:3098   */\n      tag_77\n      jump\t// in\n    tag_115:\n        /* \"#utility.yul\":3070:3073   */\n      dup3\n        /* \"#utility.yul\":3063:3099   */\n      mstore\n        /* \"#utility.yul\":2990:3105   */\n      pop\n      pop\n      jump\t// out\n        /* \"#utility.yul\":3111:3329   */\n    tag_60:\n        /* \"#utility.yul\":3202:3206   */\n      0x00\n        /* \"#utility.yul\":3240:3242   */\n      0x20\n        /* \"#utility.yul\":3229:3238   */\n      dup3\n        /* \"#utility.yul\":3225:3243   */\n      add\n        /* \"#utility.yul\":3217:3243   */\n      swap1\n      pop\n        /* \"#utility.yul\":3253:3322   */\n      tag_117\n        /* \"#utility.yul\":3319:3320   */\n      0x00\n        /* \"#utility.yul\":3308:3317   */\n      dup4\n        /* \"#utility.yul\":3304:3321   */\n      add\n        /* \"#utility.yul\":3295:3301   */\n      dup5\n        /* \"#utility.yul\":3253:3322   */\n      tag_78\n      jump\t// in\n    tag_117:\n        /* \"#utility.yul\":3111:3329   */\n      swap3\n      swap2\n      pop\n      pop\n      jump\t// out\n\n    auxdata: 0xa264697066735822122095a4508e820cea4e422332009cd7ff329a4b3ca2718fe55650fb0e473b4c92a564736f6c634300081e0033\n}\n",
				"bytecode": {
					"linkReferences": {},
					"object": "608060405260015f5f6101000a81548160ff0219169083151502179055505f5f60016101000a81548160ff0219169083151502179055506001805560028055620675ff600355600160035461005491906101fc565b6004556001600454610066919061022f565b6005556004600655737a58c0be72be218b41c608b7fe7c5bb630736c7160075f6101000a81548173ffffffffffffffffffffffffffffffffffffffff021916908373ffffffffffffffffffffffffffffffffffffffff16021790555060075f9054906101000a900473ffffffffffffffffffffffffffffffffffffffff1660085f6101000a81548173ffffffffffffffffffffffffffffffffffffffff021916908373ffffffffffffffffffffffffffffffffffffffff16021790555060085f9054906101000a900473ffffffffffffffffffffffffffffffffffffffff1673ffffffffffffffffffffffffffffffffffffffff16316009557f6d696e69736f6c69646966790000000000000000000000000000000000000000600a55600a545f6020811061019857610197610262565b5b1a60f81b600b5f6101000a81548160ff021916908360f81c02179055503480156101c0575f5ffd5b5061028f565b5f819050919050565b7f4e487b71000000000000000000000000000000000000000000000000000000005f52601160045260245ffd5b5f610206826101c6565b9150610211836101c6565b9250828201905080821115610229576102286101cf565b5b92915050565b5f610239826101c6565b9150610244836101c6565b925082820390508181111561025c5761025b6101cf565b5b92915050565b7f4e487b71000000000000000000000000000000000000000000000000000000005f52603260045260245ffd5b6104e68061029c5f395ff3fe608060405234801561000f575f5ffd5b50600436106100cd575f3560e01c80636e8d0c9e1161008a578063a2e7fe8a11610064578063a2e7fe8a146101df578063ac729403146101fd578063af45869e1461021b578063f9bd55cc14610239576100cd565b80636e8d0c9e14610185578063924b3d21146101a357806393f2b398146101c1576100cd565b806318bad217146100d157806319bff7df146100ef5780632543135b1461010d578063307ca2f21461012b57806356c4e05a146101495780636b1d2c4e14610167575b5f5ffd5b6100d9610257565b6040516100e69190610345565b60405180910390f35b6100f761027c565b6040516101049190610376565b60405180910390f35b610115610282565b6040516101229190610376565b60405180910390f35b610133610288565b60405161014091906103c9565b60405180910390f35b61015161029a565b60405161015e9190610376565b60405180910390f35b61016f6102a0565b60405161017c9190610376565b60405180910390f35b61018d6102a6565b60405161019a9190610376565b60405180910390f35b6101ab6102ac565b6040516101b891906103fc565b60405180910390f35b6101c96102bd565b6040516101d6919061042d565b60405180910390f35b6101e76102c3565b6040516101f491906103fc565b60405180910390f35b6102056102d5565b6040516102129190610466565b60405180910390f35b6102236102fa565b6040516102309190610497565b60405180910390f35b610241610300565b60405161024e9190610376565b60405180910390f35b60075f9054906101000a900473ffffffffffffffffffffffffffffffffffffffff1681565b60065481565b60025481565b600b5f9054906101000a900460f81b81565b60095481565b60055481565b60045481565b5f5f9054906101000a900460ff1681565b600a5481565b5f60019054906101000a900460ff1681565b60085f9054906101000a900473ffffffffffffffffffffffffffffffffffffffff1681565b60015481565b60035481565b5f73ffffffffffffffffffffffffffffffffffffffff82169050919050565b5f61032f82610306565b9050919050565b61033f81610325565b82525050565b5f6020820190506103585f830184610336565b92915050565b5f819050919050565b6103708161035e565b82525050565b5f6020820190506103895f830184610367565b92915050565b5f7fff0000000000000000000000000000000000000000000000000000000000000082169050919050565b6103c38161038f565b82525050565b5f6020820190506103dc5f8301846103ba565b92915050565b5f8115159050919050565b6103f6816103e2565b82525050565b5f60208201905061040f5f8301846103ed565b92915050565b5f819050919050565b61042781610415565b82525050565b5f6020820190506104405f83018461041e565b92915050565b5f61045082610306565b9050919050565b61046081610446565b82525050565b5f6020820190506104795f830184610457565b92915050565b5f819050919050565b6104918161047f565b82525050565b5f6020820190506104aa5f830184610488565b9291505056fea264697066735822122095a4508e820cea4e422332009cd7ff329a4b3ca2718fe55650fb0e473b4c92a564736f6c634300081e0033",
					"opcodes": "PUSH1 0x80 PUSH1 0x40 MSTORE PUSH1 0x1 PUSH0 PUSH0 PUSH2 0x100 EXP DUP2 SLOAD DUP2 PUSH1 0xFF MUL NOT AND SWAP1 DUP4 ISZERO ISZERO MUL OR SWAP1 SSTORE POP PUSH0 PUSH0 PUSH1 0x1 PUSH2 0x100 EXP DUP2 SLOAD DUP2 PUSH1 0xFF MUL NOT AND SWAP1 DUP4 ISZERO ISZERO MUL OR SWAP1 SSTORE POP PUSH1 0x1 DUP1 SSTORE PUSH1 0x2 DUP1 SSTORE PUSH3 0x675FF PUSH1 0x3 SSTORE PUSH1 0x1 PUSH1 0x3 SLOAD PUSH2 0x54 SWAP2 SWAP1 PUSH2 0x1FC JUMP JUMPDEST PUSH1 0x4 SSTORE PUSH1 0x1 PUSH1 0x4 SLOAD PUSH2 0x66 SWAP2 SWAP1 PUSH2 0x22F JUMP JUMPDEST PUSH1 0x5 SSTORE PUSH1 0x4 PUSH1 0x6 SSTORE PUSH20 0x7A58C0BE72BE218B41C608B7FE7C5BB630736C71 PUSH1 0x7 PUSH0 PUSH2 0x100 EXP DUP2 SLOAD DUP2 PUSH20 0xFFFFFFFFFFFFFFFFFFFFFFFFFFFFFFFFFFFFFFFF MUL NOT AND SWAP1 DUP4 PUSH20 0xFFFFFFFFFFFFFFFFFFFFFFFFFFFFFFFFFFFFFFFF AND MUL OR SWAP1 SSTORE POP PUSH1 0x7 PUSH0 SWAP1 SLOAD SWAP1 PUSH2 0x100 EXP SWAP1 DIV PUSH20 0xFFFFFFFFFFFFFFFFFFFFFFFFFFFFFFFFFFFFFFFF AND PUSH1 0x8 PUSH0 PUSH2 0x100 EXP DUP2 SLOAD DUP2 PUSH20 0xFFFFFFFFFFFFFFFFFFFFFFFFFFFFFFFFFFFFFFFF MUL NOT AND SWAP1 DUP4 PUSH20 0xFFFFFFFFFFFFFFFFFFFFFFFFFFFFFFFFFFFFFFFF AND MUL OR SWAP1 SSTORE POP PUSH1 0x8 PUSH0 SWAP1 SLOAD SWAP1 PUSH2 0x100 EXP SWAP1 DIV PUSH20 0xFFFFFFFFFFFFFFFFFFFFFFFFFFFFFFFFFFFFFFFF AND PUSH20 0xFFFFFFFFFFFFFFFFFFFFFFFFFFFFFFFFFFFFFFFF AND BALANCE PUSH1 0x9 SSTORE PUSH32 0x6D696E69736F6C69646966790000000000000000000000000000000000000000 PUSH1 0xA SSTORE PUSH1 0xA SLOAD PUSH0 PUSH1 0x20 DUP2 LT PUSH2 0x198 JUMPI PUSH2 0x197 PUSH2 0x262 JUMP JUMPDEST JUMPDEST BYTE PUSH1 0xF8 SHL PUSH1 0xB PUSH0 PUSH2 0x100 EXP DUP2 SLOAD DUP2 PUSH1 0xFF MUL NOT AND SWAP1 DUP4 PUSH1 0xF8 SHR MUL OR SWAP1 SSTORE POP CALLVALUE DUP1 ISZERO PUSH2 0x1C0 JUMPI PUSH0 PUSH0 REVERT JUMPDEST POP PUSH2 0x28F JUMP JUMPDEST PUSH0 DUP2 SWAP1 POP SWAP2 SWAP1 POP JUMP JUMPDEST PUSH32 0x4E487B7100000000000000000000000000000000000000000000000000000000 PUSH0 MSTORE PUSH1 0x11 PUSH1 0x4 MSTORE PUSH1 0x24 PUSH0 REVERT JUMPDEST PUSH0 PUSH2 0x206 DUP3 PUSH2 0x1C6 JUMP JUMPDEST SWAP2 POP PUSH2 0x211 DUP4 PUSH2 0x1C6 JUMP JUMPDEST SWAP3 POP DUP3 DUP3 ADD SWAP1 POP DUP1 DUP3 GT ISZERO PUSH2 0x229 JUMPI PUSH2 0x228 PUSH2 0x1CF JUMP JUMPDEST JUMPDEST SWAP3 SWAP2 POP POP JUMP JUMPDEST PUSH0 PUSH2 0x239 DUP3 PUSH2 0x1C6 JUMP JUMPDEST SWAP2 POP PUSH2 0x244 DUP4 PUSH2 0x1C6 JUMP JUMPDEST SWAP3 POP DUP3 DUP3 SUB SWAP1 POP DUP2 DUP2 GT ISZERO PUSH2 0x25C JUMPI PUSH2 0x25B PUSH2 0x1CF JUMP JUMPDEST JUMPDEST SWAP3 SWAP2 POP POP JUMP JUMPDEST PUSH32 0x4E487B7100000000000000000000000000000000000000000000000000000000 PUSH0 MSTORE PUSH1 0x32 PUSH1 0x4 MSTORE PUSH1 0x24 PUSH0 REVERT JUMPDEST PUSH2 0x4E6 DUP1 PUSH2 0x29C PUSH0 CODECOPY PUSH0 RETURN INVALID PUSH1 0x80 PUSH1 0x40 MSTORE CALLVALUE DUP1 ISZERO PUSH2 0xF JUMPI PUSH0 PUSH0 REVERT JUMPDEST POP PUSH1 0x4 CALLDATASIZE LT PUSH2 0xCD JUMPI PUSH0 CALLDATALOAD PUSH1 0xE0 SHR DUP1 PUSH4 0x6E8D0C9E GT PUSH2 0x8A JUMPI DUP1 PUSH4 0xA2E7FE8A GT PUSH2 0x64 JUMPI DUP1 PUSH4 0xA2E7FE8A EQ PUSH2 0x1DF JUMPI DUP1 PUSH4 0xAC729403 EQ PUSH2 0x1FD JUMPI DUP1 PUSH4 0xAF45869E EQ PUSH2 0x21B JUMPI DUP1 PUSH4 0xF9BD55CC EQ PUSH2 0x239 JUMPI PUSH2 0xCD JUMP JUMPDEST DUP1 PUSH4 0x6E8D0C9E EQ PUSH2 0x185 JUMPI DUP1 PUSH4 0x924B3D21 EQ PUSH2 0x1A3 JUMPI DUP1 PUSH4 0x93F2B398 EQ PUSH2 0x1C1 JUMPI PUSH2 0xCD JUMP JUMPDEST DUP1 PUSH4 0x18BAD217 EQ PUSH2 0xD1 JUMPI DUP1 PUSH4 0x19BFF7DF EQ PUSH2 0xEF JUMPI DUP1 PUSH4 0x2543135B EQ PUSH2 0x10D JUMPI DUP1 PUSH4 0x307CA2F2 EQ PUSH2 0x12B JUMPI DUP1 PUSH4 0x56C4E05A EQ PUSH2 0x149 JUMPI DUP1 PUSH4 0x6B1D2C4E EQ PUSH2 0x167 JUMPI JUMPDEST PUSH0 PUSH0 REVERT JUMPDEST PUSH2 0xD9 PUSH2 0x257 JUMP JUMPDEST PUSH1 0x40 MLOAD PUSH2 0xE6 SWAP2 SWAP1 PUSH2 0x345 JUMP JUMPDEST PUSH1 0x40 MLOAD DUP1 SWAP2 SUB SWAP1 RETURN JUMPDEST PUSH2 0xF7 PUSH2 0x27C JUMP JUMPDEST PUSH1 0x40 MLOAD PUSH2 0x104 SWAP2 SWAP1 PUSH2 0x376 JUMP JUMPDEST PUSH1 0x40 MLOAD DUP1 SWAP2 SUB SWAP1 RETURN JUMPDEST PUSH2 0x115 PUSH2 0x282 JUMP JUMPDEST PUSH1 0x40 MLOAD PUSH2 0x122 SWAP2 SWAP1 PUSH2 0x376 JUMP JUMPDEST PUSH1 0x40 MLOAD DUP1 SWAP2 SUB SWAP1 RETURN JUMPDEST PUSH2 0x133 PUSH2 0x288 JUMP JUMPDEST PUSH1 0x40 MLOAD PUSH2 0x140 SWAP2 SWAP1 PUSH2 0x3C9 JUMP JUMPDEST PUSH1 0x40 MLOAD DUP1 SWAP2 SUB SWAP1 RETURN JUMPDEST PUSH2 0x151 PUSH2 0x29A JUMP JUMPDEST PUSH1 0x40 MLOAD PUSH2 0x15E SWAP2 SWAP1 PUSH2 0x376 JUMP JUMPDEST PUSH1 0x40 MLOAD DUP1 SWAP2 SUB SWAP1 RETURN JUMPDEST PUSH2 0x16F PUSH2 0x2A0 JUMP JUMPDEST PUSH1 0x40 MLOAD PUSH2 0x17C SWAP2 SWAP1 PUSH2 0x376 JUMP JUMPDEST PUSH1 0x40 MLOAD DUP1 SWAP2 SUB SWAP1 RETURN JUMPDEST PUSH2 0x18D PUSH2 0x2A6 JUMP JUMPDEST PUSH1 0x40 MLOAD PUSH2 0x19A SWAP2 SWAP1 PUSH2 0x376 JUMP JUMPDEST PUSH1 0x40 MLOAD DUP1 SWAP2 SUB SWAP1 RETURN JUMPDEST PUSH2 0x1AB PUSH2 0x2AC JUMP JUMPDEST PUSH1 0x40 MLOAD PUSH2 0x1B8 SWAP2 SWAP1 PUSH2 0x3FC JUMP JUMPDEST PUSH1 0x40 MLOAD DUP1 SWAP2 SUB SWAP1 RETURN JUMPDEST PUSH2 0x1C9 PUSH2 0x2BD JUMP JUMPDEST PUSH1 0x40 MLOAD PUSH2 0x1D6 SWAP2 SWAP1 PUSH2 0x42D JUMP JUMPDEST PUSH1 0x40 MLOAD DUP1 SWAP2 SUB SWAP1 RETURN JUMPDEST PUSH2 0x1E7 PUSH2 0x2C3 JUMP JUMPDEST PUSH1 0x40 MLOAD PUSH2 0x1F4 SWAP2 SWAP1 PUSH2 0x3FC JUMP JUMPDEST PUSH1 0x40 MLOAD DUP1 SWAP2 SUB SWAP1 RETURN JUMPDEST PUSH2 0x205 PUSH2 0x2D5 JUMP JUMPDEST PUSH1 0x40 MLOAD PUSH2 0x212 SWAP2 SWAP1 PUSH2 0x466 JUMP JUMPDEST PUSH1 0x40 MLOAD DUP1 SWAP2 SUB SWAP1 RETURN JUMPDEST PUSH2 0x223 PUSH2 0x2FA JUMP JUMPDEST PUSH1 0x40 MLOAD PUSH2 0x230 SWAP2 SWAP1 PUSH2 0x497 JUMP JUMPDEST PUSH1 0x40 MLOAD DUP1 SWAP2 SUB SWAP1 RETURN JUMPDEST PUSH2 0x241 PUSH2 0x300 JUMP JUMPDEST PUSH1 0x40 MLOAD PUSH2 0x24E SWAP2 SWAP1 PUSH2 0x376 JUMP JUMPDEST PUSH1 0x40 MLOAD DUP1 SWAP2 SUB SWAP1 RETURN JUMPDEST PUSH1 0x7 PUSH0 SWAP1 SLOAD SWAP1 PUSH2 0x100 EXP SWAP1 DIV PUSH20 0xFFFFFFFFFFFFFFFFFFFFFFFFFFFFFFFFFFFFFFFF AND DUP2 JUMP JUMPDEST PUSH1 0x6 SLOAD DUP2 JUMP JUMPDEST PUSH1 0x2 SLOAD DUP2 JUMP JUMPDEST PUSH1 0xB PUSH0 SWAP1 SLOAD SWAP1 PUSH2 0x100 EXP SWAP1 DIV PUSH1 0xF8 SHL DUP2 JUMP JUMPDEST PUSH1 0x9 SLOAD DUP2 JUMP JUMPDEST PUSH1 0x5 SLOAD DUP2 JUMP JUMPDEST PUSH1 0x4 SLOAD DUP2 JUMP JUMPDEST PUSH0 PUSH0 SWAP1 SLOAD SWAP1 PUSH2 0x100 EXP SWAP1 DIV PUSH1 0xFF AND DUP2 JUMP JUMPDEST PUSH1 0xA SLOAD DUP2 JUMP JUMPDEST PUSH0 PUSH1 0x1 SWAP1 SLOAD SWAP1 PUSH2 0x100 EXP SWAP1 DIV PUSH1 0xFF AND DUP2 JUMP JUMPDEST PUSH1 0x8 PUSH0 SWAP1 SLOAD SWAP1 PUSH2 0x100 EXP SWAP1 DIV PUSH20 0xFFFFFFFFFFFFFFFFFFFFFFFFFFFFFFFFFFFFFFFF AND DUP2 JUMP JUMPDEST PUSH1 0x1 SLOAD DUP2 JUMP JUMPDEST PUSH1 0x3 SLOAD DUP2 JUMP JUMPDEST PUSH0 PUSH20 0xFFFFFFFFFFFFFFFFFFFFFFFFFFFFFFFFFFFFFFFF DUP3 AND SWAP1 POP SWAP2 SWAP1 POP JUMP JUMPDEST PUSH0 PUSH2 0x32F DUP3 PUSH2 0x306 JUMP JUMPDEST SWAP1 POP SWAP2 SWAP1 POP JUMP JUMPDEST PUSH2 0x33F DUP2 PUSH2 0x325 JUMP JUMPDEST DUP3 MSTORE POP POP JUMP JUMPDEST PUSH0 PUSH1 0x20 DUP3 ADD SWAP1 POP PUSH2 0x358 PUSH0 DUP4 ADD DUP5 PUSH2 0x336 JUMP JUMPDEST SWAP3 SWAP2 POP POP JUMP JUMPDEST PUSH0 DUP2 SWAP1 POP SWAP2 SWAP1 POP JUMP JUMPDEST PUSH2 0x370 DUP2 PUSH2 0x35E JUMP JUMPDEST DUP3 MSTORE POP POP JUMP JUMPDEST PUSH0 PUSH1 0x20 DUP3 ADD SWAP1 POP PUSH2 0x389 PUSH0 DUP4 ADD DUP5 PUSH2 0x367 JUMP JUMPDEST SWAP3 SWAP2 POP POP JUMP JUMPDEST PUSH0 PUSH32 0xFF00000000000000000000000000000000000000000000000000000000000000 DUP3 AND SWAP1 POP SWAP2 SWAP1 POP JUMP JUMPDEST PUSH2 0x3C3 DUP2 PUSH2 0x38F JUMP JUMPDEST DUP3 MSTORE POP POP JUMP JUMPDEST PUSH0 PUSH1 0x20 DUP3 ADD SWAP1 POP PUSH2 0x3DC PUSH0 DUP4 ADD DUP5 PUSH2 0x3BA JUMP JUMPDEST SWAP3 SWAP2 POP POP JUMP JUMPDEST PUSH0 DUP2 ISZERO ISZERO SWAP1 POP SWAP2 SWAP1 POP JUMP JUMPDEST PUSH2 0x3F6 DUP2 PUSH2 0x3E2 JUMP JUMPDEST DUP3 MSTORE POP POP JUMP JUMPDEST PUSH0 PUSH1 0x20 DUP3 ADD SWAP1 POP PUSH2 0x40F PUSH0 DUP4 ADD DUP5 PUSH2 0x3ED JUMP JUMPDEST SWAP3 SWAP2 POP POP JUMP JUMPDEST PUSH0 DUP2 SWAP1 POP SWAP2 SWAP1 POP JUMP JUMPDEST PUSH2 0x427 DUP2 PUSH2 0x415 JUMP JUMPDEST DUP3 MSTORE POP POP JUMP JUMPDEST PUSH0 PUSH1 0x20 DUP3 ADD SWAP1 POP PUSH2 0x440 PUSH0 DUP4 ADD DUP5 PUSH2 0x41E JUMP JUMPDEST SWAP3 SWAP2 POP POP JUMP JUMPDEST PUSH0 PUSH2 0x450 DUP3 PUSH2 0x306 JUMP JUMPDEST SWAP1 POP SWAP2 SWAP1 POP JUMP JUMPDEST PUSH2 0x460 DUP2 PUSH2 0x446 JUMP JUMPDEST DUP3 MSTORE POP POP JUMP JUMPDEST PUSH0 PUSH1 0x20 DUP3 ADD SWAP1 POP PUSH2 0x479 PUSH0 DUP4 ADD DUP5 PUSH2 0x457 JUMP JUMPDEST SWAP3 SWAP2 POP POP JUMP JUMPDEST PUSH0 DUP2 SWAP1 POP SWAP2 SWAP1 POP JUMP JUMPDEST PUSH2 0x491 DUP2 PUSH2 0x47F JUMP JUMPDEST DUP3 MSTORE POP POP JUMP JUMPDEST PUSH0 PUSH1 0x20 DUP3 ADD SWAP1 POP PUSH2 0x4AA PUSH0 DUP4 ADD DUP5 PUSH2 0x488 JUMP JUMPDEST SWAP3 SWAP2 POP POP JUMP INVALID LOG2 PUSH5 0x6970667358 0x22 SLT KECCAK256 SWAP6 LOG4 POP DUP15 DUP3 0xC 0xEA 0x4E TIMESTAMP 0x23 ORIGIN STOP SWAP13 0xD7 SELFDESTRUCT ORIGIN SWAP11 0x4B EXTCODECOPY LOG2 PUSH18 0x8FE55650FB0E473B4C92A564736F6C634300 ADDMOD 0x1E STOP CALLER "
				},
				"gasEstimates": {
					"creation": {
						"codeDepositCost": "250800",
						"executionCost": "infinite",
						"totalCost": "infinite"
					},
					"external": {
						"_address()": "2509",
						"_address1()": "2552",
						"_balance()": "2514",
						"_bool1()": "2510",
						"_bool2()": "2538",
						"_byes1()": "2533",
						"_bytes32()": "2492",
						"_int()": "2491",
						"_number()": "2513",
						"_number1()": "2448",
						"_number2()": "2536",
						"_number3()": "2448",
						"_uint()": "2470"
					}
				},
				"methodIdentifiers": {
					"_address()": "18bad217",
					"_address1()": "ac729403",
					"_balance()": "56c4e05a",
					"_bool1()": "924b3d21",
					"_bool2()": "a2e7fe8a",
					"_byes1()": "307ca2f2",
					"_bytes32()": "93f2b398",
					"_int()": "af45869e",
					"_number()": "f9bd55cc",
					"_number1()": "6e8d0c9e",
					"_number2()": "6b1d2c4e",
					"_number3()": "19bff7df",
					"_uint()": "2543135b"
				}
			},
			"storageLayout": {
				"storage": [
					{
						"astId": 4,
						"contract": "valueType.sol:valueType",
						"label": "_bool1",
						"offset": 0,
						"slot": "0",
						"type": "t_bool"
					},
					{
						"astId": 7,
						"contract": "valueType.sol:valueType",
						"label": "_bool2",
						"offset": 1,
						"slot": "0",
						"type": "t_bool"
					},
					{
						"astId": 10,
						"contract": "valueType.sol:valueType",
						"label": "_int",
						"offset": 0,
						"slot": "1",
						"type": "t_int256"
					},
					{
						"astId": 13,
						"contract": "valueType.sol:valueType",
						"label": "_uint",
						"offset": 0,
						"slot": "2",
						"type": "t_uint256"
					},
					{
						"astId": 16,
						"contract": "valueType.sol:valueType",
						"label": "_number",
						"offset": 0,
						"slot": "3",
						"type": "t_uint256"
					},
					{
						"astId": 21,
						"contract": "valueType.sol:valueType",
						"label": "_number1",
						"offset": 0,
						"slot": "4",
						"type": "t_uint256"
					},
					{
						"astId": 26,
						"contract": "valueType.sol:valueType",
						"label": "_number2",
						"offset": 0,
						"slot": "5",
						"type": "t_uint256"
					},
					{
						"astId": 31,
						"contract": "valueType.sol:valueType",
						"label": "_number3",
						"offset": 0,
						"slot": "6",
						"type": "t_uint256"
					},
					{
						"astId": 34,
						"contract": "valueType.sol:valueType",
						"label": "_address",
						"offset": 0,
						"slot": "7",
						"type": "t_address"
					},
					{
						"astId": 40,
						"contract": "valueType.sol:valueType",
						"label": "_address1",
						"offset": 0,
						"slot": "8",
						"type": "t_address_payable"
					},
					{
						"astId": 44,
						"contract": "valueType.sol:valueType",
						"label": "_balance",
						"offset": 0,
						"slot": "9",
						"type": "t_uint256"
					},
					{
						"astId": 47,
						"contract": "valueType.sol:valueType",
						"label": "_bytes32",
						"offset": 0,
						"slot": "10",
						"type": "t_bytes32"
					},
					{
						"astId": 52,
						"contract": "valueType.sol:valueType",
						"label": "_byes1",
						"offset": 0,
						"slot": "11",
						"type": "t_bytes1"
					}
				],
				"types": {
					"t_address": {
						"encoding": "inplace",
						"label": "address",
						"numberOfBytes": "20"
					},
					"t_address_payable": {
						"encoding": "inplace",
						"label": "address payable",
						"numberOfBytes": "20"
					},
					"t_bool": {
						"encoding": "inplace",
						"label": "bool",
						"numberOfBytes": "1"
					},
					"t_bytes1": {
						"encoding": "inplace",
						"label": "bytes1",
						"numberOfBytes": "1"
					},
					"t_bytes32": {
						"encoding": "inplace",
						"label": "bytes32",
						"numberOfBytes": "32"
					},
					"t_int256": {
						"encoding": "inplace",
						"label": "int256",
						"numberOfBytes": "32"
					},
					"t_uint256": {
						"encoding": "inplace",
						"label": "uint256",
						"numberOfBytes": "32"
					}
				}
			},
			"userdoc": {
				"kind": "user",
				"methods": {},
				"version": 1
			}
		}
	}
}