{
	"study/arrayAndStruct.sol": {
		"StructTypes": {
			"abi": [
				{
					"inputs": [],
					"name": "initStudent",
					"outputs": [],
					"stateMutability": "nonpayable",
					"type": "function"
				},
				{
					"inputs": [],
					"name": "initStudent2",
					"outputs": [],
					"stateMutability": "nonpayable",
					"type": "function"
				},
				{
					"inputs": [],
					"name": "initStudent3",
					"outputs": [],
					"stateMutability": "nonpayable",
					"type": "function"
				},
				{
					"inputs": [],
					"name": "initStudent4",
					"outputs": [],
					"stateMutability": "nonpayable",
					"type": "function"
				}
			],
			"devdoc": {
				"kind": "dev",
				"methods": {},
				"version": 1
			},
			"evm": {
				"assembly": "    /* \"study/arrayAndStruct.sol\":793:1572  contract StructTypes{... */\n  mstore(0x40, 0x80)\n  callvalue\n  dup1\n  iszero\n  tag_1\n  jumpi\n  revert(0x00, 0x00)\ntag_1:\n  pop\n  dataSize(sub_0)\n  dup1\n  dataOffset(sub_0)\n  0x00\n  codecopy\n  0x00\n  return\nstop\n\nsub_0: assembly {\n        /* \"study/arrayAndStruct.sol\":793:1572  contract StructTypes{... */\n      mstore(0x40, 0x80)\n      callvalue\n      dup1\n      iszero\n      tag_1\n      jumpi\n      revert(0x00, 0x00)\n    tag_1:\n      pop\n      jumpi(tag_2, lt(calldatasize, 0x04))\n      shr(0xe0, calldataload(0x00))\n      dup1\n      0x1a8d7dc3\n      eq\n      tag_3\n      jumpi\n      dup1\n      0x5a4236b1\n      eq\n      tag_4\n      jumpi\n      dup1\n      0x9ebb8d20\n      eq\n      tag_5\n      jumpi\n      dup1\n      0xdd49702c\n      eq\n      tag_6\n      jumpi\n    tag_2:\n      revert(0x00, 0x00)\n        /* \"study/arrayAndStruct.sol\":1241:1334  function initStudent2() external{... */\n    tag_3:\n      tag_7\n      tag_8\n      jump\t// in\n    tag_7:\n      stop\n        /* \"study/arrayAndStruct.sol\":1372:1448  function initStudent3() external {... */\n    tag_4:\n      tag_9\n      tag_10\n      jump\t// in\n    tag_9:\n      stop\n        /* \"study/arrayAndStruct.sol\":1482:1570  function initStudent4() external{... */\n    tag_5:\n      tag_11\n      tag_12\n      jump\t// in\n    tag_11:\n      stop\n        /* \"study/arrayAndStruct.sol\":1047:1185  function initStudent() external{... */\n    tag_6:\n      tag_13\n      tag_14\n      jump\t// in\n    tag_13:\n      stop\n        /* \"study/arrayAndStruct.sol\":1241:1334  function initStudent2() external{... */\n    tag_8:\n        /* \"study/arrayAndStruct.sol\":1296:1298  11 */\n      0x0b\n        /* \"study/arrayAndStruct.sol\":1283:1290  student */\n      0x00\n        /* \"study/arrayAndStruct.sol\":1283:1293  student.id */\n      0x00\n      add\n        /* \"study/arrayAndStruct.sol\":1283:1298  student.id = 11 */\n      dup2\n      swap1\n      sstore\n      pop\n        /* \"study/arrayAndStruct.sol\":1324:1327  100 */\n      0x64\n        /* \"study/arrayAndStruct.sol\":1308:1315  student */\n      0x00\n        /* \"study/arrayAndStruct.sol\":1308:1321  student.score */\n      0x01\n      add\n        /* \"study/arrayAndStruct.sol\":1308:1327  student.score = 100 */\n      dup2\n      swap1\n      sstore\n      pop\n        /* \"study/arrayAndStruct.sol\":1241:1334  function initStudent2() external{... */\n      jump\t// out\n        /* \"study/arrayAndStruct.sol\":1372:1448  function initStudent3() external {... */\n    tag_10:\n        /* \"study/arrayAndStruct.sol\":1425:1441  Student(11, 100) */\n      mload(0x40)\n      dup1\n      0x40\n      add\n      0x40\n      mstore\n      dup1\n        /* \"study/arrayAndStruct.sol\":1433:1435  11 */\n      0x0b\n        /* \"study/arrayAndStruct.sol\":1425:1441  Student(11, 100) */\n      dup2\n      mstore\n      0x20\n      add\n        /* \"study/arrayAndStruct.sol\":1437:1440  100 */\n      0x64\n        /* \"study/arrayAndStruct.sol\":1425:1441  Student(11, 100) */\n      dup2\n      mstore\n      pop\n        /* \"study/arrayAndStruct.sol\":1415:1422  student */\n      0x00\n        /* \"study/arrayAndStruct.sol\":1415:1441  student = Student(11, 100) */\n      0x00\n      dup3\n      add\n      mload\n      dup2\n      0x00\n      add\n      sstore\n      0x20\n      dup3\n      add\n      mload\n      dup2\n      0x01\n      add\n      sstore\n      swap1\n      pop\n      pop\n        /* \"study/arrayAndStruct.sol\":1372:1448  function initStudent3() external {... */\n      jump\t// out\n        /* \"study/arrayAndStruct.sol\":1482:1570  function initStudent4() external{... */\n    tag_12:\n        /* \"study/arrayAndStruct.sol\":1534:1563  Student({id: 11, score: 100}) */\n      mload(0x40)\n      dup1\n      0x40\n      add\n      0x40\n      mstore\n      dup1\n        /* \"study/arrayAndStruct.sol\":1547:1549  11 */\n      0x0b\n        /* \"study/arrayAndStruct.sol\":1534:1563  Student({id: 11, score: 100}) */\n      dup2\n      mstore\n      0x20\n      add\n        /* \"study/arrayAndStruct.sol\":1558:1561  100 */\n      0x64\n        /* \"study/arrayAndStruct.sol\":1534:1563  Student({id: 11, score: 100}) */\n      dup2\n      mstore\n      pop\n        /* \"study/arrayAndStruct.sol\":1524:1531  student */\n      0x00\n        /* \"study/arrayAndStruct.sol\":1524:1563  student = Student({id: 11, score: 100}) */\n      0x00\n      dup3\n      add\n      mload\n      dup2\n      0x00\n      add\n      sstore\n      0x20\n      dup3\n      add\n      mload\n      dup2\n      0x01\n      add\n      sstore\n      swap1\n      pop\n      pop\n        /* \"study/arrayAndStruct.sol\":1482:1570  function initStudent4() external{... */\n      jump\t// out\n        /* \"study/arrayAndStruct.sol\":1047:1185  function initStudent() external{... */\n    tag_14:\n        /* \"study/arrayAndStruct.sol\":1088:1112  Student storage _student */\n      0x00\n        /* \"study/arrayAndStruct.sol\":1115:1122  student */\n      0x00\n        /* \"study/arrayAndStruct.sol\":1088:1122  Student storage _student = student */\n      swap1\n      pop\n        /* \"study/arrayAndStruct.sol\":1146:1148  11 */\n      0x0b\n        /* \"study/arrayAndStruct.sol\":1132:1140  _student */\n      dup2\n        /* \"study/arrayAndStruct.sol\":1132:1143  _student.id */\n      0x00\n      add\n        /* \"study/arrayAndStruct.sol\":1132:1148  _student.id = 11 */\n      dup2\n      swap1\n      sstore\n      pop\n        /* \"study/arrayAndStruct.sol\":1175:1178  100 */\n      0x64\n        /* \"study/arrayAndStruct.sol\":1158:1166  _student */\n      dup2\n        /* \"study/arrayAndStruct.sol\":1158:1172  _student.score */\n      0x01\n      add\n        /* \"study/arrayAndStruct.sol\":1158:1178  _student.score = 100 */\n      dup2\n      swap1\n      sstore\n      pop\n        /* \"study/arrayAndStruct.sol\":1078:1185  {... */\n      pop\n        /* \"study/arrayAndStruct.sol\":1047:1185  function initStudent() external{... */\n      jump\t// out\n\n    auxdata: 0xa2646970667358221220b2b138599dba4cc307e9388678ba41e4df282a15c60ae7327c8ccd38e436ced164736f6c634300081e0033\n}\n",
				"bytecode": {
					"linkReferences": {},
					"object": "6080604052348015600e575f5ffd5b5061012b8061001c5f395ff3fe6080604052348015600e575f5ffd5b50600436106044575f3560e01c80631a8d7dc31460485780635a4236b11460505780639ebb8d20146058578063dd49702c146060575b5f5ffd5b604e6068565b005b6056607d565b005b605e60ac565b005b606660db565b005b600b5f5f018190555060645f60010181905550565b6040518060400160405280600b815260200160648152505f5f820151815f015560208201518160010155905050565b6040518060400160405280600b815260200160648152505f5f820151815f015560208201518160010155905050565b5f5f9050600b815f0181905550606481600101819055505056fea2646970667358221220b2b138599dba4cc307e9388678ba41e4df282a15c60ae7327c8ccd38e436ced164736f6c634300081e0033",
					"opcodes": "PUSH1 0x80 PUSH1 0x40 MSTORE CALLVALUE DUP1 ISZERO PUSH1 0xE JUMPI PUSH0 PUSH0 REVERT JUMPDEST POP PUSH2 0x12B DUP1 PUSH2 0x1C PUSH0 CODECOPY PUSH0 RETURN INVALID PUSH1 0x80 PUSH1 0x40 MSTORE CALLVALUE DUP1 ISZERO PUSH1 0xE JUMPI PUSH0 PUSH0 REVERT JUMPDEST POP PUSH1 0x4 CALLDATASIZE LT PUSH1 0x44 JUMPI PUSH0 CALLDATALOAD PUSH1 0xE0 SHR DUP1 PUSH4 0x1A8D7DC3 EQ PUSH1 0x48 JUMPI DUP1 PUSH4 0x5A4236B1 EQ PUSH1 0x50 JUMPI DUP1 PUSH4 0x9EBB8D20 EQ PUSH1 0x58 JUMPI DUP1 PUSH4 0xDD49702C EQ PUSH1 0x60 JUMPI JUMPDEST PUSH0 PUSH0 REVERT JUMPDEST PUSH1 0x4E PUSH1 0x68 JUMP JUMPDEST STOP JUMPDEST PUSH1 0x56 PUSH1 0x7D JUMP JUMPDEST STOP JUMPDEST PUSH1 0x5E PUSH1 0xAC JUMP JUMPDEST STOP JUMPDEST PUSH1 0x66 PUSH1 0xDB JUMP JUMPDEST STOP JUMPDEST PUSH1 0xB PUSH0 PUSH0 ADD DUP2 SWAP1 SSTORE POP PUSH1 0x64 PUSH0 PUSH1 0x1 ADD DUP2 SWAP1 SSTORE POP JUMP JUMPDEST PUSH1 0x40 MLOAD DUP1 PUSH1 0x40 ADD PUSH1 0x40 MSTORE DUP1 PUSH1 0xB DUP2 MSTORE PUSH1 0x20 ADD PUSH1 0x64 DUP2 MSTORE POP PUSH0 PUSH0 DUP3 ADD MLOAD DUP2 PUSH0 ADD SSTORE PUSH1 0x20 DUP3 ADD MLOAD DUP2 PUSH1 0x1 ADD SSTORE SWAP1 POP POP JUMP JUMPDEST PUSH1 0x40 MLOAD DUP1 PUSH1 0x40 ADD PUSH1 0x40 MSTORE DUP1 PUSH1 0xB DUP2 MSTORE PUSH1 0x20 ADD PUSH1 0x64 DUP2 MSTORE POP PUSH0 PUSH0 DUP3 ADD MLOAD DUP2 PUSH0 ADD SSTORE PUSH1 0x20 DUP3 ADD MLOAD DUP2 PUSH1 0x1 ADD SSTORE SWAP1 POP POP JUMP JUMPDEST PUSH0 PUSH0 SWAP1 POP PUSH1 0xB DUP2 PUSH0 ADD DUP2 SWAP1 SSTORE POP PUSH1 0x64 DUP2 PUSH1 0x1 ADD DUP2 SWAP1 SSTORE POP POP JUMP INVALID LOG2 PUSH5 0x6970667358 0x22 SLT KECCAK256 0xB2 0xB1 CODESIZE MSIZE SWAP14 0xBA 0x4C 0xC3 SMOD 0xE9 CODESIZE DUP7 PUSH25 0xBA41E4DF282A15C60AE7327C8CCD38E436CED164736F6C6343 STOP ADDMOD 0x1E STOP CALLER "
				},
				"gasEstimates": {
					"creation": {
						"codeDepositCost": "59800",
						"executionCost": "109",
						"totalCost": "59909"
					},
					"external": {
						"initStudent()": "44437",
						"initStudent2()": "44358",
						"initStudent3()": "44451",
						"initStudent4()": "44473"
					}
				},
				"methodIdentifiers": {
					"initStudent()": "dd49702c",
					"initStudent2()": "1a8d7dc3",
					"initStudent3()": "5a4236b1",
					"initStudent4()": "9ebb8d20"
				}
			},
			"storageLayout": {
				"storage": [
					{
						"astId": 118,
						"contract": "study/arrayAndStruct.sol:StructTypes",
						"label": "student",
						"offset": 0,
						"slot": "0",
						"type": "t_struct(Student)115_storage"
					}
				],
				"types": {
					"t_struct(Student)115_storage": {
						"encoding": "inplace",
						"label": "struct StructTypes.Student",
						"members": [
							{
								"astId": 112,
								"contract": "study/arrayAndStruct.sol:StructTypes",
								"label": "id",
								"offset": 0,
								"slot": "0",
								"type": "t_uint256"
							},
							{
								"astId": 114,
								"contract": "study/arrayAndStruct.sol:StructTypes",
								"label": "score",
								"offset": 0,
								"slot": "1",
								"type": "t_uint256"
							}
						],
						"numberOfBytes": "64"
					},
					"t_uint256": {
						"encoding": "inplace",
						"label": "uint256",
						"numberOfBytes": "32"
					}
				}
			},
			"userdoc": {
				"kind": "user",
				"methods": {},
				"version": 1
			}
		}
	}
}