{
	"data": {
		"bytecode": {
			"linkReferences": {},
			"object": "6080604052600160115f6101000a81548160ff0219169083151502179055503480156028575f5ffd5b50610791806100365f395ff3fe608060405234801561000f575f5ffd5b50600436106100cd575f3560e01c80638a054ac21161008a5780639e6ba9c2116100645780639e6ba9c2146101ca578063a2ba3ee4146101e8578063af45869e14610218578063ea8e4fd114610236576100cd565b80638a054ac214610184578063924b3d211461018e5780639b267f09146101ac576100cd565b806312b7b142146100d157806318bad217146101015780632543135b1461011f57806330c0826f1461013d57806352028be31461015b57806386ed6eac1461017a575b5f5ffd5b6100eb60048036038101906100e691906104a5565b610266565b6040516100f891906104df565b60405180910390f35b61010961027f565b6040516101169190610537565b60405180910390f35b6101276102a4565b60405161013491906104df565b60405180910390f35b6101456102aa565b60405161015291906105c3565b60405180910390f35b6101636102bd565b60405161017192919061064c565b60405180910390f35b610182610354565b005b61018c610356565b005b610196610369565b6040516101a39190610694565b60405180910390f35b6101b461037b565b6040516101c191906106ad565b60405180910390f35b6101d2610407565b6040516101df9190610694565b60405180910390f35b61020260048036038101906101fd91906104a5565b610418565b60405161020f9190610537565b60405180910390f35b610220610448565b60405161022d91906106e5565b60405180910390f35b610250600480360381019061024b91906104a5565b61044e565b60405161025d91906104df565b60405180910390f35b60058160088110610275575f80fd5b015f915090505481565b60045f9054906101000a900473ffffffffffffffffffffffffffffffffffffffff1681565b60025481565b600460149054906101000a900460ff1681565b600f805f0180546102cd9061072b565b80601f01602080910402602001604051908101604052809291908181526020018280546102f99061072b565b80156103445780601f1061031b57610100808354040283529160200191610344565b820191905f5260205f20905b81548152906001019060200180831161032757829003601f168201915b5050505050908060010154905082565b565b60115f6101000a81549060ff0219169055565b60115f9054906101000a900460ff1681565b600180546103889061072b565b80601f01602080910402602001604051908101604052809291908181526020018280546103b49061072b565b80156103ff5780601f106103d6576101008083540402835291602001916103ff565b820191905f5260205f20905b8154815290600101906020018083116103e257829003601f168201915b505050505081565b5f5f9054906101000a900460ff1681565b600e602052805f5260405f205f915054906101000a900473ffffffffffffffffffffffffffffffffffffffff1681565b60035481565b600d818154811061045d575f80fd5b905f5260205f20015f915090505481565b5f5ffd5b5f819050919050565b61048481610472565b811461048e575f5ffd5b50565b5f8135905061049f8161047b565b92915050565b5f602082840312156104ba576104b961046e565b5b5f6104c784828501610491565b91505092915050565b6104d981610472565b82525050565b5f6020820190506104f25f8301846104d0565b92915050565b5f73ffffffffffffffffffffffffffffffffffffffff82169050919050565b5f610521826104f8565b9050919050565b61053181610517565b82525050565b5f60208201905061054a5f830184610528565b92915050565b7f4e487b71000000000000000000000000000000000000000000000000000000005f52602160045260245ffd5b6003811061058e5761058d610550565b5b50565b5f81905061059e8261057d565b919050565b5f6105ad82610591565b9050919050565b6105bd816105a3565b82525050565b5f6020820190506105d65f8301846105b4565b92915050565b5f81519050919050565b5f82825260208201905092915050565b8281835e5f83830152505050565b5f601f19601f8301169050919050565b5f61061e826105dc565b61062881856105e6565b93506106388185602086016105f6565b61064181610604565b840191505092915050565b5f6040820190508181035f8301526106648185610614565b905061067360208301846104d0565b9392505050565b5f8115159050919050565b61068e8161067a565b82525050565b5f6020820190506106a75f830184610685565b92915050565b5f6020820190508181035f8301526106c58184610614565b905092915050565b5f819050919050565b6106df816106cd565b82525050565b5f6020820190506106f85f8301846106d6565b92915050565b7f4e487b71000000000000000000000000000000000000000000000000000000005f52602260045260245ffd5b5f600282049050600182168061074257607f821691505b602082108103610755576107546106fe565b5b5091905056fea264697066735822122022ebc63012db62de7e345aa4b1f997d7de1b93f0d4b0cb2e81c280049af8661f64736f6c634300081e0033",
			"opcodes": "PUSH1 0x80 PUSH1 0x40 MSTORE PUSH1 0x1 PUSH1 0x11 PUSH0 PUSH2 0x100 EXP DUP2 SLOAD DUP2 PUSH1 0xFF MUL NOT AND SWAP1 DUP4 ISZERO ISZERO MUL OR SWAP1 SSTORE POP CALLVALUE DUP1 ISZERO PUSH1 0x28 JUMPI PUSH0 PUSH0 REVERT JUMPDEST POP PUSH2 0x791 DUP1 PUSH2 0x36 PUSH0 CODECOPY PUSH0 RETURN INVALID PUSH1 0x80 PUSH1 0x40 MSTORE CALLVALUE DUP1 ISZERO PUSH2 0xF JUMPI PUSH0 PUSH0 REVERT JUMPDEST POP PUSH1 0x4 CALLDATASIZE LT PUSH2 0xCD JUMPI PUSH0 CALLDATALOAD PUSH1 0xE0 SHR DUP1 PUSH4 0x8A054AC2 GT PUSH2 0x8A JUMPI DUP1 PUSH4 0x9E6BA9C2 GT PUSH2 0x64 JUMPI DUP1 PUSH4 0x9E6BA9C2 EQ PUSH2 0x1CA JUMPI DUP1 PUSH4 0xA2BA3EE4 EQ PUSH2 0x1E8 JUMPI DUP1 PUSH4 0xAF45869E EQ PUSH2 0x218 JUMPI DUP1 PUSH4 0xEA8E4FD1 EQ PUSH2 0x236 JUMPI PUSH2 0xCD JUMP JUMPDEST DUP1 PUSH4 0x8A054AC2 EQ PUSH2 0x184 JUMPI DUP1 PUSH4 0x924B3D21 EQ PUSH2 0x18E JUMPI DUP1 PUSH4 0x9B267F09 EQ PUSH2 0x1AC JUMPI PUSH2 0xCD JUMP JUMPDEST DUP1 PUSH4 0x12B7B142 EQ PUSH2 0xD1 JUMPI DUP1 PUSH4 0x18BAD217 EQ PUSH2 0x101 JUMPI DUP1 PUSH4 0x2543135B EQ PUSH2 0x11F JUMPI DUP1 PUSH4 0x30C0826F EQ PUSH2 0x13D JUMPI DUP1 PUSH4 0x52028BE3 EQ PUSH2 0x15B JUMPI DUP1 PUSH4 0x86ED6EAC EQ PUSH2 0x17A JUMPI JUMPDEST PUSH0 PUSH0 REVERT JUMPDEST PUSH2 0xEB PUSH1 0x4 DUP1 CALLDATASIZE SUB DUP2 ADD SWAP1 PUSH2 0xE6 SWAP2 SWAP1 PUSH2 0x4A5 JUMP JUMPDEST PUSH2 0x266 JUMP JUMPDEST PUSH1 0x40 MLOAD PUSH2 0xF8 SWAP2 SWAP1 PUSH2 0x4DF JUMP JUMPDEST PUSH1 0x40 MLOAD DUP1 SWAP2 SUB SWAP1 RETURN JUMPDEST PUSH2 0x109 PUSH2 0x27F JUMP JUMPDEST PUSH1 0x40 MLOAD PUSH2 0x116 SWAP2 SWAP1 PUSH2 0x537 JUMP JUMPDEST PUSH1 0x40 MLOAD DUP1 SWAP2 SUB SWAP1 RETURN JUMPDEST PUSH2 0x127 PUSH2 0x2A4 JUMP JUMPDEST PUSH1 0x40 MLOAD PUSH2 0x134 SWAP2 SWAP1 PUSH2 0x4DF JUMP JUMPDEST PUSH1 0x40 MLOAD DUP1 SWAP2 SUB SWAP1 RETURN JUMPDEST PUSH2 0x145 PUSH2 0x2AA JUMP JUMPDEST PUSH1 0x40 MLOAD PUSH2 0x152 SWAP2 SWAP1 PUSH2 0x5C3 JUMP JUMPDEST PUSH1 0x40 MLOAD DUP1 SWAP2 SUB SWAP1 RETURN JUMPDEST PUSH2 0x163 PUSH2 0x2BD JUMP JUMPDEST PUSH1 0x40 MLOAD PUSH2 0x171 SWAP3 SWAP2 SWAP1 PUSH2 0x64C JUMP JUMPDEST PUSH1 0x40 MLOAD DUP1 SWAP2 SUB SWAP1 RETURN JUMPDEST PUSH2 0x182 PUSH2 0x354 JUMP JUMPDEST STOP JUMPDEST PUSH2 0x18C PUSH2 0x356 JUMP JUMPDEST STOP JUMPDEST PUSH2 0x196 PUSH2 0x369 JUMP JUMPDEST PUSH1 0x40 MLOAD PUSH2 0x1A3 SWAP2 SWAP1 PUSH2 0x694 JUMP JUMPDEST PUSH1 0x40 MLOAD DUP1 SWAP2 SUB SWAP1 RETURN JUMPDEST PUSH2 0x1B4 PUSH2 0x37B JUMP JUMPDEST PUSH1 0x40 MLOAD PUSH2 0x1C1 SWAP2 SWAP1 PUSH2 0x6AD JUMP JUMPDEST PUSH1 0x40 MLOAD DUP1 SWAP2 SUB SWAP1 RETURN JUMPDEST PUSH2 0x1D2 PUSH2 0x407 JUMP JUMPDEST PUSH1 0x40 MLOAD PUSH2 0x1DF SWAP2 SWAP1 PUSH2 0x694 JUMP JUMPDEST PUSH1 0x40 MLOAD DUP1 SWAP2 SUB SWAP1 RETURN JUMPDEST PUSH2 0x202 PUSH1 0x4 DUP1 CALLDATASIZE SUB DUP2 ADD SWAP1 PUSH2 0x1FD SWAP2 SWAP1 PUSH2 0x4A5 JUMP JUMPDEST PUSH2 0x418 JUMP JUMPDEST PUSH1 0x40 MLOAD PUSH2 0x20F SWAP2 SWAP1 PUSH2 0x537 JUMP JUMPDEST PUSH1 0x40 MLOAD DUP1 SWAP2 SUB SWAP1 RETURN JUMPDEST PUSH2 0x220 PUSH2 0x448 JUMP JUMPDEST PUSH1 0x40 MLOAD PUSH2 0x22D SWAP2 SWAP1 PUSH2 0x6E5 JUMP JUMPDEST PUSH1 0x40 MLOAD DUP1 SWAP2 SUB SWAP1 RETURN JUMPDEST PUSH2 0x250 PUSH1 0x4 DUP1 CALLDATASIZE SUB DUP2 ADD SWAP1 PUSH2 0x24B SWAP2 SWAP1 PUSH2 0x4A5 JUMP JUMPDEST PUSH2 0x44E JUMP JUMPDEST PUSH1 0x40 MLOAD PUSH2 0x25D SWAP2 SWAP1 PUSH2 0x4DF JUMP JUMPDEST PUSH1 0x40 MLOAD DUP1 SWAP2 SUB SWAP1 RETURN JUMPDEST PUSH1 0x5 DUP2 PUSH1 0x8 DUP2 LT PUSH2 0x275 JUMPI PUSH0 DUP1 REVERT JUMPDEST ADD PUSH0 SWAP2 POP SWAP1 POP SLOAD DUP2 JUMP JUMPDEST PUSH1 0x4 PUSH0 SWAP1 SLOAD SWAP1 PUSH2 0x100 EXP SWAP1 DIV PUSH20 0xFFFFFFFFFFFFFFFFFFFFFFFFFFFFFFFFFFFFFFFF AND DUP2 JUMP JUMPDEST PUSH1 0x2 SLOAD DUP2 JUMP JUMPDEST PUSH1 0x4 PUSH1 0x14 SWAP1 SLOAD SWAP1 PUSH2 0x100 EXP SWAP1 DIV PUSH1 0xFF AND DUP2 JUMP JUMPDEST PUSH1 0xF DUP1 PUSH0 ADD DUP1 SLOAD PUSH2 0x2CD SWAP1 PUSH2 0x72B JUMP JUMPDEST DUP1 PUSH1 0x1F ADD PUSH1 0x20 DUP1 SWAP2 DIV MUL PUSH1 0x20 ADD PUSH1 0x40 MLOAD SWAP1 DUP2 ADD PUSH1 0x40 MSTORE DUP1 SWAP3 SWAP2 SWAP1 DUP2 DUP2 MSTORE PUSH1 0x20 ADD DUP3 DUP1 SLOAD PUSH2 0x2F9 SWAP1 PUSH2 0x72B JUMP JUMPDEST DUP1 ISZERO PUSH2 0x344 JUMPI DUP1 PUSH1 0x1F LT PUSH2 0x31B JUMPI PUSH2 0x100 DUP1 DUP4 SLOAD DIV MUL DUP4 MSTORE SWAP2 PUSH1 0x20 ADD SWAP2 PUSH2 0x344 JUMP JUMPDEST DUP3 ADD SWAP2 SWAP1 PUSH0 MSTORE PUSH1 0x20 PUSH0 KECCAK256 SWAP1 JUMPDEST DUP2 SLOAD DUP2 MSTORE SWAP1 PUSH1 0x1 ADD SWAP1 PUSH1 0x20 ADD DUP1 DUP4 GT PUSH2 0x327 JUMPI DUP3 SWAP1 SUB PUSH1 0x1F AND DUP3 ADD SWAP2 JUMPDEST POP POP POP POP POP SWAP1 DUP1 PUSH1 0x1 ADD SLOAD SWAP1 POP DUP3 JUMP JUMPDEST JUMP JUMPDEST PUSH1 0x11 PUSH0 PUSH2 0x100 EXP DUP2 SLOAD SWAP1 PUSH1 0xFF MUL NOT AND SWAP1 SSTORE JUMP JUMPDEST PUSH1 0x11 PUSH0 SWAP1 SLOAD SWAP1 PUSH2 0x100 EXP SWAP1 DIV PUSH1 0xFF AND DUP2 JUMP JUMPDEST PUSH1 0x1 DUP1 SLOAD PUSH2 0x388 SWAP1 PUSH2 0x72B JUMP JUMPDEST DUP1 PUSH1 0x1F ADD PUSH1 0x20 DUP1 SWAP2 DIV MUL PUSH1 0x20 ADD PUSH1 0x40 MLOAD SWAP1 DUP2 ADD PUSH1 0x40 MSTORE DUP1 SWAP3 SWAP2 SWAP1 DUP2 DUP2 MSTORE PUSH1 0x20 ADD DUP3 DUP1 SLOAD PUSH2 0x3B4 SWAP1 PUSH2 0x72B JUMP JUMPDEST DUP1 ISZERO PUSH2 0x3FF JUMPI DUP1 PUSH1 0x1F LT PUSH2 0x3D6 JUMPI PUSH2 0x100 DUP1 DUP4 SLOAD DIV MUL DUP4 MSTORE SWAP2 PUSH1 0x20 ADD SWAP2 PUSH2 0x3FF JUMP JUMPDEST DUP3 ADD SWAP2 SWAP1 PUSH0 MSTORE PUSH1 0x20 PUSH0 KECCAK256 SWAP1 JUMPDEST DUP2 SLOAD DUP2 MSTORE SWAP1 PUSH1 0x1 ADD SWAP1 PUSH1 0x20 ADD DUP1 DUP4 GT PUSH2 0x3E2 JUMPI DUP3 SWAP1 SUB PUSH1 0x1F AND DUP3 ADD SWAP2 JUMPDEST POP POP POP POP POP DUP2 JUMP JUMPDEST PUSH0 PUSH0 SWAP1 SLOAD SWAP1 PUSH2 0x100 EXP SWAP1 DIV PUSH1 0xFF AND DUP2 JUMP JUMPDEST PUSH1 0xE PUSH1 0x20 MSTORE DUP1 PUSH0 MSTORE PUSH1 0x40 PUSH0 KECCAK256 PUSH0 SWAP2 POP SLOAD SWAP1 PUSH2 0x100 EXP SWAP1 DIV PUSH20 0xFFFFFFFFFFFFFFFFFFFFFFFFFFFFFFFFFFFFFFFF AND DUP2 JUMP JUMPDEST PUSH1 0x3 SLOAD DUP2 JUMP JUMPDEST PUSH1 0xD DUP2 DUP2 SLOAD DUP2 LT PUSH2 0x45D JUMPI PUSH0 DUP1 REVERT JUMPDEST SWAP1 PUSH0 MSTORE PUSH1 0x20 PUSH0 KECCAK256 ADD PUSH0 SWAP2 POP SWAP1 POP SLOAD DUP2 JUMP JUMPDEST PUSH0 PUSH0 REVERT JUMPDEST PUSH0 DUP2 SWAP1 POP SWAP2 SWAP1 POP JUMP JUMPDEST PUSH2 0x484 DUP2 PUSH2 0x472 JUMP JUMPDEST DUP2 EQ PUSH2 0x48E JUMPI PUSH0 PUSH0 REVERT JUMPDEST POP JUMP JUMPDEST PUSH0 DUP2 CALLDATALOAD SWAP1 POP PUSH2 0x49F DUP2 PUSH2 0x47B JUMP JUMPDEST SWAP3 SWAP2 POP POP JUMP JUMPDEST PUSH0 PUSH1 0x20 DUP3 DUP5 SUB SLT ISZERO PUSH2 0x4BA JUMPI PUSH2 0x4B9 PUSH2 0x46E JUMP JUMPDEST JUMPDEST PUSH0 PUSH2 0x4C7 DUP5 DUP3 DUP6 ADD PUSH2 0x491 JUMP JUMPDEST SWAP2 POP POP SWAP3 SWAP2 POP POP JUMP JUMPDEST PUSH2 0x4D9 DUP2 PUSH2 0x472 JUMP JUMPDEST DUP3 MSTORE POP POP JUMP JUMPDEST PUSH0 PUSH1 0x20 DUP3 ADD SWAP1 POP PUSH2 0x4F2 PUSH0 DUP4 ADD DUP5 PUSH2 0x4D0 JUMP JUMPDEST SWAP3 SWAP2 POP POP JUMP JUMPDEST PUSH0 PUSH20 0xFFFFFFFFFFFFFFFFFFFFFFFFFFFFFFFFFFFFFFFF DUP3 AND SWAP1 POP SWAP2 SWAP1 POP JUMP JUMPDEST PUSH0 PUSH2 0x521 DUP3 PUSH2 0x4F8 JUMP JUMPDEST SWAP1 POP SWAP2 SWAP1 POP JUMP JUMPDEST PUSH2 0x531 DUP2 PUSH2 0x517 JUMP JUMPDEST DUP3 MSTORE POP POP JUMP JUMPDEST PUSH0 PUSH1 0x20 DUP3 ADD SWAP1 POP PUSH2 0x54A PUSH0 DUP4 ADD DUP5 PUSH2 0x528 JUMP JUMPDEST SWAP3 SWAP2 POP POP JUMP JUMPDEST PUSH32 0x4E487B7100000000000000000000000000000000000000000000000000000000 PUSH0 MSTORE PUSH1 0x21 PUSH1 0x4 MSTORE PUSH1 0x24 PUSH0 REVERT JUMPDEST PUSH1 0x3 DUP2 LT PUSH2 0x58E JUMPI PUSH2 0x58D PUSH2 0x550 JUMP JUMPDEST JUMPDEST POP JUMP JUMPDEST PUSH0 DUP2 SWAP1 POP PUSH2 0x59E DUP3 PUSH2 0x57D JUMP JUMPDEST SWAP2 SWAP1 POP JUMP JUMPDEST PUSH0 PUSH2 0x5AD DUP3 PUSH2 0x591 JUMP JUMPDEST SWAP1 POP SWAP2 SWAP1 POP JUMP JUMPDEST PUSH2 0x5BD DUP2 PUSH2 0x5A3 JUMP JUMPDEST DUP3 MSTORE POP POP JUMP JUMPDEST PUSH0 PUSH1 0x20 DUP3 ADD SWAP1 POP PUSH2 0x5D6 PUSH0 DUP4 ADD DUP5 PUSH2 0x5B4 JUMP JUMPDEST SWAP3 SWAP2 POP POP JUMP JUMPDEST PUSH0 DUP2 MLOAD SWAP1 POP SWAP2 SWAP1 POP JUMP JUMPDEST PUSH0 DUP3 DUP3 MSTORE PUSH1 0x20 DUP3 ADD SWAP1 POP SWAP3 SWAP2 POP POP JUMP JUMPDEST DUP3 DUP2 DUP4 MCOPY PUSH0 DUP4 DUP4 ADD MSTORE POP POP POP JUMP JUMPDEST PUSH0 PUSH1 0x1F NOT PUSH1 0x1F DUP4 ADD AND SWAP1 POP SWAP2 SWAP1 POP JUMP JUMPDEST PUSH0 PUSH2 0x61E DUP3 PUSH2 0x5DC JUMP JUMPDEST PUSH2 0x628 DUP2 DUP6 PUSH2 0x5E6 JUMP JUMPDEST SWAP4 POP PUSH2 0x638 DUP2 DUP6 PUSH1 0x20 DUP7 ADD PUSH2 0x5F6 JUMP JUMPDEST PUSH2 0x641 DUP2 PUSH2 0x604 JUMP JUMPDEST DUP5 ADD SWAP2 POP POP SWAP3 SWAP2 POP POP JUMP JUMPDEST PUSH0 PUSH1 0x40 DUP3 ADD SWAP1 POP DUP2 DUP2 SUB PUSH0 DUP4 ADD MSTORE PUSH2 0x664 DUP2 DUP6 PUSH2 0x614 JUMP JUMPDEST SWAP1 POP PUSH2 0x673 PUSH1 0x20 DUP4 ADD DUP5 PUSH2 0x4D0 JUMP JUMPDEST SWAP4 SWAP3 POP POP POP JUMP JUMPDEST PUSH0 DUP2 ISZERO ISZERO SWAP1 POP SWAP2 SWAP1 POP JUMP JUMPDEST PUSH2 0x68E DUP2 PUSH2 0x67A JUMP JUMPDEST DUP3 MSTORE POP POP JUMP JUMPDEST PUSH0 PUSH1 0x20 DUP3 ADD SWAP1 POP PUSH2 0x6A7 PUSH0 DUP4 ADD DUP5 PUSH2 0x685 JUMP JUMPDEST SWAP3 SWAP2 POP POP JUMP JUMPDEST PUSH0 PUSH1 0x20 DUP3 ADD SWAP1 POP DUP2 DUP2 SUB PUSH0 DUP4 ADD MSTORE PUSH2 0x6C5 DUP2 DUP5 PUSH2 0x614 JUMP JUMPDEST SWAP1 POP SWAP3 SWAP2 POP POP JUMP JUMPDEST PUSH0 DUP2 SWAP1 POP SWAP2 SWAP1 POP JUMP JUMPDEST PUSH2 0x6DF DUP2 PUSH2 0x6CD JUMP JUMPDEST DUP3 MSTORE POP POP JUMP JUMPDEST PUSH0 PUSH1 0x20 DUP3 ADD SWAP1 POP PUSH2 0x6F8 PUSH0 DUP4 ADD DUP5 PUSH2 0x6D6 JUMP JUMPDEST SWAP3 SWAP2 POP POP JUMP JUMPDEST PUSH32 0x4E487B7100000000000000000000000000000000000000000000000000000000 PUSH0 MSTORE PUSH1 0x22 PUSH1 0x4 MSTORE PUSH1 0x24 PUSH0 REVERT JUMPDEST PUSH0 PUSH1 0x2 DUP3 DIV SWAP1 POP PUSH1 0x1 DUP3 AND DUP1 PUSH2 0x742 JUMPI PUSH1 0x7F DUP3 AND SWAP2 POP JUMPDEST PUSH1 0x20 DUP3 LT DUP2 SUB PUSH2 0x755 JUMPI PUSH2 0x754 PUSH2 0x6FE JUMP JUMPDEST JUMPDEST POP SWAP2 SWAP1 POP JUMP INVALID LOG2 PUSH5 0x6970667358 0x22 SLT KECCAK256 0x22 0xEB 0xC6 ADDRESS SLT 0xDB PUSH3 0xDE7E34 GAS LOG4 0xB1 EXTDELEGATECALL SWAP8 0xD7 0xDE SHL SWAP4 CREATE 0xD4 0xB0 0xCB 0x2E DUP2 0xC2 DUP1 DIV SWAP11 EXTCALL PUSH7 0x1F64736F6C6343 STOP ADDMOD 0x1E STOP CALLER "
		},
		"gasEstimates": {
			"creation": {
				"codeDepositCost": "387400",
				"executionCost": "24688",
				"totalCost": "412088"
			},
			"external": {
				"_address()": "2531",
				"_book()": "infinite",
				"_bool()": "2487",
				"_bool1()": "2511",
				"_dynamicArray(uint256)": "infinite",
				"_enum()": "2672",
				"_int()": "2491",
				"_mapping(uint256)": "2871",
				"_staticArray(uint256)": "infinite",
				"_string()": "infinite",
				"_uint()": "2470",
				"d()": "24407",
				"fe()": "254"
			},
			"internal": {
				"fi()": "infinite"
			}
		},
		"methodIdentifiers": {
			"_address()": "18bad217",
			"_book()": "52028be3",
			"_bool()": "9e6ba9c2",
			"_bool1()": "924b3d21",
			"_dynamicArray(uint256)": "ea8e4fd1",
			"_enum()": "30c0826f",
			"_int()": "af45869e",
			"_mapping(uint256)": "a2ba3ee4",
			"_staticArray(uint256)": "12b7b142",
			"_string()": "9b267f09",
			"_uint()": "2543135b",
			"d()": "8a054ac2",
			"fe()": "86ed6eac"
		}
	},
	"abi": [
		{
			"inputs": [],
			"name": "_address",
			"outputs": [
				{
					"internalType": "address",
					"name": "",
					"type": "address"
				}
			],
			"stateMutability": "view",
			"type": "function"
		},
		{
			"inputs": [],
			"name": "_book",
			"outputs": [
				{
					"internalType": "string",
					"name": "title",
					"type": "string"
				},
				{
					"internalType": "uint256",
					"name": "id",
					"type": "uint256"
				}
			],
			"stateMutability": "view",
			"type": "function"
		},
		{
			"inputs": [],
			"name": "_bool",
			"outputs": [
				{
					"internalType": "bool",
					"name": "",
					"type": "bool"
				}
			],
			"stateMutability": "view",
			"type": "function"
		},
		{
			"inputs": [],
			"name": "_bool1",
			"outputs": [
				{
					"internalType": "bool",
					"name": "",
					"type": "bool"
				}
			],
			"stateMutability": "view",
			"type": "function"
		},
		{
			"inputs": [
				{
					"internalType": "uint256",
					"name": "",
					"type": "uint256"
				}
			],
			"name": "_dynamicArray",
			"outputs": [
				{
					"internalType": "uint256",
					"name": "",
					"type": "uint256"
				}
			],
			"stateMutability": "view",
			"type": "function"
		},
		{
			"inputs": [],
			"name": "_enum",
			"outputs": [
				{
					"internalType": "enum InitialValue.ActionSet",
					"name": "",
					"type": "uint8"
				}
			],
			"stateMutability": "view",
			"type": "function"
		},
		{
			"inputs": [],
			"name": "_int",
			"outputs": [
				{
					"internalType": "int256",
					"name": "",
					"type": "int256"
				}
			],
			"stateMutability": "view",
			"type": "function"
		},
		{
			"inputs": [
				{
					"internalType": "uint256",
					"name": "",
					"type": "uint256"
				}
			],
			"name": "_mapping",
			"outputs": [
				{
					"internalType": "address",
					"name": "",
					"type": "address"
				}
			],
			"stateMutability": "view",
			"type": "function"
		},
		{
			"inputs": [
				{
					"internalType": "uint256",
					"name": "",
					"type": "uint256"
				}
			],
			"name": "_staticArray",
			"outputs": [
				{
					"internalType": "uint256",
					"name": "",
					"type": "uint256"
				}
			],
			"stateMutability": "view",
			"type": "function"
		},
		{
			"inputs": [],
			"name": "_string",
			"outputs": [
				{
					"internalType": "string",
					"name": "",
					"type": "string"
				}
			],
			"stateMutability": "view",
			"type": "function"
		},
		{
			"inputs": [],
			"name": "_uint",
			"outputs": [
				{
					"internalType": "uint256",
					"name": "",
					"type": "uint256"
				}
			],
			"stateMutability": "view",
			"type": "function"
		},
		{
			"inputs": [],
			"name": "d",
			"outputs": [],
			"stateMutability": "nonpayable",
			"type": "function"
		},
		{
			"inputs": [],
			"name": "fe",
			"outputs": [],
			"stateMutability": "nonpayable",
			"type": "function"
		}
	]
}