{
	"data": {
		"bytecode": {
			"linkReferences": {},
			"object": "6080604052348015600e575f5ffd5b5061012b8061001c5f395ff3fe6080604052348015600e575f5ffd5b50600436106044575f3560e01c80631a8d7dc31460485780635a4236b11460505780639ebb8d20146058578063dd49702c146060575b5f5ffd5b604e6068565b005b6056607d565b005b605e60ac565b005b606660db565b005b600b5f5f018190555060645f60010181905550565b6040518060400160405280600b815260200160648152505f5f820151815f015560208201518160010155905050565b6040518060400160405280600b815260200160648152505f5f820151815f015560208201518160010155905050565b5f5f9050600b815f0181905550606481600101819055505056fea2646970667358221220b2b138599dba4cc307e9388678ba41e4df282a15c60ae7327c8ccd38e436ced164736f6c634300081e0033",
			"opcodes": "PUSH1 0x80 PUSH1 0x40 MSTORE CALLVALUE DUP1 ISZERO PUSH1 0xE JUMPI PUSH0 PUSH0 REVERT JUMPDEST POP PUSH2 0x12B DUP1 PUSH2 0x1C PUSH0 CODECOPY PUSH0 RETURN INVALID PUSH1 0x80 PUSH1 0x40 MSTORE CALLVALUE DUP1 ISZERO PUSH1 0xE JUMPI PUSH0 PUSH0 REVERT JUMPDEST POP PUSH1 0x4 CALLDATASIZE LT PUSH1 0x44 JUMPI PUSH0 CALLDATALOAD PUSH1 0xE0 SHR DUP1 PUSH4 0x1A8D7DC3 EQ PUSH1 0x48 JUMPI DUP1 PUSH4 0x5A4236B1 EQ PUSH1 0x50 JUMPI DUP1 PUSH4 0x9EBB8D20 EQ PUSH1 0x58 JUMPI DUP1 PUSH4 0xDD49702C EQ PUSH1 0x60 JUMPI JUMPDEST PUSH0 PUSH0 REVERT JUMPDEST PUSH1 0x4E PUSH1 0x68 JUMP JUMPDEST STOP JUMPDEST PUSH1 0x56 PUSH1 0x7D JUMP JUMPDEST STOP JUMPDEST PUSH1 0x5E PUSH1 0xAC JUMP JUMPDEST STOP JUMPDEST PUSH1 0x66 PUSH1 0xDB JUMP JUMPDEST STOP JUMPDEST PUSH1 0xB PUSH0 PUSH0 ADD DUP2 SWAP1 SSTORE POP PUSH1 0x64 PUSH0 PUSH1 0x1 ADD DUP2 SWAP1 SSTORE POP JUMP JUMPDEST PUSH1 0x40 MLOAD DUP1 PUSH1 0x40 ADD PUSH1 0x40 MSTORE DUP1 PUSH1 0xB DUP2 MSTORE PUSH1 0x20 ADD PUSH1 0x64 DUP2 MSTORE POP PUSH0 PUSH0 DUP3 ADD MLOAD DUP2 PUSH0 ADD SSTORE PUSH1 0x20 DUP3 ADD MLOAD DUP2 PUSH1 0x1 ADD SSTORE SWAP1 POP POP JUMP JUMPDEST PUSH1 0x40 MLOAD DUP1 PUSH1 0x40 ADD PUSH1 0x40 MSTORE DUP1 PUSH1 0xB DUP2 MSTORE PUSH1 0x20 ADD PUSH1 0x64 DUP2 MSTORE POP PUSH0 PUSH0 DUP3 ADD MLOAD DUP2 PUSH0 ADD SSTORE PUSH1 0x20 DUP3 ADD MLOAD DUP2 PUSH1 0x1 ADD SSTORE SWAP1 POP POP JUMP JUMPDEST PUSH0 PUSH0 SWAP1 POP PUSH1 0xB DUP2 PUSH0 ADD DUP2 SWAP1 SSTORE POP PUSH1 0x64 DUP2 PUSH1 0x1 ADD DUP2 SWAP1 SSTORE POP POP JUMP INVALID LOG2 PUSH5 0x6970667358 0x22 SLT KECCAK256 0xB2 0xB1 CODESIZE MSIZE SWAP14 0xBA 0x4C 0xC3 SMOD 0xE9 CODESIZE DUP7 PUSH25 0xBA41E4DF282A15C60AE7327C8CCD38E436CED164736F6C6343 STOP ADDMOD 0x1E STOP CALLER "
		},
		"gasEstimates": {
			"creation": {
				"codeDepositCost": "59800",
				"executionCost": "109",
				"totalCost": "59909"
			},
			"external": {
				"initStudent()": "44437",
				"initStudent2()": "44358",
				"initStudent3()": "44451",
				"initStudent4()": "44473"
			}
		},
		"methodIdentifiers": {
			"initStudent()": "dd49702c",
			"initStudent2()": "1a8d7dc3",
			"initStudent3()": "5a4236b1",
			"initStudent4()": "9ebb8d20"
		}
	},
	"abi": [
		{
			"inputs": [],
			"name": "initStudent",
			"outputs": [],
			"stateMutability": "nonpayable",
			"type": "function"
		},
		{
			"inputs": [],
			"name": "initStudent2",
			"outputs": [],
			"stateMutability": "nonpayable",
			"type": "function"
		},
		{
			"inputs": [],
			"name": "initStudent3",
			"outputs": [],
			"stateMutability": "nonpayable",
			"type": "function"
		},
		{
			"inputs": [],
			"name": "initStudent4",
			"outputs": [],
			"stateMutability": "nonpayable",
			"type": "function"
		}
	]
}